{
  "abi": [
    {
      "inputs": [
        {
          "internalType": "string[3][]",
          "name": "candidateNamesParty",
          "type": "string[3][]"
        },
        {
          "internalType": "string[]",
          "name": "partyNames",
          "type": "string[]"
        }
      ],
      "stateMutability": "payable",
      "type": "constructor"
    },
    {
      "inputs": [
        {
          "internalType": "string[3][]",
          "name": "candidateNamesParty",
          "type": "string[3][]"
        }
      ],
      "name": "addCandidates",
      "outputs": [],
      "stateMutability": "nonpayable",
      "type": "function"
    },
    {
      "inputs": [
        {
          "internalType": "uint256",
          "name": "",
          "type": "uint256"
        }
      ],
      "name": "candidates",
      "outputs": [
        {
          "internalType": "string",
          "name": "name",
          "type": "string"
        },
        {
          "internalType": "string",
          "name": "party",
          "type": "string"
        },
        {
          "internalType": "uint256",
          "name": "area",
          "type": "uint256"
        },
        {
          "internalType": "uint256",
          "name": "voteCount",
          "type": "uint256"
        }
      ],
      "stateMutability": "view",
      "type": "function"
    },
    {
      "inputs": [],
      "name": "chairperson",
      "outputs": [
        {
          "internalType": "address",
          "name": "",
          "type": "address"
        }
      ],
      "stateMutability": "view",
      "type": "function"
    },
    {
      "inputs": [],
      "name": "fund",
      "outputs": [],
      "stateMutability": "payable",
      "type": "function"
    },
    {
      "inputs": [],
      "name": "getCandidates",
      "outputs": [
        {
          "components": [
            {
              "internalType": "string",
              "name": "name",
              "type": "string"
            },
            {
              "internalType": "string",
              "name": "party",
              "type": "string"
            },
            {
              "internalType": "uint256",
              "name": "area",
              "type": "uint256"
            },
            {
              "internalType": "uint256",
              "name": "voteCount",
              "type": "uint256"
            }
          ],
          "internalType": "struct Voting.Candidate[]",
          "name": "",
          "type": "tuple[]"
        }
      ],
      "stateMutability": "view",
      "type": "function"
    },
    {
      "inputs": [],
      "name": "getParties",
      "outputs": [
        {
          "components": [
            {
              "internalType": "string",
              "name": "name",
              "type": "string"
            },
            {
              "internalType": "uint256",
              "name": "voteCount",
              "type": "uint256"
            }
          ],
          "internalType": "struct Voting.Party[]",
          "name": "",
          "type": "tuple[]"
        }
      ],
      "stateMutability": "view",
      "type": "function"
    },
    {
      "inputs": [],
      "name": "get_balance",
      "outputs": [
        {
          "internalType": "uint256",
          "name": "",
          "type": "uint256"
        }
      ],
      "stateMutability": "view",
      "type": "function"
    },
    {
      "inputs": [
        {
          "internalType": "address payable",
          "name": "voter",
          "type": "address"
        },
        {
          "internalType": "string",
          "name": "id",
          "type": "string"
        },
        {
          "internalType": "string",
          "name": "area",
          "type": "string"
        }
      ],
      "name": "giveRightToVote",
      "outputs": [],
      "stateMutability": "nonpayable",
      "type": "function"
    },
    {
      "inputs": [
        {
          "internalType": "uint256",
          "name": "",
          "type": "uint256"
        }
      ],
      "name": "parties",
      "outputs": [
        {
          "internalType": "string",
          "name": "name",
          "type": "string"
        },
        {
          "internalType": "uint256",
          "name": "voteCount",
          "type": "uint256"
        }
      ],
      "stateMutability": "view",
      "type": "function"
    },
    {
      "inputs": [
        {
          "internalType": "address",
          "name": "voter",
          "type": "address"
        }
      ],
      "name": "removeRightToVote",
      "outputs": [],
      "stateMutability": "nonpayable",
      "type": "function"
    },
    {
      "inputs": [
        {
          "internalType": "string",
          "name": "numString",
          "type": "string"
        }
      ],
      "name": "stringToUint",
      "outputs": [
        {
          "internalType": "uint256",
          "name": "",
          "type": "uint256"
        }
      ],
      "stateMutability": "pure",
      "type": "function"
    },
    {
      "inputs": [
        {
          "internalType": "uint256",
          "name": "candidate",
          "type": "uint256"
        }
      ],
      "name": "voteCandidate",
      "outputs": [],
      "stateMutability": "nonpayable",
      "type": "function"
    },
    {
      "inputs": [
        {
          "internalType": "uint256",
          "name": "party",
          "type": "uint256"
        }
      ],
      "name": "voteParty",
      "outputs": [],
      "stateMutability": "nonpayable",
      "type": "function"
    },
    {
      "inputs": [
        {
          "internalType": "address",
          "name": "",
          "type": "address"
        }
      ],
      "name": "voters",
      "outputs": [
        {
          "internalType": "string",
          "name": "id",
          "type": "string"
        },
        {
          "internalType": "uint256",
          "name": "area",
          "type": "uint256"
        },
        {
          "internalType": "bool",
          "name": "canVote",
          "type": "bool"
        }
      ],
      "stateMutability": "view",
      "type": "function"
    },
    {
      "inputs": [],
      "name": "voters_count",
      "outputs": [
        {
          "internalType": "uint256",
          "name": "",
          "type": "uint256"
        }
      ],
      "stateMutability": "view",
      "type": "function"
    },
    {
      "inputs": [],
      "name": "winningCandidate",
      "outputs": [
        {
          "internalType": "uint256",
          "name": "winningCandidate_",
          "type": "uint256"
        }
      ],
      "stateMutability": "view",
      "type": "function"
    },
    {
      "inputs": [],
      "name": "winningParty",
      "outputs": [
        {
          "internalType": "uint256",
          "name": "winningParty_",
          "type": "uint256"
        }
      ],
      "stateMutability": "view",
      "type": "function"
    }
  ],
  "bytecode": "608060405260006002556040516200222b3803806200222b8339810160408190526200002b916200059e565b600080546001600160a01b03191633908117825581526001602081905260408220600201805460ff191690911790555b8251811015620001a85760036040518060800160405280858481518110620000875762000087620006e7565b6020026020010151600060038110620000a457620000a4620006e7565b60200201518152602001858481518110620000c357620000c3620006e7565b6020026020010151600160038110620000e057620000e0620006e7565b602002015181526020016200012b868581518110620001035762000103620006e7565b6020026020010151600260038110620001205762000120620006e7565b602002015162000260565b8152600060209182018190528354600181018555938152819020825180519394600402909101926200016192849201906200032f565b5060208281015180516200017c92600185019201906200032f565b5060408201516002820155606090910151600390910155806200019f8162000713565b9150506200005b565b5060005b81518110156200023c5760046040518060400160405280848481518110620001d857620001d8620006e7565b60209081029190910181015182526000918101829052835460018101855593825290819020825180519394600202909101926200021992849201906200032f565b506020820151816001015550508080620002339062000713565b915050620001ac565b5060016002600082825462000252919062000731565b90915550620008d992505050565b60008082815b8151811015620003265760008183516200028191906200074c565b905060008383815181106200029a576200029a620006e7565b01602001517fff000000000000000000000000000000000000000000000000000000000000008116915060f81c6000620002d66030836200074c565b9050620002e56001856200074c565b620002f290600a62000865565b620002fe90826200087a565b6200030a908862000731565b96505050505080806200031d9062000713565b91505062000266565b50909392505050565b8280546200033d906200089c565b90600052602060002090601f016020900481019282620003615760008555620003ac565b82601f106200037c57805160ff1916838001178555620003ac565b82800160010185558215620003ac579182015b82811115620003ac5782518255916020019190600101906200038f565b50620003ba929150620003be565b5090565b5b80821115620003ba5760008155600101620003bf565b634e487b7160e01b600052604160045260246000fd5b604051606081016001600160401b0381118282101715620004105762000410620003d5565b60405290565b604051601f8201601f191681016001600160401b0381118282101715620004415762000441620003d5565b604052919050565b60006001600160401b03821115620004655762000465620003d5565b5060051b60200190565b600082601f8301126200048157600080fd5b81516001600160401b038111156200049d576200049d620003d5565b6020620004b3601f8301601f1916820162000416565b8281528582848701011115620004c857600080fd5b60005b83811015620004e8578581018301518282018401528201620004cb565b83811115620004fa5760008385840101525b5095945050505050565b600082601f8301126200051657600080fd5b815160206200052f620005298362000449565b62000416565b82815260059290921b840181019181810190868411156200054f57600080fd5b8286015b84811015620005935780516001600160401b03811115620005745760008081fd5b620005848986838b01016200046f565b84525091830191830162000553565b509695505050505050565b60008060408385031215620005b257600080fd5b82516001600160401b0380821115620005ca57600080fd5b818501915085601f830112620005df57600080fd5b8151620005f0620005298262000449565b8082825260208201915060208360051b8601019250888311156200061357600080fd5b602085015b83811015620006b3578051858111156200063157600080fd5b8601603f81018b136200064357600080fd5b6200064d620003eb565b808c6080840111156200065f57600080fd5b602083015b60808401811015620006a1578051898111156200068057600080fd5b620006918f6020838801016200046f565b8452506020928301920162000664565b50855250506020928301920162000618565b5060208801519096509350505080821115620006ce57600080fd5b50620006dd8582860162000504565b9150509250929050565b634e487b7160e01b600052603260045260246000fd5b634e487b7160e01b600052601160045260246000fd5b60006000198214156200072a576200072a620006fd565b5060010190565b60008219821115620007475762000747620006fd565b500190565b600082821015620007615762000761620006fd565b500390565b600181815b80851115620007a75781600019048211156200078b576200078b620006fd565b808516156200079957918102915b93841c93908002906200076b565b509250929050565b600082620007c0575060016200085f565b81620007cf575060006200085f565b8160018114620007e85760028114620007f35762000813565b60019150506200085f565b60ff841115620008075762000807620006fd565b50506001821b6200085f565b5060208310610133831016604e8410600b841016171562000838575081810a6200085f565b62000844838362000766565b80600019048211156200085b576200085b620006fd565b0290505b92915050565b6000620008738383620007af565b9392505050565b6000816000190483118215151615620008975762000897620006fd565b500290565b600181811c90821680620008b157607f821691505b60208210811415620008d357634e487b7160e01b600052602260045260246000fd5b50919050565b61194280620008e96000396000f3fe6080604052600436106100fe5760003560e01c80638c08a4dc11610095578063ae315fe411610064578063ae315fe4146102da578063b60d428814610123578063c1cfb99a146102ef578063d28178d714610302578063f972c1c41461031757600080fd5b80638c08a4dc146102495780639f6680a814610269578063a3ec138d14610289578063a8311aa8146102b857600080fd5b80633477ee2e116100d15780633477ee2e146101b657806340dec728146101e6578063685a9dd8146101fb57806370651a181461021b57600080fd5b806304cee9b31461010357806306a49fce146101255780631bd95155146101505780632e4176cf1461017e575b600080fd5b34801561010f57600080fd5b5061012361011e36600461122e565b610337565b005b34801561013157600080fd5b5061013a610456565b6040516101479190611294565b60405180910390f35b34801561015c57600080fd5b5061017061016b36600461140f565b6105ed565b604051908152602001610147565b34801561018a57600080fd5b5060005461019e906001600160a01b031681565b6040516001600160a01b039091168152602001610147565b3480156101c257600080fd5b506101d66101d136600461122e565b610691565b604051610147949392919061144c565b3480156101f257600080fd5b50600254610170565b34801561020757600080fd5b5061012361021636600461149d565b6107e1565b34801561022757600080fd5b5061023b61023636600461122e565b61098e565b6040516101479291906114c1565b34801561025557600080fd5b5061012361026436600461122e565b610a4a565b34801561027557600080fd5b506101236102843660046114e3565b610bc3565b34801561029557600080fd5b506102a96102a436600461149d565b610d25565b604051610147939291906115fa565b3480156102c457600080fd5b506102cd610dd3565b6040516101479190611624565b3480156102e657600080fd5b50610170610ec5565b3480156102fb57600080fd5b5047610170565b34801561030e57600080fd5b50610170610f42565b34801561032357600080fd5b5061012361033236600461168c565b610fba565b336000908152600160205260409020600281015460ff166103965760405162461bcd60e51b8152602060048201526014602482015273486173206e6f20726967687420746f20766f746560601b60448201526064015b60405180910390fd5b6003810154610100900460ff16156103f05760405162461bcd60e51b815260206004820152601760248201527f616c726561647920766f74656420666f72207061727479000000000000000000604482015260640161038d565b60016004838154811061040557610405611702565b90600052602060002090600202016001016000828254610425919061172e565b909155506001905060038201815b602091828204019190066101000a81548160ff0219169083151502179055505050565b60606003805480602002602001604051908101604052809291908181526020016000905b828210156105e457838290600052602060002090600402016040518060800160405290816000820180546104ad90611746565b80601f01602080910402602001604051908101604052809291908181526020018280546104d990611746565b80156105265780601f106104fb57610100808354040283529160200191610526565b820191906000526020600020905b81548152906001019060200180831161050957829003601f168201915b5050505050815260200160018201805461053f90611746565b80601f016020809104026020016040519081016040528092919081815260200182805461056b90611746565b80156105b85780601f1061058d576101008083540402835291602001916105b8565b820191906000526020600020905b81548152906001019060200180831161059b57829003601f168201915b50505050508152602001600282015481526020016003820154815250508152602001906001019061047a565b50505050905090565b60008082815b815181101561068857600081835161060b9190611781565b9050600083838151811061062157610621611702565b01602001516001600160f81b03198116915060f81c6000610643603083611781565b9050610650600185611781565b61065b90600a61187e565b610665908261188a565b61066f908861172e565b9650505050508080610680906118a9565b9150506105f3565b50909392505050565b600381815481106106a157600080fd5b90600052602060002090600402016000915090508060000180546106c490611746565b80601f01602080910402602001604051908101604052809291908181526020018280546106f090611746565b801561073d5780601f106107125761010080835404028352916020019161073d565b820191906000526020600020905b81548152906001019060200180831161072057829003601f168201915b50505050509080600101805461075290611746565b80601f016020809104026020016040519081016040528092919081815260200182805461077e90611746565b80156107cb5780601f106107a0576101008083540402835291602001916107cb565b820191906000526020600020905b8154815290600101906020018083116107ae57829003601f168201915b5050505050908060020154908060030154905084565b6000546001600160a01b031633146108515760405162461bcd60e51b815260206004820152602d60248201527f4f6e6c792063686169726d616e2063616e20676976652064656e6f756e63652060448201526c726967687420746f20766f746560981b606482015260840161038d565b6001600160a01b03811660009081526001602052604090206003015460ff16158061089d57506001600160a01b038116600090815260016020526040902060030154610100900460ff16155b6108e35760405162461bcd60e51b8152602060048201526017602482015276151a19481d9bdd195c88185b1c9958591e481d9bdd1959604a1b604482015260640161038d565b6001600160a01b03811660009081526001602052604090206002015460ff1661094e5760405162461bcd60e51b815260206004820181905260248201527f566f74657220646f65736e2774206861766520726967687420746f20766f7465604482015260640161038d565b6001600160a01b038116600090815260016020819052604082206002908101805460ff19169055805491929091610986908490611781565b909155505050565b6004818154811061099e57600080fd5b90600052602060002090600202016000915090508060000180546109c190611746565b80601f01602080910402602001604051908101604052809291908181526020018280546109ed90611746565b8015610a3a5780601f10610a0f57610100808354040283529160200191610a3a565b820191906000526020600020905b815481529060010190602001808311610a1d57829003601f168201915b5050505050908060010154905082565b336000908152600160205260409020600281015460ff16610aa45760405162461bcd60e51b8152602060048201526014602482015273486173206e6f20726967687420746f20766f746560601b604482015260640161038d565b600381015460ff1615610af95760405162461bcd60e51b815260206004820152601b60248201527f616c726561647920766f74656420666f722063616e6469646174650000000000604482015260640161038d565b60038281548110610b0c57610b0c611702565b906000526020600020906004020160020154816001015414610b7b5760405162461bcd60e51b815260206004820152602260248201527f63616e6e6f7420766f74652063616e64696461746520696e2074686973206172604482015261656160f01b606482015260840161038d565b600160038381548110610b9057610b90611702565b90600052602060002090600402016003016000828254610bb0919061172e565b9091555060019050600382016000610433565b6000546001600160a01b03163314610bed5760405162461bcd60e51b815260040161038d906118c4565b60005b8151811015610d215760036040518060800160405280848481518110610c1857610c18611702565b6020026020010151600060038110610c3257610c32611702565b60200201518152602001848481518110610c4e57610c4e611702565b6020026020010151600160038110610c6857610c68611702565b60200201518152602001610cab858581518110610c8757610c87611702565b6020026020010151600260038110610ca157610ca1611702565b60200201516105ed565b815260006020918201819052835460018101855593815281902082518051939460040290910192610cdf9284920190611195565b506020828101518051610cf89260018501920190611195565b506040820151600282015560609091015160039091015580610d19816118a9565b915050610bf0565b5050565b600160205260009081526040902080548190610d4090611746565b80601f0160208091040260200160405190810160405280929190818152602001828054610d6c90611746565b8015610db95780601f10610d8e57610100808354040283529160200191610db9565b820191906000526020600020905b815481529060010190602001808311610d9c57829003601f168201915b50505050600183015460029093015491929160ff16905083565b60606004805480602002602001604051908101604052809291908181526020016000905b828210156105e45783829060005260206000209060020201604051806040016040529081600082018054610e2a90611746565b80601f0160208091040260200160405190810160405280929190818152602001828054610e5690611746565b8015610ea35780601f10610e7857610100808354040283529160200191610ea3565b820191906000526020600020905b815481529060010190602001808311610e8657829003601f168201915b5050505050815260200160018201548152505081526020019060010190610df7565b600080805b600454811015610f3d578160048281548110610ee857610ee8611702565b9060005260206000209060020201600101541115610f2b5760048181548110610f1357610f13611702565b90600052602060002090600202016001015491508092505b80610f35816118a9565b915050610eca565b505090565b600080805b600354811015610f3d578160038281548110610f6557610f65611702565b9060005260206000209060040201600301541115610fa85760038181548110610f9057610f90611702565b90600052602060002090600402016003015491508092505b80610fb2816118a9565b915050610f47565b6000546001600160a01b03163314610fe45760405162461bcd60e51b815260040161038d906118c4565b6001600160a01b03831660009081526001602052604090206003015460ff16158061103057506001600160a01b038316600090815260016020526040902060030154610100900460ff16155b6110765760405162461bcd60e51b8152602060048201526017602482015276151a19481d9bdd195c88185b1c9958591e481d9bdd1959604a1b604482015260640161038d565b6001600160a01b03831660009081526001602052604090206002015460ff16156110db5760405162461bcd60e51b8152602060048201526016602482015275566f7465722063616e20616c726561647920766f746560501b604482015260640161038d565b6001600160a01b038316600090815260016020818152604090922060028101805460ff1916909217909155835161111492850190611195565b5061111e816105ed565b6001600160a01b038416600081815260016020819052604080832091820194909455600301805461ffff1916905591519091906509184e72a0009082818181858883f19350505050158015611177573d6000803e3d6000fd5b5060016002600082825461118b919061172e565b9091555050505050565b8280546111a190611746565b90600052602060002090601f0160209004810192826111c35760008555611209565b82601f106111dc57805160ff1916838001178555611209565b82800160010185558215611209579182015b828111156112095782518255916020019190600101906111ee565b50611215929150611219565b5090565b5b80821115611215576000815560010161121a565b60006020828403121561124057600080fd5b5035919050565b6000815180845260005b8181101561126d57602081850181015186830182015201611251565b8181111561127f576000602083870101525b50601f01601f19169290920160200192915050565b60006020808301818452808551808352604092508286019150828160051b87010184880160005b8381101561132157603f198984030185528151608081518186526112e182870182611247565b915050888201518582038a8701526112f98282611247565b838a0151878b01526060938401519390960192909252505093860193908601906001016112bb565b509098975050505050505050565b634e487b7160e01b600052604160045260246000fd5b6040516060810167ffffffffffffffff811182821017156113685761136861132f565b60405290565b604051601f8201601f1916810167ffffffffffffffff811182821017156113975761139761132f565b604052919050565b600082601f8301126113b057600080fd5b813567ffffffffffffffff8111156113ca576113ca61132f565b6113dd601f8201601f191660200161136e565b8181528460208386010111156113f257600080fd5b816020850160208301376000918101602001919091529392505050565b60006020828403121561142157600080fd5b813567ffffffffffffffff81111561143857600080fd5b6114448482850161139f565b949350505050565b60808152600061145f6080830187611247565b82810360208401526114718187611247565b604084019590955250506060015292915050565b6001600160a01b038116811461149a57600080fd5b50565b6000602082840312156114af57600080fd5b81356114ba81611485565b9392505050565b6040815260006114d46040830185611247565b90508260208301529392505050565b600060208083850312156114f657600080fd5b67ffffffffffffffff808435111561150d57600080fd5b8335840185601f82011261152057600080fd5b8035828111156115325761153261132f565b8060051b61154185820161136e565b918252828101850191858101908984111561155b57600080fd5b86850192505b838310156115ed57858335111561157757600080fd5b823585018a603f82011261158a57600080fd5b611592611345565b80608083018d8111156115a457600080fd5b8a84015b818110156115da578a813511156115be57600080fd5b6115cd8f8d833588010161139f565b8452928b01928b016115a8565b5050845250509186019190860190611561565b9998505050505050505050565b60608152600061160d6060830186611247565b602083019490945250901515604090910152919050565b60006020808301818452808551808352604092508286019150828160051b87010184880160005b8381101561132157888303603f190185528151805187855261166f88860182611247565b91890151948901949094529487019492509086019060010161164b565b6000806000606084860312156116a157600080fd5b83356116ac81611485565b9250602084013567ffffffffffffffff808211156116c957600080fd5b6116d58783880161139f565b935060408601359150808211156116eb57600080fd5b506116f88682870161139f565b9150509250925092565b634e487b7160e01b600052603260045260246000fd5b634e487b7160e01b600052601160045260246000fd5b6000821982111561174157611741611718565b500190565b600181811c9082168061175a57607f821691505b6020821081141561177b57634e487b7160e01b600052602260045260246000fd5b50919050565b60008282101561179357611793611718565b500390565b600181815b808511156117d35781600019048211156117b9576117b9611718565b808516156117c657918102915b93841c939080029061179d565b509250929050565b6000826117ea57506001611878565b816117f757506000611878565b816001811461180d576002811461181757611833565b6001915050611878565b60ff84111561182857611828611718565b50506001821b611878565b5060208310610133831016604e8410600b8410161715611856575081810a611878565b6118608383611798565b806000190482111561187457611874611718565b0290505b92915050565b60006114ba83836117db565b60008160001904831182151516156118a4576118a4611718565b500290565b60006000198214156118bd576118bd611718565b5060010190565b60208082526028908201527f4f6e6c792063686169726d616e2063616e20676976652074686520726967687460408201526720746f20766f746560c01b60608201526080019056fea2646970667358221220067fe27abed5ae878d5a36cdfc9e7cb9c34a3e101691a140bee5b8f6da0d445164736f6c634300080c0033",
  "bytecodeSha1": "ed69bf5f4fff9efcad2706fe68da78dfeb080731",
  "compiler": {
    "evm_version": "istanbul",
    "optimizer": {
      "enabled": true,
      "runs": 200
    },
    "version": "0.8.12+commit.f00d7308"
  },
  "contractName": "Voting",
  "language": "Solidity",
  "natspec": {
    "kind": "dev",
    "methods": {},
    "version": 1
  },
  "opcodes": "PUSH1 0x80 PUSH1 0x40 MSTORE PUSH1 0x4 CALLDATASIZE LT PUSH2 0xFE JUMPI PUSH1 0x0 CALLDATALOAD PUSH1 0xE0 SHR DUP1 PUSH4 0x8C08A4DC GT PUSH2 0x95 JUMPI DUP1 PUSH4 0xAE315FE4 GT PUSH2 0x64 JUMPI DUP1 PUSH4 0xAE315FE4 EQ PUSH2 0x2DA JUMPI DUP1 PUSH4 0xB60D4288 EQ PUSH2 0x123 JUMPI DUP1 PUSH4 0xC1CFB99A EQ PUSH2 0x2EF JUMPI DUP1 PUSH4 0xD28178D7 EQ PUSH2 0x302 JUMPI DUP1 PUSH4 0xF972C1C4 EQ PUSH2 0x317 JUMPI PUSH1 0x0 DUP1 REVERT JUMPDEST DUP1 PUSH4 0x8C08A4DC EQ PUSH2 0x249 JUMPI DUP1 PUSH4 0x9F6680A8 EQ PUSH2 0x269 JUMPI DUP1 PUSH4 0xA3EC138D EQ PUSH2 0x289 JUMPI DUP1 PUSH4 0xA8311AA8 EQ PUSH2 0x2B8 JUMPI PUSH1 0x0 DUP1 REVERT JUMPDEST DUP1 PUSH4 0x3477EE2E GT PUSH2 0xD1 JUMPI DUP1 PUSH4 0x3477EE2E EQ PUSH2 0x1B6 JUMPI DUP1 PUSH4 0x40DEC728 EQ PUSH2 0x1E6 JUMPI DUP1 PUSH4 0x685A9DD8 EQ PUSH2 0x1FB JUMPI DUP1 PUSH4 0x70651A18 EQ PUSH2 0x21B JUMPI PUSH1 0x0 DUP1 REVERT JUMPDEST DUP1 PUSH4 0x4CEE9B3 EQ PUSH2 0x103 JUMPI DUP1 PUSH4 0x6A49FCE EQ PUSH2 0x125 JUMPI DUP1 PUSH4 0x1BD95155 EQ PUSH2 0x150 JUMPI DUP1 PUSH4 0x2E4176CF EQ PUSH2 0x17E JUMPI JUMPDEST PUSH1 0x0 DUP1 REVERT JUMPDEST CALLVALUE DUP1 ISZERO PUSH2 0x10F JUMPI PUSH1 0x0 DUP1 REVERT JUMPDEST POP PUSH2 0x123 PUSH2 0x11E CALLDATASIZE PUSH1 0x4 PUSH2 0x122E JUMP JUMPDEST PUSH2 0x337 JUMP JUMPDEST STOP JUMPDEST CALLVALUE DUP1 ISZERO PUSH2 0x131 JUMPI PUSH1 0x0 DUP1 REVERT JUMPDEST POP PUSH2 0x13A PUSH2 0x456 JUMP JUMPDEST PUSH1 0x40 MLOAD PUSH2 0x147 SWAP2 SWAP1 PUSH2 0x1294 JUMP JUMPDEST PUSH1 0x40 MLOAD DUP1 SWAP2 SUB SWAP1 RETURN JUMPDEST CALLVALUE DUP1 ISZERO PUSH2 0x15C JUMPI PUSH1 0x0 DUP1 REVERT JUMPDEST POP PUSH2 0x170 PUSH2 0x16B CALLDATASIZE PUSH1 0x4 PUSH2 0x140F JUMP JUMPDEST PUSH2 0x5ED JUMP JUMPDEST PUSH1 0x40 MLOAD SWAP1 DUP2 MSTORE PUSH1 0x20 ADD PUSH2 0x147 JUMP JUMPDEST CALLVALUE DUP1 ISZERO PUSH2 0x18A JUMPI PUSH1 0x0 DUP1 REVERT JUMPDEST POP PUSH1 0x0 SLOAD PUSH2 0x19E SWAP1 PUSH1 0x1 PUSH1 0x1 PUSH1 0xA0 SHL SUB AND DUP2 JUMP JUMPDEST PUSH1 0x40 MLOAD PUSH1 0x1 PUSH1 0x1 PUSH1 0xA0 SHL SUB SWAP1 SWAP2 AND DUP2 MSTORE PUSH1 0x20 ADD PUSH2 0x147 JUMP JUMPDEST CALLVALUE DUP1 ISZERO PUSH2 0x1C2 JUMPI PUSH1 0x0 DUP1 REVERT JUMPDEST POP PUSH2 0x1D6 PUSH2 0x1D1 CALLDATASIZE PUSH1 0x4 PUSH2 0x122E JUMP JUMPDEST PUSH2 0x691 JUMP JUMPDEST PUSH1 0x40 MLOAD PUSH2 0x147 SWAP5 SWAP4 SWAP3 SWAP2 SWAP1 PUSH2 0x144C JUMP JUMPDEST CALLVALUE DUP1 ISZERO PUSH2 0x1F2 JUMPI PUSH1 0x0 DUP1 REVERT JUMPDEST POP PUSH1 0x2 SLOAD PUSH2 0x170 JUMP JUMPDEST CALLVALUE DUP1 ISZERO PUSH2 0x207 JUMPI PUSH1 0x0 DUP1 REVERT JUMPDEST POP PUSH2 0x123 PUSH2 0x216 CALLDATASIZE PUSH1 0x4 PUSH2 0x149D JUMP JUMPDEST PUSH2 0x7E1 JUMP JUMPDEST CALLVALUE DUP1 ISZERO PUSH2 0x227 JUMPI PUSH1 0x0 DUP1 REVERT JUMPDEST POP PUSH2 0x23B PUSH2 0x236 CALLDATASIZE PUSH1 0x4 PUSH2 0x122E JUMP JUMPDEST PUSH2 0x98E JUMP JUMPDEST PUSH1 0x40 MLOAD PUSH2 0x147 SWAP3 SWAP2 SWAP1 PUSH2 0x14C1 JUMP JUMPDEST CALLVALUE DUP1 ISZERO PUSH2 0x255 JUMPI PUSH1 0x0 DUP1 REVERT JUMPDEST POP PUSH2 0x123 PUSH2 0x264 CALLDATASIZE PUSH1 0x4 PUSH2 0x122E JUMP JUMPDEST PUSH2 0xA4A JUMP JUMPDEST CALLVALUE DUP1 ISZERO PUSH2 0x275 JUMPI PUSH1 0x0 DUP1 REVERT JUMPDEST POP PUSH2 0x123 PUSH2 0x284 CALLDATASIZE PUSH1 0x4 PUSH2 0x14E3 JUMP JUMPDEST PUSH2 0xBC3 JUMP JUMPDEST CALLVALUE DUP1 ISZERO PUSH2 0x295 JUMPI PUSH1 0x0 DUP1 REVERT JUMPDEST POP PUSH2 0x2A9 PUSH2 0x2A4 CALLDATASIZE PUSH1 0x4 PUSH2 0x149D JUMP JUMPDEST PUSH2 0xD25 JUMP JUMPDEST PUSH1 0x40 MLOAD PUSH2 0x147 SWAP4 SWAP3 SWAP2 SWAP1 PUSH2 0x15FA JUMP JUMPDEST CALLVALUE DUP1 ISZERO PUSH2 0x2C4 JUMPI PUSH1 0x0 DUP1 REVERT JUMPDEST POP PUSH2 0x2CD PUSH2 0xDD3 JUMP JUMPDEST PUSH1 0x40 MLOAD PUSH2 0x147 SWAP2 SWAP1 PUSH2 0x1624 JUMP JUMPDEST CALLVALUE DUP1 ISZERO PUSH2 0x2E6 JUMPI PUSH1 0x0 DUP1 REVERT JUMPDEST POP PUSH2 0x170 PUSH2 0xEC5 JUMP JUMPDEST CALLVALUE DUP1 ISZERO PUSH2 0x2FB JUMPI PUSH1 0x0 DUP1 REVERT JUMPDEST POP SELFBALANCE PUSH2 0x170 JUMP JUMPDEST CALLVALUE DUP1 ISZERO PUSH2 0x30E JUMPI PUSH1 0x0 DUP1 REVERT JUMPDEST POP PUSH2 0x170 PUSH2 0xF42 JUMP JUMPDEST CALLVALUE DUP1 ISZERO PUSH2 0x323 JUMPI PUSH1 0x0 DUP1 REVERT JUMPDEST POP PUSH2 0x123 PUSH2 0x332 CALLDATASIZE PUSH1 0x4 PUSH2 0x168C JUMP JUMPDEST PUSH2 0xFBA JUMP JUMPDEST CALLER PUSH1 0x0 SWAP1 DUP2 MSTORE PUSH1 0x1 PUSH1 0x20 MSTORE PUSH1 0x40 SWAP1 KECCAK256 PUSH1 0x2 DUP2 ADD SLOAD PUSH1 0xFF AND PUSH2 0x396 JUMPI PUSH1 0x40 MLOAD PUSH3 0x461BCD PUSH1 0xE5 SHL DUP2 MSTORE PUSH1 0x20 PUSH1 0x4 DUP3 ADD MSTORE PUSH1 0x14 PUSH1 0x24 DUP3 ADD MSTORE PUSH20 0x486173206E6F20726967687420746F20766F7465 PUSH1 0x60 SHL PUSH1 0x44 DUP3 ADD MSTORE PUSH1 0x64 ADD JUMPDEST PUSH1 0x40 MLOAD DUP1 SWAP2 SUB SWAP1 REVERT JUMPDEST PUSH1 0x3 DUP2 ADD SLOAD PUSH2 0x100 SWAP1 DIV PUSH1 0xFF AND ISZERO PUSH2 0x3F0 JUMPI PUSH1 0x40 MLOAD PUSH3 0x461BCD PUSH1 0xE5 SHL DUP2 MSTORE PUSH1 0x20 PUSH1 0x4 DUP3 ADD MSTORE PUSH1 0x17 PUSH1 0x24 DUP3 ADD MSTORE PUSH32 0x616C726561647920766F74656420666F72207061727479000000000000000000 PUSH1 0x44 DUP3 ADD MSTORE PUSH1 0x64 ADD PUSH2 0x38D JUMP JUMPDEST PUSH1 0x1 PUSH1 0x4 DUP4 DUP2 SLOAD DUP2 LT PUSH2 0x405 JUMPI PUSH2 0x405 PUSH2 0x1702 JUMP JUMPDEST SWAP1 PUSH1 0x0 MSTORE PUSH1 0x20 PUSH1 0x0 KECCAK256 SWAP1 PUSH1 0x2 MUL ADD PUSH1 0x1 ADD PUSH1 0x0 DUP3 DUP3 SLOAD PUSH2 0x425 SWAP2 SWAP1 PUSH2 0x172E JUMP JUMPDEST SWAP1 SWAP2 SSTORE POP PUSH1 0x1 SWAP1 POP PUSH1 0x3 DUP3 ADD DUP2 JUMPDEST PUSH1 0x20 SWAP2 DUP3 DUP3 DIV ADD SWAP2 SWAP1 MOD PUSH2 0x100 EXP DUP2 SLOAD DUP2 PUSH1 0xFF MUL NOT AND SWAP1 DUP4 ISZERO ISZERO MUL OR SWAP1 SSTORE POP POP POP JUMP JUMPDEST PUSH1 0x60 PUSH1 0x3 DUP1 SLOAD DUP1 PUSH1 0x20 MUL PUSH1 0x20 ADD PUSH1 0x40 MLOAD SWAP1 DUP2 ADD PUSH1 0x40 MSTORE DUP1 SWAP3 SWAP2 SWAP1 DUP2 DUP2 MSTORE PUSH1 0x20 ADD PUSH1 0x0 SWAP1 JUMPDEST DUP3 DUP3 LT ISZERO PUSH2 0x5E4 JUMPI DUP4 DUP3 SWAP1 PUSH1 0x0 MSTORE PUSH1 0x20 PUSH1 0x0 KECCAK256 SWAP1 PUSH1 0x4 MUL ADD PUSH1 0x40 MLOAD DUP1 PUSH1 0x80 ADD PUSH1 0x40 MSTORE SWAP1 DUP2 PUSH1 0x0 DUP3 ADD DUP1 SLOAD PUSH2 0x4AD SWAP1 PUSH2 0x1746 JUMP JUMPDEST DUP1 PUSH1 0x1F ADD PUSH1 0x20 DUP1 SWAP2 DIV MUL PUSH1 0x20 ADD PUSH1 0x40 MLOAD SWAP1 DUP2 ADD PUSH1 0x40 MSTORE DUP1 SWAP3 SWAP2 SWAP1 DUP2 DUP2 MSTORE PUSH1 0x20 ADD DUP3 DUP1 SLOAD PUSH2 0x4D9 SWAP1 PUSH2 0x1746 JUMP JUMPDEST DUP1 ISZERO PUSH2 0x526 JUMPI DUP1 PUSH1 0x1F LT PUSH2 0x4FB JUMPI PUSH2 0x100 DUP1 DUP4 SLOAD DIV MUL DUP4 MSTORE SWAP2 PUSH1 0x20 ADD SWAP2 PUSH2 0x526 JUMP JUMPDEST DUP3 ADD SWAP2 SWAP1 PUSH1 0x0 MSTORE PUSH1 0x20 PUSH1 0x0 KECCAK256 SWAP1 JUMPDEST DUP2 SLOAD DUP2 MSTORE SWAP1 PUSH1 0x1 ADD SWAP1 PUSH1 0x20 ADD DUP1 DUP4 GT PUSH2 0x509 JUMPI DUP3 SWAP1 SUB PUSH1 0x1F AND DUP3 ADD SWAP2 JUMPDEST POP POP POP POP POP DUP2 MSTORE PUSH1 0x20 ADD PUSH1 0x1 DUP3 ADD DUP1 SLOAD PUSH2 0x53F SWAP1 PUSH2 0x1746 JUMP JUMPDEST DUP1 PUSH1 0x1F ADD PUSH1 0x20 DUP1 SWAP2 DIV MUL PUSH1 0x20 ADD PUSH1 0x40 MLOAD SWAP1 DUP2 ADD PUSH1 0x40 MSTORE DUP1 SWAP3 SWAP2 SWAP1 DUP2 DUP2 MSTORE PUSH1 0x20 ADD DUP3 DUP1 SLOAD PUSH2 0x56B SWAP1 PUSH2 0x1746 JUMP JUMPDEST DUP1 ISZERO PUSH2 0x5B8 JUMPI DUP1 PUSH1 0x1F LT PUSH2 0x58D JUMPI PUSH2 0x100 DUP1 DUP4 SLOAD DIV MUL DUP4 MSTORE SWAP2 PUSH1 0x20 ADD SWAP2 PUSH2 0x5B8 JUMP JUMPDEST DUP3 ADD SWAP2 SWAP1 PUSH1 0x0 MSTORE PUSH1 0x20 PUSH1 0x0 KECCAK256 SWAP1 JUMPDEST DUP2 SLOAD DUP2 MSTORE SWAP1 PUSH1 0x1 ADD SWAP1 PUSH1 0x20 ADD DUP1 DUP4 GT PUSH2 0x59B JUMPI DUP3 SWAP1 SUB PUSH1 0x1F AND DUP3 ADD SWAP2 JUMPDEST POP POP POP POP POP DUP2 MSTORE PUSH1 0x20 ADD PUSH1 0x2 DUP3 ADD SLOAD DUP2 MSTORE PUSH1 0x20 ADD PUSH1 0x3 DUP3 ADD SLOAD DUP2 MSTORE POP POP DUP2 MSTORE PUSH1 0x20 ADD SWAP1 PUSH1 0x1 ADD SWAP1 PUSH2 0x47A JUMP JUMPDEST POP POP POP POP SWAP1 POP SWAP1 JUMP JUMPDEST PUSH1 0x0 DUP1 DUP3 DUP2 JUMPDEST DUP2 MLOAD DUP2 LT ISZERO PUSH2 0x688 JUMPI PUSH1 0x0 DUP2 DUP4 MLOAD PUSH2 0x60B SWAP2 SWAP1 PUSH2 0x1781 JUMP JUMPDEST SWAP1 POP PUSH1 0x0 DUP4 DUP4 DUP2 MLOAD DUP2 LT PUSH2 0x621 JUMPI PUSH2 0x621 PUSH2 0x1702 JUMP JUMPDEST ADD PUSH1 0x20 ADD MLOAD PUSH1 0x1 PUSH1 0x1 PUSH1 0xF8 SHL SUB NOT DUP2 AND SWAP2 POP PUSH1 0xF8 SHR PUSH1 0x0 PUSH2 0x643 PUSH1 0x30 DUP4 PUSH2 0x1781 JUMP JUMPDEST SWAP1 POP PUSH2 0x650 PUSH1 0x1 DUP6 PUSH2 0x1781 JUMP JUMPDEST PUSH2 0x65B SWAP1 PUSH1 0xA PUSH2 0x187E JUMP JUMPDEST PUSH2 0x665 SWAP1 DUP3 PUSH2 0x188A JUMP JUMPDEST PUSH2 0x66F SWAP1 DUP9 PUSH2 0x172E JUMP JUMPDEST SWAP7 POP POP POP POP POP DUP1 DUP1 PUSH2 0x680 SWAP1 PUSH2 0x18A9 JUMP JUMPDEST SWAP2 POP POP PUSH2 0x5F3 JUMP JUMPDEST POP SWAP1 SWAP4 SWAP3 POP POP POP JUMP JUMPDEST PUSH1 0x3 DUP2 DUP2 SLOAD DUP2 LT PUSH2 0x6A1 JUMPI PUSH1 0x0 DUP1 REVERT JUMPDEST SWAP1 PUSH1 0x0 MSTORE PUSH1 0x20 PUSH1 0x0 KECCAK256 SWAP1 PUSH1 0x4 MUL ADD PUSH1 0x0 SWAP2 POP SWAP1 POP DUP1 PUSH1 0x0 ADD DUP1 SLOAD PUSH2 0x6C4 SWAP1 PUSH2 0x1746 JUMP JUMPDEST DUP1 PUSH1 0x1F ADD PUSH1 0x20 DUP1 SWAP2 DIV MUL PUSH1 0x20 ADD PUSH1 0x40 MLOAD SWAP1 DUP2 ADD PUSH1 0x40 MSTORE DUP1 SWAP3 SWAP2 SWAP1 DUP2 DUP2 MSTORE PUSH1 0x20 ADD DUP3 DUP1 SLOAD PUSH2 0x6F0 SWAP1 PUSH2 0x1746 JUMP JUMPDEST DUP1 ISZERO PUSH2 0x73D JUMPI DUP1 PUSH1 0x1F LT PUSH2 0x712 JUMPI PUSH2 0x100 DUP1 DUP4 SLOAD DIV MUL DUP4 MSTORE SWAP2 PUSH1 0x20 ADD SWAP2 PUSH2 0x73D JUMP JUMPDEST DUP3 ADD SWAP2 SWAP1 PUSH1 0x0 MSTORE PUSH1 0x20 PUSH1 0x0 KECCAK256 SWAP1 JUMPDEST DUP2 SLOAD DUP2 MSTORE SWAP1 PUSH1 0x1 ADD SWAP1 PUSH1 0x20 ADD DUP1 DUP4 GT PUSH2 0x720 JUMPI DUP3 SWAP1 SUB PUSH1 0x1F AND DUP3 ADD SWAP2 JUMPDEST POP POP POP POP POP SWAP1 DUP1 PUSH1 0x1 ADD DUP1 SLOAD PUSH2 0x752 SWAP1 PUSH2 0x1746 JUMP JUMPDEST DUP1 PUSH1 0x1F ADD PUSH1 0x20 DUP1 SWAP2 DIV MUL PUSH1 0x20 ADD PUSH1 0x40 MLOAD SWAP1 DUP2 ADD PUSH1 0x40 MSTORE DUP1 SWAP3 SWAP2 SWAP1 DUP2 DUP2 MSTORE PUSH1 0x20 ADD DUP3 DUP1 SLOAD PUSH2 0x77E SWAP1 PUSH2 0x1746 JUMP JUMPDEST DUP1 ISZERO PUSH2 0x7CB JUMPI DUP1 PUSH1 0x1F LT PUSH2 0x7A0 JUMPI PUSH2 0x100 DUP1 DUP4 SLOAD DIV MUL DUP4 MSTORE SWAP2 PUSH1 0x20 ADD SWAP2 PUSH2 0x7CB JUMP JUMPDEST DUP3 ADD SWAP2 SWAP1 PUSH1 0x0 MSTORE PUSH1 0x20 PUSH1 0x0 KECCAK256 SWAP1 JUMPDEST DUP2 SLOAD DUP2 MSTORE SWAP1 PUSH1 0x1 ADD SWAP1 PUSH1 0x20 ADD DUP1 DUP4 GT PUSH2 0x7AE JUMPI DUP3 SWAP1 SUB PUSH1 0x1F AND DUP3 ADD SWAP2 JUMPDEST POP POP POP POP POP SWAP1 DUP1 PUSH1 0x2 ADD SLOAD SWAP1 DUP1 PUSH1 0x3 ADD SLOAD SWAP1 POP DUP5 JUMP JUMPDEST PUSH1 0x0 SLOAD PUSH1 0x1 PUSH1 0x1 PUSH1 0xA0 SHL SUB AND CALLER EQ PUSH2 0x851 JUMPI PUSH1 0x40 MLOAD PUSH3 0x461BCD PUSH1 0xE5 SHL DUP2 MSTORE PUSH1 0x20 PUSH1 0x4 DUP3 ADD MSTORE PUSH1 0x2D PUSH1 0x24 DUP3 ADD MSTORE PUSH32 0x4F6E6C792063686169726D616E2063616E20676976652064656E6F756E636520 PUSH1 0x44 DUP3 ADD MSTORE PUSH13 0x726967687420746F20766F7465 PUSH1 0x98 SHL PUSH1 0x64 DUP3 ADD MSTORE PUSH1 0x84 ADD PUSH2 0x38D JUMP JUMPDEST PUSH1 0x1 PUSH1 0x1 PUSH1 0xA0 SHL SUB DUP2 AND PUSH1 0x0 SWAP1 DUP2 MSTORE PUSH1 0x1 PUSH1 0x20 MSTORE PUSH1 0x40 SWAP1 KECCAK256 PUSH1 0x3 ADD SLOAD PUSH1 0xFF AND ISZERO DUP1 PUSH2 0x89D JUMPI POP PUSH1 0x1 PUSH1 0x1 PUSH1 0xA0 SHL SUB DUP2 AND PUSH1 0x0 SWAP1 DUP2 MSTORE PUSH1 0x1 PUSH1 0x20 MSTORE PUSH1 0x40 SWAP1 KECCAK256 PUSH1 0x3 ADD SLOAD PUSH2 0x100 SWAP1 DIV PUSH1 0xFF AND ISZERO JUMPDEST PUSH2 0x8E3 JUMPI PUSH1 0x40 MLOAD PUSH3 0x461BCD PUSH1 0xE5 SHL DUP2 MSTORE PUSH1 0x20 PUSH1 0x4 DUP3 ADD MSTORE PUSH1 0x17 PUSH1 0x24 DUP3 ADD MSTORE PUSH23 0x151A19481D9BDD195C88185B1C9958591E481D9BDD1959 PUSH1 0x4A SHL PUSH1 0x44 DUP3 ADD MSTORE PUSH1 0x64 ADD PUSH2 0x38D JUMP JUMPDEST PUSH1 0x1 PUSH1 0x1 PUSH1 0xA0 SHL SUB DUP2 AND PUSH1 0x0 SWAP1 DUP2 MSTORE PUSH1 0x1 PUSH1 0x20 MSTORE PUSH1 0x40 SWAP1 KECCAK256 PUSH1 0x2 ADD SLOAD PUSH1 0xFF AND PUSH2 0x94E JUMPI PUSH1 0x40 MLOAD PUSH3 0x461BCD PUSH1 0xE5 SHL DUP2 MSTORE PUSH1 0x20 PUSH1 0x4 DUP3 ADD DUP2 SWAP1 MSTORE PUSH1 0x24 DUP3 ADD MSTORE PUSH32 0x566F74657220646F65736E2774206861766520726967687420746F20766F7465 PUSH1 0x44 DUP3 ADD MSTORE PUSH1 0x64 ADD PUSH2 0x38D JUMP JUMPDEST PUSH1 0x1 PUSH1 0x1 PUSH1 0xA0 SHL SUB DUP2 AND PUSH1 0x0 SWAP1 DUP2 MSTORE PUSH1 0x1 PUSH1 0x20 DUP2 SWAP1 MSTORE PUSH1 0x40 DUP3 KECCAK256 PUSH1 0x2 SWAP1 DUP2 ADD DUP1 SLOAD PUSH1 0xFF NOT AND SWAP1 SSTORE DUP1 SLOAD SWAP2 SWAP3 SWAP1 SWAP2 PUSH2 0x986 SWAP1 DUP5 SWAP1 PUSH2 0x1781 JUMP JUMPDEST SWAP1 SWAP2 SSTORE POP POP POP JUMP JUMPDEST PUSH1 0x4 DUP2 DUP2 SLOAD DUP2 LT PUSH2 0x99E JUMPI PUSH1 0x0 DUP1 REVERT JUMPDEST SWAP1 PUSH1 0x0 MSTORE PUSH1 0x20 PUSH1 0x0 KECCAK256 SWAP1 PUSH1 0x2 MUL ADD PUSH1 0x0 SWAP2 POP SWAP1 POP DUP1 PUSH1 0x0 ADD DUP1 SLOAD PUSH2 0x9C1 SWAP1 PUSH2 0x1746 JUMP JUMPDEST DUP1 PUSH1 0x1F ADD PUSH1 0x20 DUP1 SWAP2 DIV MUL PUSH1 0x20 ADD PUSH1 0x40 MLOAD SWAP1 DUP2 ADD PUSH1 0x40 MSTORE DUP1 SWAP3 SWAP2 SWAP1 DUP2 DUP2 MSTORE PUSH1 0x20 ADD DUP3 DUP1 SLOAD PUSH2 0x9ED SWAP1 PUSH2 0x1746 JUMP JUMPDEST DUP1 ISZERO PUSH2 0xA3A JUMPI DUP1 PUSH1 0x1F LT PUSH2 0xA0F JUMPI PUSH2 0x100 DUP1 DUP4 SLOAD DIV MUL DUP4 MSTORE SWAP2 PUSH1 0x20 ADD SWAP2 PUSH2 0xA3A JUMP JUMPDEST DUP3 ADD SWAP2 SWAP1 PUSH1 0x0 MSTORE PUSH1 0x20 PUSH1 0x0 KECCAK256 SWAP1 JUMPDEST DUP2 SLOAD DUP2 MSTORE SWAP1 PUSH1 0x1 ADD SWAP1 PUSH1 0x20 ADD DUP1 DUP4 GT PUSH2 0xA1D JUMPI DUP3 SWAP1 SUB PUSH1 0x1F AND DUP3 ADD SWAP2 JUMPDEST POP POP POP POP POP SWAP1 DUP1 PUSH1 0x1 ADD SLOAD SWAP1 POP DUP3 JUMP JUMPDEST CALLER PUSH1 0x0 SWAP1 DUP2 MSTORE PUSH1 0x1 PUSH1 0x20 MSTORE PUSH1 0x40 SWAP1 KECCAK256 PUSH1 0x2 DUP2 ADD SLOAD PUSH1 0xFF AND PUSH2 0xAA4 JUMPI PUSH1 0x40 MLOAD PUSH3 0x461BCD PUSH1 0xE5 SHL DUP2 MSTORE PUSH1 0x20 PUSH1 0x4 DUP3 ADD MSTORE PUSH1 0x14 PUSH1 0x24 DUP3 ADD MSTORE PUSH20 0x486173206E6F20726967687420746F20766F7465 PUSH1 0x60 SHL PUSH1 0x44 DUP3 ADD MSTORE PUSH1 0x64 ADD PUSH2 0x38D JUMP JUMPDEST PUSH1 0x3 DUP2 ADD SLOAD PUSH1 0xFF AND ISZERO PUSH2 0xAF9 JUMPI PUSH1 0x40 MLOAD PUSH3 0x461BCD PUSH1 0xE5 SHL DUP2 MSTORE PUSH1 0x20 PUSH1 0x4 DUP3 ADD MSTORE PUSH1 0x1B PUSH1 0x24 DUP3 ADD MSTORE PUSH32 0x616C726561647920766F74656420666F722063616E6469646174650000000000 PUSH1 0x44 DUP3 ADD MSTORE PUSH1 0x64 ADD PUSH2 0x38D JUMP JUMPDEST PUSH1 0x3 DUP3 DUP2 SLOAD DUP2 LT PUSH2 0xB0C JUMPI PUSH2 0xB0C PUSH2 0x1702 JUMP JUMPDEST SWAP1 PUSH1 0x0 MSTORE PUSH1 0x20 PUSH1 0x0 KECCAK256 SWAP1 PUSH1 0x4 MUL ADD PUSH1 0x2 ADD SLOAD DUP2 PUSH1 0x1 ADD SLOAD EQ PUSH2 0xB7B JUMPI PUSH1 0x40 MLOAD PUSH3 0x461BCD PUSH1 0xE5 SHL DUP2 MSTORE PUSH1 0x20 PUSH1 0x4 DUP3 ADD MSTORE PUSH1 0x22 PUSH1 0x24 DUP3 ADD MSTORE PUSH32 0x63616E6E6F7420766F74652063616E64696461746520696E2074686973206172 PUSH1 0x44 DUP3 ADD MSTORE PUSH2 0x6561 PUSH1 0xF0 SHL PUSH1 0x64 DUP3 ADD MSTORE PUSH1 0x84 ADD PUSH2 0x38D JUMP JUMPDEST PUSH1 0x1 PUSH1 0x3 DUP4 DUP2 SLOAD DUP2 LT PUSH2 0xB90 JUMPI PUSH2 0xB90 PUSH2 0x1702 JUMP JUMPDEST SWAP1 PUSH1 0x0 MSTORE PUSH1 0x20 PUSH1 0x0 KECCAK256 SWAP1 PUSH1 0x4 MUL ADD PUSH1 0x3 ADD PUSH1 0x0 DUP3 DUP3 SLOAD PUSH2 0xBB0 SWAP2 SWAP1 PUSH2 0x172E JUMP JUMPDEST SWAP1 SWAP2 SSTORE POP PUSH1 0x1 SWAP1 POP PUSH1 0x3 DUP3 ADD PUSH1 0x0 PUSH2 0x433 JUMP JUMPDEST PUSH1 0x0 SLOAD PUSH1 0x1 PUSH1 0x1 PUSH1 0xA0 SHL SUB AND CALLER EQ PUSH2 0xBED JUMPI PUSH1 0x40 MLOAD PUSH3 0x461BCD PUSH1 0xE5 SHL DUP2 MSTORE PUSH1 0x4 ADD PUSH2 0x38D SWAP1 PUSH2 0x18C4 JUMP JUMPDEST PUSH1 0x0 JUMPDEST DUP2 MLOAD DUP2 LT ISZERO PUSH2 0xD21 JUMPI PUSH1 0x3 PUSH1 0x40 MLOAD DUP1 PUSH1 0x80 ADD PUSH1 0x40 MSTORE DUP1 DUP5 DUP5 DUP2 MLOAD DUP2 LT PUSH2 0xC18 JUMPI PUSH2 0xC18 PUSH2 0x1702 JUMP JUMPDEST PUSH1 0x20 MUL PUSH1 0x20 ADD ADD MLOAD PUSH1 0x0 PUSH1 0x3 DUP2 LT PUSH2 0xC32 JUMPI PUSH2 0xC32 PUSH2 0x1702 JUMP JUMPDEST PUSH1 0x20 MUL ADD MLOAD DUP2 MSTORE PUSH1 0x20 ADD DUP5 DUP5 DUP2 MLOAD DUP2 LT PUSH2 0xC4E JUMPI PUSH2 0xC4E PUSH2 0x1702 JUMP JUMPDEST PUSH1 0x20 MUL PUSH1 0x20 ADD ADD MLOAD PUSH1 0x1 PUSH1 0x3 DUP2 LT PUSH2 0xC68 JUMPI PUSH2 0xC68 PUSH2 0x1702 JUMP JUMPDEST PUSH1 0x20 MUL ADD MLOAD DUP2 MSTORE PUSH1 0x20 ADD PUSH2 0xCAB DUP6 DUP6 DUP2 MLOAD DUP2 LT PUSH2 0xC87 JUMPI PUSH2 0xC87 PUSH2 0x1702 JUMP JUMPDEST PUSH1 0x20 MUL PUSH1 0x20 ADD ADD MLOAD PUSH1 0x2 PUSH1 0x3 DUP2 LT PUSH2 0xCA1 JUMPI PUSH2 0xCA1 PUSH2 0x1702 JUMP JUMPDEST PUSH1 0x20 MUL ADD MLOAD PUSH2 0x5ED JUMP JUMPDEST DUP2 MSTORE PUSH1 0x0 PUSH1 0x20 SWAP2 DUP3 ADD DUP2 SWAP1 MSTORE DUP4 SLOAD PUSH1 0x1 DUP2 ADD DUP6 SSTORE SWAP4 DUP2 MSTORE DUP2 SWAP1 KECCAK256 DUP3 MLOAD DUP1 MLOAD SWAP4 SWAP5 PUSH1 0x4 MUL SWAP1 SWAP2 ADD SWAP3 PUSH2 0xCDF SWAP3 DUP5 SWAP3 ADD SWAP1 PUSH2 0x1195 JUMP JUMPDEST POP PUSH1 0x20 DUP3 DUP2 ADD MLOAD DUP1 MLOAD PUSH2 0xCF8 SWAP3 PUSH1 0x1 DUP6 ADD SWAP3 ADD SWAP1 PUSH2 0x1195 JUMP JUMPDEST POP PUSH1 0x40 DUP3 ADD MLOAD PUSH1 0x2 DUP3 ADD SSTORE PUSH1 0x60 SWAP1 SWAP2 ADD MLOAD PUSH1 0x3 SWAP1 SWAP2 ADD SSTORE DUP1 PUSH2 0xD19 DUP2 PUSH2 0x18A9 JUMP JUMPDEST SWAP2 POP POP PUSH2 0xBF0 JUMP JUMPDEST POP POP JUMP JUMPDEST PUSH1 0x1 PUSH1 0x20 MSTORE PUSH1 0x0 SWAP1 DUP2 MSTORE PUSH1 0x40 SWAP1 KECCAK256 DUP1 SLOAD DUP2 SWAP1 PUSH2 0xD40 SWAP1 PUSH2 0x1746 JUMP JUMPDEST DUP1 PUSH1 0x1F ADD PUSH1 0x20 DUP1 SWAP2 DIV MUL PUSH1 0x20 ADD PUSH1 0x40 MLOAD SWAP1 DUP2 ADD PUSH1 0x40 MSTORE DUP1 SWAP3 SWAP2 SWAP1 DUP2 DUP2 MSTORE PUSH1 0x20 ADD DUP3 DUP1 SLOAD PUSH2 0xD6C SWAP1 PUSH2 0x1746 JUMP JUMPDEST DUP1 ISZERO PUSH2 0xDB9 JUMPI DUP1 PUSH1 0x1F LT PUSH2 0xD8E JUMPI PUSH2 0x100 DUP1 DUP4 SLOAD DIV MUL DUP4 MSTORE SWAP2 PUSH1 0x20 ADD SWAP2 PUSH2 0xDB9 JUMP JUMPDEST DUP3 ADD SWAP2 SWAP1 PUSH1 0x0 MSTORE PUSH1 0x20 PUSH1 0x0 KECCAK256 SWAP1 JUMPDEST DUP2 SLOAD DUP2 MSTORE SWAP1 PUSH1 0x1 ADD SWAP1 PUSH1 0x20 ADD DUP1 DUP4 GT PUSH2 0xD9C JUMPI DUP3 SWAP1 SUB PUSH1 0x1F AND DUP3 ADD SWAP2 JUMPDEST POP POP POP POP PUSH1 0x1 DUP4 ADD SLOAD PUSH1 0x2 SWAP1 SWAP4 ADD SLOAD SWAP2 SWAP3 SWAP2 PUSH1 0xFF AND SWAP1 POP DUP4 JUMP JUMPDEST PUSH1 0x60 PUSH1 0x4 DUP1 SLOAD DUP1 PUSH1 0x20 MUL PUSH1 0x20 ADD PUSH1 0x40 MLOAD SWAP1 DUP2 ADD PUSH1 0x40 MSTORE DUP1 SWAP3 SWAP2 SWAP1 DUP2 DUP2 MSTORE PUSH1 0x20 ADD PUSH1 0x0 SWAP1 JUMPDEST DUP3 DUP3 LT ISZERO PUSH2 0x5E4 JUMPI DUP4 DUP3 SWAP1 PUSH1 0x0 MSTORE PUSH1 0x20 PUSH1 0x0 KECCAK256 SWAP1 PUSH1 0x2 MUL ADD PUSH1 0x40 MLOAD DUP1 PUSH1 0x40 ADD PUSH1 0x40 MSTORE SWAP1 DUP2 PUSH1 0x0 DUP3 ADD DUP1 SLOAD PUSH2 0xE2A SWAP1 PUSH2 0x1746 JUMP JUMPDEST DUP1 PUSH1 0x1F ADD PUSH1 0x20 DUP1 SWAP2 DIV MUL PUSH1 0x20 ADD PUSH1 0x40 MLOAD SWAP1 DUP2 ADD PUSH1 0x40 MSTORE DUP1 SWAP3 SWAP2 SWAP1 DUP2 DUP2 MSTORE PUSH1 0x20 ADD DUP3 DUP1 SLOAD PUSH2 0xE56 SWAP1 PUSH2 0x1746 JUMP JUMPDEST DUP1 ISZERO PUSH2 0xEA3 JUMPI DUP1 PUSH1 0x1F LT PUSH2 0xE78 JUMPI PUSH2 0x100 DUP1 DUP4 SLOAD DIV MUL DUP4 MSTORE SWAP2 PUSH1 0x20 ADD SWAP2 PUSH2 0xEA3 JUMP JUMPDEST DUP3 ADD SWAP2 SWAP1 PUSH1 0x0 MSTORE PUSH1 0x20 PUSH1 0x0 KECCAK256 SWAP1 JUMPDEST DUP2 SLOAD DUP2 MSTORE SWAP1 PUSH1 0x1 ADD SWAP1 PUSH1 0x20 ADD DUP1 DUP4 GT PUSH2 0xE86 JUMPI DUP3 SWAP1 SUB PUSH1 0x1F AND DUP3 ADD SWAP2 JUMPDEST POP POP POP POP POP DUP2 MSTORE PUSH1 0x20 ADD PUSH1 0x1 DUP3 ADD SLOAD DUP2 MSTORE POP POP DUP2 MSTORE PUSH1 0x20 ADD SWAP1 PUSH1 0x1 ADD SWAP1 PUSH2 0xDF7 JUMP JUMPDEST PUSH1 0x0 DUP1 DUP1 JUMPDEST PUSH1 0x4 SLOAD DUP2 LT ISZERO PUSH2 0xF3D JUMPI DUP2 PUSH1 0x4 DUP3 DUP2 SLOAD DUP2 LT PUSH2 0xEE8 JUMPI PUSH2 0xEE8 PUSH2 0x1702 JUMP JUMPDEST SWAP1 PUSH1 0x0 MSTORE PUSH1 0x20 PUSH1 0x0 KECCAK256 SWAP1 PUSH1 0x2 MUL ADD PUSH1 0x1 ADD SLOAD GT ISZERO PUSH2 0xF2B JUMPI PUSH1 0x4 DUP2 DUP2 SLOAD DUP2 LT PUSH2 0xF13 JUMPI PUSH2 0xF13 PUSH2 0x1702 JUMP JUMPDEST SWAP1 PUSH1 0x0 MSTORE PUSH1 0x20 PUSH1 0x0 KECCAK256 SWAP1 PUSH1 0x2 MUL ADD PUSH1 0x1 ADD SLOAD SWAP2 POP DUP1 SWAP3 POP JUMPDEST DUP1 PUSH2 0xF35 DUP2 PUSH2 0x18A9 JUMP JUMPDEST SWAP2 POP POP PUSH2 0xECA JUMP JUMPDEST POP POP SWAP1 JUMP JUMPDEST PUSH1 0x0 DUP1 DUP1 JUMPDEST PUSH1 0x3 SLOAD DUP2 LT ISZERO PUSH2 0xF3D JUMPI DUP2 PUSH1 0x3 DUP3 DUP2 SLOAD DUP2 LT PUSH2 0xF65 JUMPI PUSH2 0xF65 PUSH2 0x1702 JUMP JUMPDEST SWAP1 PUSH1 0x0 MSTORE PUSH1 0x20 PUSH1 0x0 KECCAK256 SWAP1 PUSH1 0x4 MUL ADD PUSH1 0x3 ADD SLOAD GT ISZERO PUSH2 0xFA8 JUMPI PUSH1 0x3 DUP2 DUP2 SLOAD DUP2 LT PUSH2 0xF90 JUMPI PUSH2 0xF90 PUSH2 0x1702 JUMP JUMPDEST SWAP1 PUSH1 0x0 MSTORE PUSH1 0x20 PUSH1 0x0 KECCAK256 SWAP1 PUSH1 0x4 MUL ADD PUSH1 0x3 ADD SLOAD SWAP2 POP DUP1 SWAP3 POP JUMPDEST DUP1 PUSH2 0xFB2 DUP2 PUSH2 0x18A9 JUMP JUMPDEST SWAP2 POP POP PUSH2 0xF47 JUMP JUMPDEST PUSH1 0x0 SLOAD PUSH1 0x1 PUSH1 0x1 PUSH1 0xA0 SHL SUB AND CALLER EQ PUSH2 0xFE4 JUMPI PUSH1 0x40 MLOAD PUSH3 0x461BCD PUSH1 0xE5 SHL DUP2 MSTORE PUSH1 0x4 ADD PUSH2 0x38D SWAP1 PUSH2 0x18C4 JUMP JUMPDEST PUSH1 0x1 PUSH1 0x1 PUSH1 0xA0 SHL SUB DUP4 AND PUSH1 0x0 SWAP1 DUP2 MSTORE PUSH1 0x1 PUSH1 0x20 MSTORE PUSH1 0x40 SWAP1 KECCAK256 PUSH1 0x3 ADD SLOAD PUSH1 0xFF AND ISZERO DUP1 PUSH2 0x1030 JUMPI POP PUSH1 0x1 PUSH1 0x1 PUSH1 0xA0 SHL SUB DUP4 AND PUSH1 0x0 SWAP1 DUP2 MSTORE PUSH1 0x1 PUSH1 0x20 MSTORE PUSH1 0x40 SWAP1 KECCAK256 PUSH1 0x3 ADD SLOAD PUSH2 0x100 SWAP1 DIV PUSH1 0xFF AND ISZERO JUMPDEST PUSH2 0x1076 JUMPI PUSH1 0x40 MLOAD PUSH3 0x461BCD PUSH1 0xE5 SHL DUP2 MSTORE PUSH1 0x20 PUSH1 0x4 DUP3 ADD MSTORE PUSH1 0x17 PUSH1 0x24 DUP3 ADD MSTORE PUSH23 0x151A19481D9BDD195C88185B1C9958591E481D9BDD1959 PUSH1 0x4A SHL PUSH1 0x44 DUP3 ADD MSTORE PUSH1 0x64 ADD PUSH2 0x38D JUMP JUMPDEST PUSH1 0x1 PUSH1 0x1 PUSH1 0xA0 SHL SUB DUP4 AND PUSH1 0x0 SWAP1 DUP2 MSTORE PUSH1 0x1 PUSH1 0x20 MSTORE PUSH1 0x40 SWAP1 KECCAK256 PUSH1 0x2 ADD SLOAD PUSH1 0xFF AND ISZERO PUSH2 0x10DB JUMPI PUSH1 0x40 MLOAD PUSH3 0x461BCD PUSH1 0xE5 SHL DUP2 MSTORE PUSH1 0x20 PUSH1 0x4 DUP3 ADD MSTORE PUSH1 0x16 PUSH1 0x24 DUP3 ADD MSTORE PUSH22 0x566F7465722063616E20616C726561647920766F7465 PUSH1 0x50 SHL PUSH1 0x44 DUP3 ADD MSTORE PUSH1 0x64 ADD PUSH2 0x38D JUMP JUMPDEST PUSH1 0x1 PUSH1 0x1 PUSH1 0xA0 SHL SUB DUP4 AND PUSH1 0x0 SWAP1 DUP2 MSTORE PUSH1 0x1 PUSH1 0x20 DUP2 DUP2 MSTORE PUSH1 0x40 SWAP1 SWAP3 KECCAK256 PUSH1 0x2 DUP2 ADD DUP1 SLOAD PUSH1 0xFF NOT AND SWAP1 SWAP3 OR SWAP1 SWAP2 SSTORE DUP4 MLOAD PUSH2 0x1114 SWAP3 DUP6 ADD SWAP1 PUSH2 0x1195 JUMP JUMPDEST POP PUSH2 0x111E DUP2 PUSH2 0x5ED JUMP JUMPDEST PUSH1 0x1 PUSH1 0x1 PUSH1 0xA0 SHL SUB DUP5 AND PUSH1 0x0 DUP2 DUP2 MSTORE PUSH1 0x1 PUSH1 0x20 DUP2 SWAP1 MSTORE PUSH1 0x40 DUP1 DUP4 KECCAK256 SWAP2 DUP3 ADD SWAP5 SWAP1 SWAP5 SSTORE PUSH1 0x3 ADD DUP1 SLOAD PUSH2 0xFFFF NOT AND SWAP1 SSTORE SWAP2 MLOAD SWAP1 SWAP2 SWAP1 PUSH6 0x9184E72A000 SWAP1 DUP3 DUP2 DUP2 DUP2 DUP6 DUP9 DUP4 CALL SWAP4 POP POP POP POP ISZERO DUP1 ISZERO PUSH2 0x1177 JUMPI RETURNDATASIZE PUSH1 0x0 DUP1 RETURNDATACOPY RETURNDATASIZE PUSH1 0x0 REVERT JUMPDEST POP PUSH1 0x1 PUSH1 0x2 PUSH1 0x0 DUP3 DUP3 SLOAD PUSH2 0x118B SWAP2 SWAP1 PUSH2 0x172E JUMP JUMPDEST SWAP1 SWAP2 SSTORE POP POP POP POP POP JUMP JUMPDEST DUP3 DUP1 SLOAD PUSH2 0x11A1 SWAP1 PUSH2 0x1746 JUMP JUMPDEST SWAP1 PUSH1 0x0 MSTORE PUSH1 0x20 PUSH1 0x0 KECCAK256 SWAP1 PUSH1 0x1F ADD PUSH1 0x20 SWAP1 DIV DUP2 ADD SWAP3 DUP3 PUSH2 0x11C3 JUMPI PUSH1 0x0 DUP6 SSTORE PUSH2 0x1209 JUMP JUMPDEST DUP3 PUSH1 0x1F LT PUSH2 0x11DC JUMPI DUP1 MLOAD PUSH1 0xFF NOT AND DUP4 DUP1 ADD OR DUP6 SSTORE PUSH2 0x1209 JUMP JUMPDEST DUP3 DUP1 ADD PUSH1 0x1 ADD DUP6 SSTORE DUP3 ISZERO PUSH2 0x1209 JUMPI SWAP2 DUP3 ADD JUMPDEST DUP3 DUP2 GT ISZERO PUSH2 0x1209 JUMPI DUP3 MLOAD DUP3 SSTORE SWAP2 PUSH1 0x20 ADD SWAP2 SWAP1 PUSH1 0x1 ADD SWAP1 PUSH2 0x11EE JUMP JUMPDEST POP PUSH2 0x1215 SWAP3 SWAP2 POP PUSH2 0x1219 JUMP JUMPDEST POP SWAP1 JUMP JUMPDEST JUMPDEST DUP1 DUP3 GT ISZERO PUSH2 0x1215 JUMPI PUSH1 0x0 DUP2 SSTORE PUSH1 0x1 ADD PUSH2 0x121A JUMP JUMPDEST PUSH1 0x0 PUSH1 0x20 DUP3 DUP5 SUB SLT ISZERO PUSH2 0x1240 JUMPI PUSH1 0x0 DUP1 REVERT JUMPDEST POP CALLDATALOAD SWAP2 SWAP1 POP JUMP JUMPDEST PUSH1 0x0 DUP2 MLOAD DUP1 DUP5 MSTORE PUSH1 0x0 JUMPDEST DUP2 DUP2 LT ISZERO PUSH2 0x126D JUMPI PUSH1 0x20 DUP2 DUP6 ADD DUP2 ADD MLOAD DUP7 DUP4 ADD DUP3 ADD MSTORE ADD PUSH2 0x1251 JUMP JUMPDEST DUP2 DUP2 GT ISZERO PUSH2 0x127F JUMPI PUSH1 0x0 PUSH1 0x20 DUP4 DUP8 ADD ADD MSTORE JUMPDEST POP PUSH1 0x1F ADD PUSH1 0x1F NOT AND SWAP3 SWAP1 SWAP3 ADD PUSH1 0x20 ADD SWAP3 SWAP2 POP POP JUMP JUMPDEST PUSH1 0x0 PUSH1 0x20 DUP1 DUP4 ADD DUP2 DUP5 MSTORE DUP1 DUP6 MLOAD DUP1 DUP4 MSTORE PUSH1 0x40 SWAP3 POP DUP3 DUP7 ADD SWAP2 POP DUP3 DUP2 PUSH1 0x5 SHL DUP8 ADD ADD DUP5 DUP9 ADD PUSH1 0x0 JUMPDEST DUP4 DUP2 LT ISZERO PUSH2 0x1321 JUMPI PUSH1 0x3F NOT DUP10 DUP5 SUB ADD DUP6 MSTORE DUP2 MLOAD PUSH1 0x80 DUP2 MLOAD DUP2 DUP7 MSTORE PUSH2 0x12E1 DUP3 DUP8 ADD DUP3 PUSH2 0x1247 JUMP JUMPDEST SWAP2 POP POP DUP9 DUP3 ADD MLOAD DUP6 DUP3 SUB DUP11 DUP8 ADD MSTORE PUSH2 0x12F9 DUP3 DUP3 PUSH2 0x1247 JUMP JUMPDEST DUP4 DUP11 ADD MLOAD DUP8 DUP12 ADD MSTORE PUSH1 0x60 SWAP4 DUP5 ADD MLOAD SWAP4 SWAP1 SWAP7 ADD SWAP3 SWAP1 SWAP3 MSTORE POP POP SWAP4 DUP7 ADD SWAP4 SWAP1 DUP7 ADD SWAP1 PUSH1 0x1 ADD PUSH2 0x12BB JUMP JUMPDEST POP SWAP1 SWAP9 SWAP8 POP POP POP POP POP POP POP POP JUMP JUMPDEST PUSH4 0x4E487B71 PUSH1 0xE0 SHL PUSH1 0x0 MSTORE PUSH1 0x41 PUSH1 0x4 MSTORE PUSH1 0x24 PUSH1 0x0 REVERT JUMPDEST PUSH1 0x40 MLOAD PUSH1 0x60 DUP2 ADD PUSH8 0xFFFFFFFFFFFFFFFF DUP2 GT DUP3 DUP3 LT OR ISZERO PUSH2 0x1368 JUMPI PUSH2 0x1368 PUSH2 0x132F JUMP JUMPDEST PUSH1 0x40 MSTORE SWAP1 JUMP JUMPDEST PUSH1 0x40 MLOAD PUSH1 0x1F DUP3 ADD PUSH1 0x1F NOT AND DUP2 ADD PUSH8 0xFFFFFFFFFFFFFFFF DUP2 GT DUP3 DUP3 LT OR ISZERO PUSH2 0x1397 JUMPI PUSH2 0x1397 PUSH2 0x132F JUMP JUMPDEST PUSH1 0x40 MSTORE SWAP2 SWAP1 POP JUMP JUMPDEST PUSH1 0x0 DUP3 PUSH1 0x1F DUP4 ADD SLT PUSH2 0x13B0 JUMPI PUSH1 0x0 DUP1 REVERT JUMPDEST DUP2 CALLDATALOAD PUSH8 0xFFFFFFFFFFFFFFFF DUP2 GT ISZERO PUSH2 0x13CA JUMPI PUSH2 0x13CA PUSH2 0x132F JUMP JUMPDEST PUSH2 0x13DD PUSH1 0x1F DUP3 ADD PUSH1 0x1F NOT AND PUSH1 0x20 ADD PUSH2 0x136E JUMP JUMPDEST DUP2 DUP2 MSTORE DUP5 PUSH1 0x20 DUP4 DUP7 ADD ADD GT ISZERO PUSH2 0x13F2 JUMPI PUSH1 0x0 DUP1 REVERT JUMPDEST DUP2 PUSH1 0x20 DUP6 ADD PUSH1 0x20 DUP4 ADD CALLDATACOPY PUSH1 0x0 SWAP2 DUP2 ADD PUSH1 0x20 ADD SWAP2 SWAP1 SWAP2 MSTORE SWAP4 SWAP3 POP POP POP JUMP JUMPDEST PUSH1 0x0 PUSH1 0x20 DUP3 DUP5 SUB SLT ISZERO PUSH2 0x1421 JUMPI PUSH1 0x0 DUP1 REVERT JUMPDEST DUP2 CALLDATALOAD PUSH8 0xFFFFFFFFFFFFFFFF DUP2 GT ISZERO PUSH2 0x1438 JUMPI PUSH1 0x0 DUP1 REVERT JUMPDEST PUSH2 0x1444 DUP5 DUP3 DUP6 ADD PUSH2 0x139F JUMP JUMPDEST SWAP5 SWAP4 POP POP POP POP JUMP JUMPDEST PUSH1 0x80 DUP2 MSTORE PUSH1 0x0 PUSH2 0x145F PUSH1 0x80 DUP4 ADD DUP8 PUSH2 0x1247 JUMP JUMPDEST DUP3 DUP2 SUB PUSH1 0x20 DUP5 ADD MSTORE PUSH2 0x1471 DUP2 DUP8 PUSH2 0x1247 JUMP JUMPDEST PUSH1 0x40 DUP5 ADD SWAP6 SWAP1 SWAP6 MSTORE POP POP PUSH1 0x60 ADD MSTORE SWAP3 SWAP2 POP POP JUMP JUMPDEST PUSH1 0x1 PUSH1 0x1 PUSH1 0xA0 SHL SUB DUP2 AND DUP2 EQ PUSH2 0x149A JUMPI PUSH1 0x0 DUP1 REVERT JUMPDEST POP JUMP JUMPDEST PUSH1 0x0 PUSH1 0x20 DUP3 DUP5 SUB SLT ISZERO PUSH2 0x14AF JUMPI PUSH1 0x0 DUP1 REVERT JUMPDEST DUP2 CALLDATALOAD PUSH2 0x14BA DUP2 PUSH2 0x1485 JUMP JUMPDEST SWAP4 SWAP3 POP POP POP JUMP JUMPDEST PUSH1 0x40 DUP2 MSTORE PUSH1 0x0 PUSH2 0x14D4 PUSH1 0x40 DUP4 ADD DUP6 PUSH2 0x1247 JUMP JUMPDEST SWAP1 POP DUP3 PUSH1 0x20 DUP4 ADD MSTORE SWAP4 SWAP3 POP POP POP JUMP JUMPDEST PUSH1 0x0 PUSH1 0x20 DUP1 DUP4 DUP6 SUB SLT ISZERO PUSH2 0x14F6 JUMPI PUSH1 0x0 DUP1 REVERT JUMPDEST PUSH8 0xFFFFFFFFFFFFFFFF DUP1 DUP5 CALLDATALOAD GT ISZERO PUSH2 0x150D JUMPI PUSH1 0x0 DUP1 REVERT JUMPDEST DUP4 CALLDATALOAD DUP5 ADD DUP6 PUSH1 0x1F DUP3 ADD SLT PUSH2 0x1520 JUMPI PUSH1 0x0 DUP1 REVERT JUMPDEST DUP1 CALLDATALOAD DUP3 DUP2 GT ISZERO PUSH2 0x1532 JUMPI PUSH2 0x1532 PUSH2 0x132F JUMP JUMPDEST DUP1 PUSH1 0x5 SHL PUSH2 0x1541 DUP6 DUP3 ADD PUSH2 0x136E JUMP JUMPDEST SWAP2 DUP3 MSTORE DUP3 DUP2 ADD DUP6 ADD SWAP2 DUP6 DUP2 ADD SWAP1 DUP10 DUP5 GT ISZERO PUSH2 0x155B JUMPI PUSH1 0x0 DUP1 REVERT JUMPDEST DUP7 DUP6 ADD SWAP3 POP JUMPDEST DUP4 DUP4 LT ISZERO PUSH2 0x15ED JUMPI DUP6 DUP4 CALLDATALOAD GT ISZERO PUSH2 0x1577 JUMPI PUSH1 0x0 DUP1 REVERT JUMPDEST DUP3 CALLDATALOAD DUP6 ADD DUP11 PUSH1 0x3F DUP3 ADD SLT PUSH2 0x158A JUMPI PUSH1 0x0 DUP1 REVERT JUMPDEST PUSH2 0x1592 PUSH2 0x1345 JUMP JUMPDEST DUP1 PUSH1 0x80 DUP4 ADD DUP14 DUP2 GT ISZERO PUSH2 0x15A4 JUMPI PUSH1 0x0 DUP1 REVERT JUMPDEST DUP11 DUP5 ADD JUMPDEST DUP2 DUP2 LT ISZERO PUSH2 0x15DA JUMPI DUP11 DUP2 CALLDATALOAD GT ISZERO PUSH2 0x15BE JUMPI PUSH1 0x0 DUP1 REVERT JUMPDEST PUSH2 0x15CD DUP16 DUP14 DUP4 CALLDATALOAD DUP9 ADD ADD PUSH2 0x139F JUMP JUMPDEST DUP5 MSTORE SWAP3 DUP12 ADD SWAP3 DUP12 ADD PUSH2 0x15A8 JUMP JUMPDEST POP POP DUP5 MSTORE POP POP SWAP2 DUP7 ADD SWAP2 SWAP1 DUP7 ADD SWAP1 PUSH2 0x1561 JUMP JUMPDEST SWAP10 SWAP9 POP POP POP POP POP POP POP POP POP JUMP JUMPDEST PUSH1 0x60 DUP2 MSTORE PUSH1 0x0 PUSH2 0x160D PUSH1 0x60 DUP4 ADD DUP7 PUSH2 0x1247 JUMP JUMPDEST PUSH1 0x20 DUP4 ADD SWAP5 SWAP1 SWAP5 MSTORE POP SWAP1 ISZERO ISZERO PUSH1 0x40 SWAP1 SWAP2 ADD MSTORE SWAP2 SWAP1 POP JUMP JUMPDEST PUSH1 0x0 PUSH1 0x20 DUP1 DUP4 ADD DUP2 DUP5 MSTORE DUP1 DUP6 MLOAD DUP1 DUP4 MSTORE PUSH1 0x40 SWAP3 POP DUP3 DUP7 ADD SWAP2 POP DUP3 DUP2 PUSH1 0x5 SHL DUP8 ADD ADD DUP5 DUP9 ADD PUSH1 0x0 JUMPDEST DUP4 DUP2 LT ISZERO PUSH2 0x1321 JUMPI DUP9 DUP4 SUB PUSH1 0x3F NOT ADD DUP6 MSTORE DUP2 MLOAD DUP1 MLOAD DUP8 DUP6 MSTORE PUSH2 0x166F DUP9 DUP7 ADD DUP3 PUSH2 0x1247 JUMP JUMPDEST SWAP2 DUP10 ADD MLOAD SWAP5 DUP10 ADD SWAP5 SWAP1 SWAP5 MSTORE SWAP5 DUP8 ADD SWAP5 SWAP3 POP SWAP1 DUP7 ADD SWAP1 PUSH1 0x1 ADD PUSH2 0x164B JUMP JUMPDEST PUSH1 0x0 DUP1 PUSH1 0x0 PUSH1 0x60 DUP5 DUP7 SUB SLT ISZERO PUSH2 0x16A1 JUMPI PUSH1 0x0 DUP1 REVERT JUMPDEST DUP4 CALLDATALOAD PUSH2 0x16AC DUP2 PUSH2 0x1485 JUMP JUMPDEST SWAP3 POP PUSH1 0x20 DUP5 ADD CALLDATALOAD PUSH8 0xFFFFFFFFFFFFFFFF DUP1 DUP3 GT ISZERO PUSH2 0x16C9 JUMPI PUSH1 0x0 DUP1 REVERT JUMPDEST PUSH2 0x16D5 DUP8 DUP4 DUP9 ADD PUSH2 0x139F JUMP JUMPDEST SWAP4 POP PUSH1 0x40 DUP7 ADD CALLDATALOAD SWAP2 POP DUP1 DUP3 GT ISZERO PUSH2 0x16EB JUMPI PUSH1 0x0 DUP1 REVERT JUMPDEST POP PUSH2 0x16F8 DUP7 DUP3 DUP8 ADD PUSH2 0x139F JUMP JUMPDEST SWAP2 POP POP SWAP3 POP SWAP3 POP SWAP3 JUMP JUMPDEST PUSH4 0x4E487B71 PUSH1 0xE0 SHL PUSH1 0x0 MSTORE PUSH1 0x32 PUSH1 0x4 MSTORE PUSH1 0x24 PUSH1 0x0 REVERT JUMPDEST PUSH4 0x4E487B71 PUSH1 0xE0 SHL PUSH1 0x0 MSTORE PUSH1 0x11 PUSH1 0x4 MSTORE PUSH1 0x24 PUSH1 0x0 REVERT JUMPDEST PUSH1 0x0 DUP3 NOT DUP3 GT ISZERO PUSH2 0x1741 JUMPI PUSH2 0x1741 PUSH2 0x1718 JUMP JUMPDEST POP ADD SWAP1 JUMP JUMPDEST PUSH1 0x1 DUP2 DUP2 SHR SWAP1 DUP3 AND DUP1 PUSH2 0x175A JUMPI PUSH1 0x7F DUP3 AND SWAP2 POP JUMPDEST PUSH1 0x20 DUP3 LT DUP2 EQ ISZERO PUSH2 0x177B JUMPI PUSH4 0x4E487B71 PUSH1 0xE0 SHL PUSH1 0x0 MSTORE PUSH1 0x22 PUSH1 0x4 MSTORE PUSH1 0x24 PUSH1 0x0 REVERT JUMPDEST POP SWAP2 SWAP1 POP JUMP JUMPDEST PUSH1 0x0 DUP3 DUP3 LT ISZERO PUSH2 0x1793 JUMPI PUSH2 0x1793 PUSH2 0x1718 JUMP JUMPDEST POP SUB SWAP1 JUMP JUMPDEST PUSH1 0x1 DUP2 DUP2 JUMPDEST DUP1 DUP6 GT ISZERO PUSH2 0x17D3 JUMPI DUP2 PUSH1 0x0 NOT DIV DUP3 GT ISZERO PUSH2 0x17B9 JUMPI PUSH2 0x17B9 PUSH2 0x1718 JUMP JUMPDEST DUP1 DUP6 AND ISZERO PUSH2 0x17C6 JUMPI SWAP2 DUP2 MUL SWAP2 JUMPDEST SWAP4 DUP5 SHR SWAP4 SWAP1 DUP1 MUL SWAP1 PUSH2 0x179D JUMP JUMPDEST POP SWAP3 POP SWAP3 SWAP1 POP JUMP JUMPDEST PUSH1 0x0 DUP3 PUSH2 0x17EA JUMPI POP PUSH1 0x1 PUSH2 0x1878 JUMP JUMPDEST DUP2 PUSH2 0x17F7 JUMPI POP PUSH1 0x0 PUSH2 0x1878 JUMP JUMPDEST DUP2 PUSH1 0x1 DUP2 EQ PUSH2 0x180D JUMPI PUSH1 0x2 DUP2 EQ PUSH2 0x1817 JUMPI PUSH2 0x1833 JUMP JUMPDEST PUSH1 0x1 SWAP2 POP POP PUSH2 0x1878 JUMP JUMPDEST PUSH1 0xFF DUP5 GT ISZERO PUSH2 0x1828 JUMPI PUSH2 0x1828 PUSH2 0x1718 JUMP JUMPDEST POP POP PUSH1 0x1 DUP3 SHL PUSH2 0x1878 JUMP JUMPDEST POP PUSH1 0x20 DUP4 LT PUSH2 0x133 DUP4 LT AND PUSH1 0x4E DUP5 LT PUSH1 0xB DUP5 LT AND OR ISZERO PUSH2 0x1856 JUMPI POP DUP2 DUP2 EXP PUSH2 0x1878 JUMP JUMPDEST PUSH2 0x1860 DUP4 DUP4 PUSH2 0x1798 JUMP JUMPDEST DUP1 PUSH1 0x0 NOT DIV DUP3 GT ISZERO PUSH2 0x1874 JUMPI PUSH2 0x1874 PUSH2 0x1718 JUMP JUMPDEST MUL SWAP1 POP JUMPDEST SWAP3 SWAP2 POP POP JUMP JUMPDEST PUSH1 0x0 PUSH2 0x14BA DUP4 DUP4 PUSH2 0x17DB JUMP JUMPDEST PUSH1 0x0 DUP2 PUSH1 0x0 NOT DIV DUP4 GT DUP3 ISZERO ISZERO AND ISZERO PUSH2 0x18A4 JUMPI PUSH2 0x18A4 PUSH2 0x1718 JUMP JUMPDEST POP MUL SWAP1 JUMP JUMPDEST PUSH1 0x0 PUSH1 0x0 NOT DUP3 EQ ISZERO PUSH2 0x18BD JUMPI PUSH2 0x18BD PUSH2 0x1718 JUMP JUMPDEST POP PUSH1 0x1 ADD SWAP1 JUMP JUMPDEST PUSH1 0x20 DUP1 DUP3 MSTORE PUSH1 0x28 SWAP1 DUP3 ADD MSTORE PUSH32 0x4F6E6C792063686169726D616E2063616E206769766520746865207269676874 PUSH1 0x40 DUP3 ADD MSTORE PUSH8 0x20746F20766F7465 PUSH1 0xC0 SHL PUSH1 0x60 DUP3 ADD MSTORE PUSH1 0x80 ADD SWAP1 JUMP INVALID LOG2 PUSH5 0x6970667358 0x22 SLT KECCAK256 MOD PUSH32 0xE27ABED5AE878D5A36CDFC9E7CB9C34A3E101691A140BEE5B8F6DA0D44516473 PUSH16 0x6C634300080C00330000000000000000 ",
  "sha1": "1d4da284b3a81377d53caa7434a640999197ceea",
  "source": "// SPDX-License-Identifier: GPL-3.0\npragma solidity >=0.7.0 <0.9.0;\npragma abicoder v2;\n\ncontract Voting {\n    struct Voter {\n        string id;\n        uint area;\n        bool canVote;\n        bool[2] voted;\n    }\n\n    struct Party {\n        string name;\n        uint256 voteCount;\n    }\n\n    struct Candidate {\n        string name;\n        string party;\n        uint area;\n        uint256 voteCount;\n    }\n\n    address public chairperson;\n    mapping(address => Voter) public voters;\n    uint256 voter_count = 0;\n    Candidate[] public candidates;\n    Party[] public parties;\n\n    constructor(\n        string[3][] memory candidateNamesParty,\n        string[] memory partyNames\n    ) payable {\n        chairperson = msg.sender;\n        voters[chairperson].canVote = true;\n        for (uint256 i = 0; i < candidateNamesParty.length; i++) {\n            candidates.push(\n                Candidate({\n                    name: candidateNamesParty[i][0],\n                    party: candidateNamesParty[i][1],\n                    area: stringToUint(candidateNamesParty[i][2]),\n                    voteCount: 0\n                })\n            );\n        }\n        for (uint256 i = 0; i < partyNames.length; i++) {\n            parties.push(Party({name: partyNames[i], voteCount: 0}));\n        }\n        voter_count += 1;\n    }\n\n    function stringToUint(string memory numString) public pure returns(uint) {\n            uint  val=0;\n            bytes   memory stringBytes = bytes(numString);\n            for (uint  i =  0; i<stringBytes.length; i++) {\n                uint exp = stringBytes.length - i;\n                bytes1 ival = stringBytes[i];\n                uint8 uval = uint8(ival);\n            uint jval = uval - uint(0x30);\n    \n            val +=  (uint(jval) * (10**(exp-1))); \n            }\n        return val;\n        }\n    function addCandidates(string[3][] memory candidateNamesParty) external {\n        require(\n            msg.sender == chairperson,\n            \"Only chairman can give the right to vote\"\n        );\n        for (uint256 i = 0; i < candidateNamesParty.length; i++) {\n            candidates.push(\n                Candidate({\n                    name: candidateNamesParty[i][0],\n                    party: candidateNamesParty[i][1],\n                    area: stringToUint(candidateNamesParty[i][2]),\n                    voteCount: 0\n                })\n            );\n        }\n    }\n\n    function getCandidates() public view returns (Candidate[] memory) {\n        return candidates;\n    }\n\n    function getParties() public view returns (Party[] memory) {\n        return parties;\n    }\n\n    function giveRightToVote(\n        address payable voter,\n        string memory id,\n        string memory area\n    ) external {\n        require(\n            msg.sender == chairperson,\n            \"Only chairman can give the right to vote\"\n        );\n        require(\n            !voters[voter].voted[0] || !voters[voter].voted[1],\n            \"The voter already voted\"\n        );\n        require(!voters[voter].canVote, \"Voter can already vote\");\n        voters[voter].canVote = true;\n        voters[voter].id = id;\n        voters[voter].area = stringToUint(area);\n        voters[voter].voted[0] = false;\n        voters[voter].voted[1] = false;\n        voter.transfer(10000000000000);\n        voter_count += 1;\n    }\n    \n\n    function removeRightToVote(address voter) external {\n        require(\n            msg.sender == chairperson,\n            \"Only chairman can give denounce right to vote\"\n        );\n        require(\n            !voters[voter].voted[0] || !voters[voter].voted[1],\n            \"The voter already voted\"\n        );\n        require(voters[voter].canVote, \"Voter doesn't have right to vote\");\n        voters[voter].canVote = false;\n        voter_count -= 1;\n    }\n\n    function voteCandidate(uint256 candidate) external {\n        Voter storage sender = voters[msg.sender];\n        require(sender.canVote, \"Has no right to vote\");\n        require(!sender.voted[0], \"already voted for candidate\");\n        require(sender.area == candidates[candidate].area, \"cannot vote candidate in this area\");\n        candidates[candidate].voteCount += 1;\n        sender.voted[0] = true;\n    }\n\n    function voteParty(uint256 party) external {\n        Voter storage sender = voters[msg.sender];\n        require(sender.canVote, \"Has no right to vote\");\n        require(!sender.voted[1], \"already voted for party\");\n        parties[party].voteCount += 1;\n        sender.voted[1] = true;\n    }\n\n    function winningCandidate()\n        public\n        view\n        returns (uint256 winningCandidate_)\n    {\n        uint256 winningVoteCount = 0;\n        for (uint256 i = 0; i < candidates.length; i++) {\n            if (candidates[i].voteCount > winningVoteCount) {\n                winningVoteCount = candidates[i].voteCount;\n                winningCandidate_ = i;\n            }\n        }\n    }\n\n    function winningParty() public view returns (uint256 winningParty_) {\n        uint256 winningVoteCount = 0;\n        for (uint256 i = 0; i < parties.length; i++) {\n            if (parties[i].voteCount > winningVoteCount) {\n                winningVoteCount = parties[i].voteCount;\n                winningParty_ = i;\n            }\n        }\n    }\n\n    function voters_count() public view returns (uint256) {\n        return voter_count;\n    }\n\n    function fund() public payable {}\n\n    function get_balance() public view returns(uint256){\n        return address(this).balance;\n    }\n}\n",
  "sourcePath": "contracts/Voting.sol",
  "type": "contract"
}