{
  "abi": [
    {
      "inputs": [
        {
          "internalType": "string[3][]",
          "name": "candidateNamesParty",
          "type": "string[3][]"
        },
        {
          "internalType": "string[]",
          "name": "partyNames",
          "type": "string[]"
        }
      ],
      "stateMutability": "payable",
      "type": "constructor"
    },
    {
      "inputs": [
        {
          "internalType": "string[3][]",
          "name": "candidateNamesParty",
          "type": "string[3][]"
        }
      ],
      "name": "addCandidates",
      "outputs": [],
      "stateMutability": "nonpayable",
      "type": "function"
    },
    {
      "inputs": [
        {
          "internalType": "uint256",
          "name": "",
          "type": "uint256"
        }
      ],
      "name": "candidates",
      "outputs": [
        {
          "internalType": "string",
          "name": "name",
          "type": "string"
        },
        {
          "internalType": "string",
          "name": "party",
          "type": "string"
        },
        {
          "internalType": "uint256",
          "name": "area",
          "type": "uint256"
        },
        {
          "internalType": "uint256",
          "name": "voteCount",
          "type": "uint256"
        }
      ],
      "stateMutability": "view",
      "type": "function"
    },
    {
      "inputs": [],
      "name": "chairperson",
      "outputs": [
        {
          "internalType": "address",
          "name": "",
          "type": "address"
        }
      ],
      "stateMutability": "view",
      "type": "function"
    },
    {
      "inputs": [],
      "name": "fund",
      "outputs": [],
      "stateMutability": "payable",
      "type": "function"
    },
    {
      "inputs": [],
      "name": "getCandidates",
      "outputs": [
        {
          "components": [
            {
              "internalType": "string",
              "name": "name",
              "type": "string"
            },
            {
              "internalType": "string",
              "name": "party",
              "type": "string"
            },
            {
              "internalType": "uint256",
              "name": "area",
              "type": "uint256"
            },
            {
              "internalType": "uint256",
              "name": "voteCount",
              "type": "uint256"
            }
          ],
          "internalType": "struct Voting.Candidate[]",
          "name": "",
          "type": "tuple[]"
        }
      ],
      "stateMutability": "view",
      "type": "function"
    },
    {
      "inputs": [],
      "name": "getParties",
      "outputs": [
        {
          "components": [
            {
              "internalType": "string",
              "name": "name",
              "type": "string"
            },
            {
              "internalType": "uint256",
              "name": "voteCount",
              "type": "uint256"
            }
          ],
          "internalType": "struct Voting.Party[]",
          "name": "",
          "type": "tuple[]"
        }
      ],
      "stateMutability": "view",
      "type": "function"
    },
    {
      "inputs": [],
      "name": "get_balance",
      "outputs": [
        {
          "internalType": "uint256",
          "name": "",
          "type": "uint256"
        }
      ],
      "stateMutability": "view",
      "type": "function"
    },
    {
      "inputs": [
        {
          "internalType": "address payable",
          "name": "voter",
          "type": "address"
        },
        {
          "internalType": "string",
          "name": "id",
          "type": "string"
        },
        {
          "internalType": "string",
          "name": "area",
          "type": "string"
        }
      ],
      "name": "giveRightToVote",
      "outputs": [],
      "stateMutability": "nonpayable",
      "type": "function"
    },
    {
      "inputs": [
        {
          "internalType": "uint256",
          "name": "",
          "type": "uint256"
        }
      ],
      "name": "parties",
      "outputs": [
        {
          "internalType": "string",
          "name": "name",
          "type": "string"
        },
        {
          "internalType": "uint256",
          "name": "voteCount",
          "type": "uint256"
        }
      ],
      "stateMutability": "view",
      "type": "function"
    },
    {
      "inputs": [
        {
          "internalType": "address",
          "name": "voter",
          "type": "address"
        }
      ],
      "name": "removeRightToVote",
      "outputs": [],
      "stateMutability": "nonpayable",
      "type": "function"
    },
    {
      "inputs": [
        {
          "internalType": "string",
          "name": "numString",
          "type": "string"
        }
      ],
      "name": "stringToUint",
      "outputs": [
        {
          "internalType": "uint256",
          "name": "",
          "type": "uint256"
        }
      ],
      "stateMutability": "pure",
      "type": "function"
    },
    {
      "inputs": [
        {
          "internalType": "uint256",
          "name": "candidate",
          "type": "uint256"
        }
      ],
      "name": "voteCandidate",
      "outputs": [],
      "stateMutability": "nonpayable",
      "type": "function"
    },
    {
      "inputs": [
        {
          "internalType": "uint256",
          "name": "party",
          "type": "uint256"
        }
      ],
      "name": "voteParty",
      "outputs": [],
      "stateMutability": "nonpayable",
      "type": "function"
    },
    {
      "inputs": [
        {
          "internalType": "address",
          "name": "",
          "type": "address"
        }
      ],
      "name": "voters",
      "outputs": [
        {
          "internalType": "string",
          "name": "id",
          "type": "string"
        },
        {
          "internalType": "uint256",
          "name": "area",
          "type": "uint256"
        },
        {
          "internalType": "bool",
          "name": "canVote",
          "type": "bool"
        },
        {
          "internalType": "bool",
          "name": "votedForCandidate",
          "type": "bool"
        },
        {
          "internalType": "bool",
          "name": "votedForParty",
          "type": "bool"
        }
      ],
      "stateMutability": "view",
      "type": "function"
    },
    {
      "inputs": [],
      "name": "voters_count",
      "outputs": [
        {
          "internalType": "uint256",
          "name": "",
          "type": "uint256"
        }
      ],
      "stateMutability": "view",
      "type": "function"
    },
    {
      "inputs": [],
      "name": "winningCandidate",
      "outputs": [
        {
          "internalType": "uint256",
          "name": "winningCandidate_",
          "type": "uint256"
        }
      ],
      "stateMutability": "view",
      "type": "function"
    },
    {
      "inputs": [],
      "name": "winningParty",
      "outputs": [
        {
          "internalType": "uint256",
          "name": "winningParty_",
          "type": "uint256"
        }
      ],
      "stateMutability": "view",
      "type": "function"
    }
  ],
  "bytecode": "6080604052600060025560405162002234380380620022348339810160408190526200002b916200059e565b600080546001600160a01b03191633908117825581526001602081905260408220600201805460ff191690911790555b8251811015620001a85760036040518060800160405280858481518110620000875762000087620006e7565b6020026020010151600060038110620000a457620000a4620006e7565b60200201518152602001858481518110620000c357620000c3620006e7565b6020026020010151600160038110620000e057620000e0620006e7565b602002015181526020016200012b868581518110620001035762000103620006e7565b6020026020010151600260038110620001205762000120620006e7565b602002015162000260565b8152600060209182018190528354600181018555938152819020825180519394600402909101926200016192849201906200032f565b5060208281015180516200017c92600185019201906200032f565b5060408201516002820155606090910151600390910155806200019f8162000713565b9150506200005b565b5060005b81518110156200023c5760046040518060400160405280848481518110620001d857620001d8620006e7565b60209081029190910181015182526000918101829052835460018101855593825290819020825180519394600202909101926200021992849201906200032f565b506020820151816001015550508080620002339062000713565b915050620001ac565b5060016002600082825462000252919062000731565b90915550620008d992505050565b60008082815b8151811015620003265760008183516200028191906200074c565b905060008383815181106200029a576200029a620006e7565b01602001517fff000000000000000000000000000000000000000000000000000000000000008116915060f81c6000620002d66030836200074c565b9050620002e56001856200074c565b620002f290600a62000865565b620002fe90826200087a565b6200030a908862000731565b96505050505080806200031d9062000713565b91505062000266565b50909392505050565b8280546200033d906200089c565b90600052602060002090601f016020900481019282620003615760008555620003ac565b82601f106200037c57805160ff1916838001178555620003ac565b82800160010185558215620003ac579182015b82811115620003ac5782518255916020019190600101906200038f565b50620003ba929150620003be565b5090565b5b80821115620003ba5760008155600101620003bf565b634e487b7160e01b600052604160045260246000fd5b604051606081016001600160401b0381118282101715620004105762000410620003d5565b60405290565b604051601f8201601f191681016001600160401b0381118282101715620004415762000441620003d5565b604052919050565b60006001600160401b03821115620004655762000465620003d5565b5060051b60200190565b600082601f8301126200048157600080fd5b81516001600160401b038111156200049d576200049d620003d5565b6020620004b3601f8301601f1916820162000416565b8281528582848701011115620004c857600080fd5b60005b83811015620004e8578581018301518282018401528201620004cb565b83811115620004fa5760008385840101525b5095945050505050565b600082601f8301126200051657600080fd5b815160206200052f620005298362000449565b62000416565b82815260059290921b840181019181810190868411156200054f57600080fd5b8286015b84811015620005935780516001600160401b03811115620005745760008081fd5b620005848986838b01016200046f565b84525091830191830162000553565b509695505050505050565b60008060408385031215620005b257600080fd5b82516001600160401b0380821115620005ca57600080fd5b818501915085601f830112620005df57600080fd5b8151620005f0620005298262000449565b8082825260208201915060208360051b8601019250888311156200061357600080fd5b602085015b83811015620006b3578051858111156200063157600080fd5b8601603f81018b136200064357600080fd5b6200064d620003eb565b808c6080840111156200065f57600080fd5b602083015b60808401811015620006a1578051898111156200068057600080fd5b620006918f6020838801016200046f565b8452506020928301920162000664565b50855250506020928301920162000618565b5060208801519096509350505080821115620006ce57600080fd5b50620006dd8582860162000504565b9150509250929050565b634e487b7160e01b600052603260045260246000fd5b634e487b7160e01b600052601160045260246000fd5b60006000198214156200072a576200072a620006fd565b5060010190565b60008219821115620007475762000747620006fd565b500190565b600082821015620007615762000761620006fd565b500390565b600181815b80851115620007a75781600019048211156200078b576200078b620006fd565b808516156200079957918102915b93841c93908002906200076b565b509250929050565b600082620007c0575060016200085f565b81620007cf575060006200085f565b8160018114620007e85760028114620007f35762000813565b60019150506200085f565b60ff841115620008075762000807620006fd565b50506001821b6200085f565b5060208310610133831016604e8410600b841016171562000838575081810a6200085f565b62000844838362000766565b80600019048211156200085b576200085b620006fd565b0290505b92915050565b6000620008738383620007af565b9392505050565b6000816000190483118215151615620008975762000897620006fd565b500290565b600181811c90821680620008b157607f821691505b60208210811415620008d357634e487b7160e01b600052602260045260246000fd5b50919050565b61194b80620008e96000396000f3fe6080604052600436106100fe5760003560e01c80638c08a4dc11610095578063ae315fe411610064578063ae315fe4146102dc578063b60d428814610123578063c1cfb99a146102f1578063d28178d714610304578063f972c1c41461031957600080fd5b80638c08a4dc146102495780639f6680a814610269578063a3ec138d14610289578063a8311aa8146102ba57600080fd5b80633477ee2e116100d15780633477ee2e146101b657806340dec728146101e6578063685a9dd8146101fb57806370651a181461021b57600080fd5b806304cee9b31461010357806306a49fce146101255780631bd95155146101505780632e4176cf1461017e575b600080fd5b34801561010f57600080fd5b5061012361011e366004611228565b610339565b005b34801561013157600080fd5b5061013a610440565b604051610147919061128e565b60405180910390f35b34801561015c57600080fd5b5061017061016b366004611409565b6105d7565b604051908152602001610147565b34801561018a57600080fd5b5060005461019e906001600160a01b031681565b6040516001600160a01b039091168152602001610147565b3480156101c257600080fd5b506101d66101d1366004611228565b61067b565b6040516101479493929190611446565b3480156101f257600080fd5b50600254610170565b34801561020757600080fd5b50610123610216366004611497565b6107cb565b34801561022757600080fd5b5061023b610236366004611228565b61097e565b6040516101479291906114bb565b34801561025557600080fd5b50610123610264366004611228565b610a3a565b34801561027557600080fd5b506101236102843660046114dd565b610ba5565b34801561029557600080fd5b506102a96102a4366004611497565b610d07565b6040516101479594939291906115f4565b3480156102c657600080fd5b506102cf610dc6565b604051610147919061162d565b3480156102e857600080fd5b50610170610eb8565b3480156102fd57600080fd5b5047610170565b34801561031057600080fd5b50610170610f35565b34801561032557600080fd5b50610123610334366004611695565b610fad565b336000908152600160205260409020600281015460ff166103985760405162461bcd60e51b8152602060048201526014602482015273486173206e6f20726967687420746f20766f746560601b60448201526064015b60405180910390fd5b600281015462010000900460ff16156103f35760405162461bcd60e51b815260206004820152601760248201527f616c726561647920766f74656420666f72207061727479000000000000000000604482015260640161038f565b6001600483815481106104085761040861170b565b906000526020600020906002020160010160008282546104289190611737565b9091555050600201805461ff00191661010017905550565b60606003805480602002602001604051908101604052809291908181526020016000905b828210156105ce57838290600052602060002090600402016040518060800160405290816000820180546104979061174f565b80601f01602080910402602001604051908101604052809291908181526020018280546104c39061174f565b80156105105780601f106104e557610100808354040283529160200191610510565b820191906000526020600020905b8154815290600101906020018083116104f357829003601f168201915b505050505081526020016001820180546105299061174f565b80601f01602080910402602001604051908101604052809291908181526020018280546105559061174f565b80156105a25780601f10610577576101008083540402835291602001916105a2565b820191906000526020600020905b81548152906001019060200180831161058557829003601f168201915b505050505081526020016002820154815260200160038201548152505081526020019060010190610464565b50505050905090565b60008082815b81518110156106725760008183516105f5919061178a565b9050600083838151811061060b5761060b61170b565b01602001516001600160f81b03198116915060f81c600061062d60308361178a565b905061063a60018561178a565b61064590600a611887565b61064f9082611893565b6106599088611737565b965050505050808061066a906118b2565b9150506105dd565b50909392505050565b6003818154811061068b57600080fd5b90600052602060002090600402016000915090508060000180546106ae9061174f565b80601f01602080910402602001604051908101604052809291908181526020018280546106da9061174f565b80156107275780601f106106fc57610100808354040283529160200191610727565b820191906000526020600020905b81548152906001019060200180831161070a57829003601f168201915b50505050509080600101805461073c9061174f565b80601f01602080910402602001604051908101604052809291908181526020018280546107689061174f565b80156107b55780601f1061078a576101008083540402835291602001916107b5565b820191906000526020600020905b81548152906001019060200180831161079857829003601f168201915b5050505050908060020154908060030154905084565b6000546001600160a01b0316331461083b5760405162461bcd60e51b815260206004820152602d60248201527f4f6e6c792063686169726d616e2063616e20676976652064656e6f756e63652060448201526c726967687420746f20766f746560981b606482015260840161038f565b6001600160a01b038116600090815260016020526040902060020154610100900460ff16158061088d57506001600160a01b03811660009081526001602052604090206002015462010000900460ff16155b6108d35760405162461bcd60e51b8152602060048201526017602482015276151a19481d9bdd195c88185b1c9958591e481d9bdd1959604a1b604482015260640161038f565b6001600160a01b03811660009081526001602052604090206002015460ff1661093e5760405162461bcd60e51b815260206004820181905260248201527f566f74657220646f65736e2774206861766520726967687420746f20766f7465604482015260640161038f565b6001600160a01b038116600090815260016020819052604082206002908101805460ff1916905580549192909161097690849061178a565b909155505050565b6004818154811061098e57600080fd5b90600052602060002090600202016000915090508060000180546109b19061174f565b80601f01602080910402602001604051908101604052809291908181526020018280546109dd9061174f565b8015610a2a5780601f106109ff57610100808354040283529160200191610a2a565b820191906000526020600020905b815481529060010190602001808311610a0d57829003601f168201915b5050505050908060010154905082565b336000908152600160205260409020600281015460ff16610a945760405162461bcd60e51b8152602060048201526014602482015273486173206e6f20726967687420746f20766f746560601b604482015260640161038f565b6002810154610100900460ff1615610aee5760405162461bcd60e51b815260206004820152601b60248201527f616c726561647920766f74656420666f722063616e6469646174650000000000604482015260640161038f565b60038281548110610b0157610b0161170b565b906000526020600020906004020160020154816001015414610b705760405162461bcd60e51b815260206004820152602260248201527f63616e6e6f7420766f74652063616e64696461746520696e2074686973206172604482015261656160f01b606482015260840161038f565b600160038381548110610b8557610b8561170b565b906000526020600020906004020160030160008282546104289190611737565b6000546001600160a01b03163314610bcf5760405162461bcd60e51b815260040161038f906118cd565b60005b8151811015610d035760036040518060800160405280848481518110610bfa57610bfa61170b565b6020026020010151600060038110610c1457610c1461170b565b60200201518152602001848481518110610c3057610c3061170b565b6020026020010151600160038110610c4a57610c4a61170b565b60200201518152602001610c8d858581518110610c6957610c6961170b565b6020026020010151600260038110610c8357610c8361170b565b60200201516105d7565b815260006020918201819052835460018101855593815281902082518051939460040290910192610cc1928492019061118f565b506020828101518051610cda926001850192019061118f565b506040820151600282015560609091015160039091015580610cfb816118b2565b915050610bd2565b5050565b600160205260009081526040902080548190610d229061174f565b80601f0160208091040260200160405190810160405280929190818152602001828054610d4e9061174f565b8015610d9b5780601f10610d7057610100808354040283529160200191610d9b565b820191906000526020600020905b815481529060010190602001808311610d7e57829003601f168201915b50505050600183015460029093015491929160ff808216925061010082048116916201000090041685565b60606004805480602002602001604051908101604052809291908181526020016000905b828210156105ce5783829060005260206000209060020201604051806040016040529081600082018054610e1d9061174f565b80601f0160208091040260200160405190810160405280929190818152602001828054610e499061174f565b8015610e965780601f10610e6b57610100808354040283529160200191610e96565b820191906000526020600020905b815481529060010190602001808311610e7957829003601f168201915b5050505050815260200160018201548152505081526020019060010190610dea565b600080805b600454811015610f30578160048281548110610edb57610edb61170b565b9060005260206000209060020201600101541115610f1e5760048181548110610f0657610f0661170b565b90600052602060002090600202016001015491508092505b80610f28816118b2565b915050610ebd565b505090565b600080805b600354811015610f30578160038281548110610f5857610f5861170b565b9060005260206000209060040201600301541115610f9b5760038181548110610f8357610f8361170b565b90600052602060002090600402016003015491508092505b80610fa5816118b2565b915050610f3a565b6000546001600160a01b03163314610fd75760405162461bcd60e51b815260040161038f906118cd565b6001600160a01b038316600090815260016020526040902060020154610100900460ff16158061102957506001600160a01b03831660009081526001602052604090206002015462010000900460ff16155b61106f5760405162461bcd60e51b8152602060048201526017602482015276151a19481d9bdd195c88185b1c9958591e481d9bdd1959604a1b604482015260640161038f565b6001600160a01b03831660009081526001602052604090206002015460ff16156110d45760405162461bcd60e51b8152602060048201526016602482015275566f7465722063616e20616c726561647920766f746560501b604482015260640161038f565b6001600160a01b038316600090815260016020818152604090922060028101805460ff1916909217909155835161110d9285019061118f565b50611117816105d7565b6001600160a01b038416600081815260016020819052604080832091820194909455600201805462ffff00191690559151909190655af3107a40009082818181858883f19350505050158015611171573d6000803e3d6000fd5b506001600260008282546111859190611737565b9091555050505050565b82805461119b9061174f565b90600052602060002090601f0160209004810192826111bd5760008555611203565b82601f106111d657805160ff1916838001178555611203565b82800160010185558215611203579182015b828111156112035782518255916020019190600101906111e8565b5061120f929150611213565b5090565b5b8082111561120f5760008155600101611214565b60006020828403121561123a57600080fd5b5035919050565b6000815180845260005b818110156112675760208185018101518683018201520161124b565b81811115611279576000602083870101525b50601f01601f19169290920160200192915050565b60006020808301818452808551808352604092508286019150828160051b87010184880160005b8381101561131b57603f198984030185528151608081518186526112db82870182611241565b915050888201518582038a8701526112f38282611241565b838a0151878b01526060938401519390960192909252505093860193908601906001016112b5565b509098975050505050505050565b634e487b7160e01b600052604160045260246000fd5b6040516060810167ffffffffffffffff8111828210171561136257611362611329565b60405290565b604051601f8201601f1916810167ffffffffffffffff8111828210171561139157611391611329565b604052919050565b600082601f8301126113aa57600080fd5b813567ffffffffffffffff8111156113c4576113c4611329565b6113d7601f8201601f1916602001611368565b8181528460208386010111156113ec57600080fd5b816020850160208301376000918101602001919091529392505050565b60006020828403121561141b57600080fd5b813567ffffffffffffffff81111561143257600080fd5b61143e84828501611399565b949350505050565b6080815260006114596080830187611241565b828103602084015261146b8187611241565b604084019590955250506060015292915050565b6001600160a01b038116811461149457600080fd5b50565b6000602082840312156114a957600080fd5b81356114b48161147f565b9392505050565b6040815260006114ce6040830185611241565b90508260208301529392505050565b600060208083850312156114f057600080fd5b67ffffffffffffffff808435111561150757600080fd5b8335840185601f82011261151a57600080fd5b80358281111561152c5761152c611329565b8060051b61153b858201611368565b918252828101850191858101908984111561155557600080fd5b86850192505b838310156115e757858335111561157157600080fd5b823585018a603f82011261158457600080fd5b61158c61133f565b80608083018d81111561159e57600080fd5b8a84015b818110156115d4578a813511156115b857600080fd5b6115c78f8d8335880101611399565b8452928b01928b016115a2565b505084525050918601919086019061155b565b9998505050505050505050565b60a08152600061160760a0830188611241565b602083019690965250921515604084015290151560608301521515608090910152919050565b60006020808301818452808551808352604092508286019150828160051b87010184880160005b8381101561131b57888303603f190185528151805187855261167888860182611241565b918901519489019490945294870194925090860190600101611654565b6000806000606084860312156116aa57600080fd5b83356116b58161147f565b9250602084013567ffffffffffffffff808211156116d257600080fd5b6116de87838801611399565b935060408601359150808211156116f457600080fd5b5061170186828701611399565b9150509250925092565b634e487b7160e01b600052603260045260246000fd5b634e487b7160e01b600052601160045260246000fd5b6000821982111561174a5761174a611721565b500190565b600181811c9082168061176357607f821691505b6020821081141561178457634e487b7160e01b600052602260045260246000fd5b50919050565b60008282101561179c5761179c611721565b500390565b600181815b808511156117dc5781600019048211156117c2576117c2611721565b808516156117cf57918102915b93841c93908002906117a6565b509250929050565b6000826117f357506001611881565b8161180057506000611881565b816001811461181657600281146118205761183c565b6001915050611881565b60ff84111561183157611831611721565b50506001821b611881565b5060208310610133831016604e8410600b841016171561185f575081810a611881565b61186983836117a1565b806000190482111561187d5761187d611721565b0290505b92915050565b60006114b483836117e4565b60008160001904831182151516156118ad576118ad611721565b500290565b60006000198214156118c6576118c6611721565b5060010190565b60208082526028908201527f4f6e6c792063686169726d616e2063616e20676976652074686520726967687460408201526720746f20766f746560c01b60608201526080019056fea26469706673582212201eb62a0c6eef37ed36f34e33d9a36a833f9fa78394239be365552cc988ddc55564736f6c634300080c0033",
  "bytecodeSha1": "a515288d9a20324d6d81953aa489e7b9d5566536",
  "compiler": {
    "evm_version": "istanbul",
    "optimizer": {
      "enabled": true,
      "runs": 200
    },
    "version": "0.8.12+commit.f00d7308"
  },
  "contractName": "Voting",
  "language": "Solidity",
  "natspec": {
    "kind": "dev",
    "methods": {},
    "version": 1
  },
  "opcodes": "PUSH1 0x80 PUSH1 0x40 MSTORE PUSH1 0x4 CALLDATASIZE LT PUSH2 0xFE JUMPI PUSH1 0x0 CALLDATALOAD PUSH1 0xE0 SHR DUP1 PUSH4 0x8C08A4DC GT PUSH2 0x95 JUMPI DUP1 PUSH4 0xAE315FE4 GT PUSH2 0x64 JUMPI DUP1 PUSH4 0xAE315FE4 EQ PUSH2 0x2DC JUMPI DUP1 PUSH4 0xB60D4288 EQ PUSH2 0x123 JUMPI DUP1 PUSH4 0xC1CFB99A EQ PUSH2 0x2F1 JUMPI DUP1 PUSH4 0xD28178D7 EQ PUSH2 0x304 JUMPI DUP1 PUSH4 0xF972C1C4 EQ PUSH2 0x319 JUMPI PUSH1 0x0 DUP1 REVERT JUMPDEST DUP1 PUSH4 0x8C08A4DC EQ PUSH2 0x249 JUMPI DUP1 PUSH4 0x9F6680A8 EQ PUSH2 0x269 JUMPI DUP1 PUSH4 0xA3EC138D EQ PUSH2 0x289 JUMPI DUP1 PUSH4 0xA8311AA8 EQ PUSH2 0x2BA JUMPI PUSH1 0x0 DUP1 REVERT JUMPDEST DUP1 PUSH4 0x3477EE2E GT PUSH2 0xD1 JUMPI DUP1 PUSH4 0x3477EE2E EQ PUSH2 0x1B6 JUMPI DUP1 PUSH4 0x40DEC728 EQ PUSH2 0x1E6 JUMPI DUP1 PUSH4 0x685A9DD8 EQ PUSH2 0x1FB JUMPI DUP1 PUSH4 0x70651A18 EQ PUSH2 0x21B JUMPI PUSH1 0x0 DUP1 REVERT JUMPDEST DUP1 PUSH4 0x4CEE9B3 EQ PUSH2 0x103 JUMPI DUP1 PUSH4 0x6A49FCE EQ PUSH2 0x125 JUMPI DUP1 PUSH4 0x1BD95155 EQ PUSH2 0x150 JUMPI DUP1 PUSH4 0x2E4176CF EQ PUSH2 0x17E JUMPI JUMPDEST PUSH1 0x0 DUP1 REVERT JUMPDEST CALLVALUE DUP1 ISZERO PUSH2 0x10F JUMPI PUSH1 0x0 DUP1 REVERT JUMPDEST POP PUSH2 0x123 PUSH2 0x11E CALLDATASIZE PUSH1 0x4 PUSH2 0x1228 JUMP JUMPDEST PUSH2 0x339 JUMP JUMPDEST STOP JUMPDEST CALLVALUE DUP1 ISZERO PUSH2 0x131 JUMPI PUSH1 0x0 DUP1 REVERT JUMPDEST POP PUSH2 0x13A PUSH2 0x440 JUMP JUMPDEST PUSH1 0x40 MLOAD PUSH2 0x147 SWAP2 SWAP1 PUSH2 0x128E JUMP JUMPDEST PUSH1 0x40 MLOAD DUP1 SWAP2 SUB SWAP1 RETURN JUMPDEST CALLVALUE DUP1 ISZERO PUSH2 0x15C JUMPI PUSH1 0x0 DUP1 REVERT JUMPDEST POP PUSH2 0x170 PUSH2 0x16B CALLDATASIZE PUSH1 0x4 PUSH2 0x1409 JUMP JUMPDEST PUSH2 0x5D7 JUMP JUMPDEST PUSH1 0x40 MLOAD SWAP1 DUP2 MSTORE PUSH1 0x20 ADD PUSH2 0x147 JUMP JUMPDEST CALLVALUE DUP1 ISZERO PUSH2 0x18A JUMPI PUSH1 0x0 DUP1 REVERT JUMPDEST POP PUSH1 0x0 SLOAD PUSH2 0x19E SWAP1 PUSH1 0x1 PUSH1 0x1 PUSH1 0xA0 SHL SUB AND DUP2 JUMP JUMPDEST PUSH1 0x40 MLOAD PUSH1 0x1 PUSH1 0x1 PUSH1 0xA0 SHL SUB SWAP1 SWAP2 AND DUP2 MSTORE PUSH1 0x20 ADD PUSH2 0x147 JUMP JUMPDEST CALLVALUE DUP1 ISZERO PUSH2 0x1C2 JUMPI PUSH1 0x0 DUP1 REVERT JUMPDEST POP PUSH2 0x1D6 PUSH2 0x1D1 CALLDATASIZE PUSH1 0x4 PUSH2 0x1228 JUMP JUMPDEST PUSH2 0x67B JUMP JUMPDEST PUSH1 0x40 MLOAD PUSH2 0x147 SWAP5 SWAP4 SWAP3 SWAP2 SWAP1 PUSH2 0x1446 JUMP JUMPDEST CALLVALUE DUP1 ISZERO PUSH2 0x1F2 JUMPI PUSH1 0x0 DUP1 REVERT JUMPDEST POP PUSH1 0x2 SLOAD PUSH2 0x170 JUMP JUMPDEST CALLVALUE DUP1 ISZERO PUSH2 0x207 JUMPI PUSH1 0x0 DUP1 REVERT JUMPDEST POP PUSH2 0x123 PUSH2 0x216 CALLDATASIZE PUSH1 0x4 PUSH2 0x1497 JUMP JUMPDEST PUSH2 0x7CB JUMP JUMPDEST CALLVALUE DUP1 ISZERO PUSH2 0x227 JUMPI PUSH1 0x0 DUP1 REVERT JUMPDEST POP PUSH2 0x23B PUSH2 0x236 CALLDATASIZE PUSH1 0x4 PUSH2 0x1228 JUMP JUMPDEST PUSH2 0x97E JUMP JUMPDEST PUSH1 0x40 MLOAD PUSH2 0x147 SWAP3 SWAP2 SWAP1 PUSH2 0x14BB JUMP JUMPDEST CALLVALUE DUP1 ISZERO PUSH2 0x255 JUMPI PUSH1 0x0 DUP1 REVERT JUMPDEST POP PUSH2 0x123 PUSH2 0x264 CALLDATASIZE PUSH1 0x4 PUSH2 0x1228 JUMP JUMPDEST PUSH2 0xA3A JUMP JUMPDEST CALLVALUE DUP1 ISZERO PUSH2 0x275 JUMPI PUSH1 0x0 DUP1 REVERT JUMPDEST POP PUSH2 0x123 PUSH2 0x284 CALLDATASIZE PUSH1 0x4 PUSH2 0x14DD JUMP JUMPDEST PUSH2 0xBA5 JUMP JUMPDEST CALLVALUE DUP1 ISZERO PUSH2 0x295 JUMPI PUSH1 0x0 DUP1 REVERT JUMPDEST POP PUSH2 0x2A9 PUSH2 0x2A4 CALLDATASIZE PUSH1 0x4 PUSH2 0x1497 JUMP JUMPDEST PUSH2 0xD07 JUMP JUMPDEST PUSH1 0x40 MLOAD PUSH2 0x147 SWAP6 SWAP5 SWAP4 SWAP3 SWAP2 SWAP1 PUSH2 0x15F4 JUMP JUMPDEST CALLVALUE DUP1 ISZERO PUSH2 0x2C6 JUMPI PUSH1 0x0 DUP1 REVERT JUMPDEST POP PUSH2 0x2CF PUSH2 0xDC6 JUMP JUMPDEST PUSH1 0x40 MLOAD PUSH2 0x147 SWAP2 SWAP1 PUSH2 0x162D JUMP JUMPDEST CALLVALUE DUP1 ISZERO PUSH2 0x2E8 JUMPI PUSH1 0x0 DUP1 REVERT JUMPDEST POP PUSH2 0x170 PUSH2 0xEB8 JUMP JUMPDEST CALLVALUE DUP1 ISZERO PUSH2 0x2FD JUMPI PUSH1 0x0 DUP1 REVERT JUMPDEST POP SELFBALANCE PUSH2 0x170 JUMP JUMPDEST CALLVALUE DUP1 ISZERO PUSH2 0x310 JUMPI PUSH1 0x0 DUP1 REVERT JUMPDEST POP PUSH2 0x170 PUSH2 0xF35 JUMP JUMPDEST CALLVALUE DUP1 ISZERO PUSH2 0x325 JUMPI PUSH1 0x0 DUP1 REVERT JUMPDEST POP PUSH2 0x123 PUSH2 0x334 CALLDATASIZE PUSH1 0x4 PUSH2 0x1695 JUMP JUMPDEST PUSH2 0xFAD JUMP JUMPDEST CALLER PUSH1 0x0 SWAP1 DUP2 MSTORE PUSH1 0x1 PUSH1 0x20 MSTORE PUSH1 0x40 SWAP1 KECCAK256 PUSH1 0x2 DUP2 ADD SLOAD PUSH1 0xFF AND PUSH2 0x398 JUMPI PUSH1 0x40 MLOAD PUSH3 0x461BCD PUSH1 0xE5 SHL DUP2 MSTORE PUSH1 0x20 PUSH1 0x4 DUP3 ADD MSTORE PUSH1 0x14 PUSH1 0x24 DUP3 ADD MSTORE PUSH20 0x486173206E6F20726967687420746F20766F7465 PUSH1 0x60 SHL PUSH1 0x44 DUP3 ADD MSTORE PUSH1 0x64 ADD JUMPDEST PUSH1 0x40 MLOAD DUP1 SWAP2 SUB SWAP1 REVERT JUMPDEST PUSH1 0x2 DUP2 ADD SLOAD PUSH3 0x10000 SWAP1 DIV PUSH1 0xFF AND ISZERO PUSH2 0x3F3 JUMPI PUSH1 0x40 MLOAD PUSH3 0x461BCD PUSH1 0xE5 SHL DUP2 MSTORE PUSH1 0x20 PUSH1 0x4 DUP3 ADD MSTORE PUSH1 0x17 PUSH1 0x24 DUP3 ADD MSTORE PUSH32 0x616C726561647920766F74656420666F72207061727479000000000000000000 PUSH1 0x44 DUP3 ADD MSTORE PUSH1 0x64 ADD PUSH2 0x38F JUMP JUMPDEST PUSH1 0x1 PUSH1 0x4 DUP4 DUP2 SLOAD DUP2 LT PUSH2 0x408 JUMPI PUSH2 0x408 PUSH2 0x170B JUMP JUMPDEST SWAP1 PUSH1 0x0 MSTORE PUSH1 0x20 PUSH1 0x0 KECCAK256 SWAP1 PUSH1 0x2 MUL ADD PUSH1 0x1 ADD PUSH1 0x0 DUP3 DUP3 SLOAD PUSH2 0x428 SWAP2 SWAP1 PUSH2 0x1737 JUMP JUMPDEST SWAP1 SWAP2 SSTORE POP POP PUSH1 0x2 ADD DUP1 SLOAD PUSH2 0xFF00 NOT AND PUSH2 0x100 OR SWAP1 SSTORE POP JUMP JUMPDEST PUSH1 0x60 PUSH1 0x3 DUP1 SLOAD DUP1 PUSH1 0x20 MUL PUSH1 0x20 ADD PUSH1 0x40 MLOAD SWAP1 DUP2 ADD PUSH1 0x40 MSTORE DUP1 SWAP3 SWAP2 SWAP1 DUP2 DUP2 MSTORE PUSH1 0x20 ADD PUSH1 0x0 SWAP1 JUMPDEST DUP3 DUP3 LT ISZERO PUSH2 0x5CE JUMPI DUP4 DUP3 SWAP1 PUSH1 0x0 MSTORE PUSH1 0x20 PUSH1 0x0 KECCAK256 SWAP1 PUSH1 0x4 MUL ADD PUSH1 0x40 MLOAD DUP1 PUSH1 0x80 ADD PUSH1 0x40 MSTORE SWAP1 DUP2 PUSH1 0x0 DUP3 ADD DUP1 SLOAD PUSH2 0x497 SWAP1 PUSH2 0x174F JUMP JUMPDEST DUP1 PUSH1 0x1F ADD PUSH1 0x20 DUP1 SWAP2 DIV MUL PUSH1 0x20 ADD PUSH1 0x40 MLOAD SWAP1 DUP2 ADD PUSH1 0x40 MSTORE DUP1 SWAP3 SWAP2 SWAP1 DUP2 DUP2 MSTORE PUSH1 0x20 ADD DUP3 DUP1 SLOAD PUSH2 0x4C3 SWAP1 PUSH2 0x174F JUMP JUMPDEST DUP1 ISZERO PUSH2 0x510 JUMPI DUP1 PUSH1 0x1F LT PUSH2 0x4E5 JUMPI PUSH2 0x100 DUP1 DUP4 SLOAD DIV MUL DUP4 MSTORE SWAP2 PUSH1 0x20 ADD SWAP2 PUSH2 0x510 JUMP JUMPDEST DUP3 ADD SWAP2 SWAP1 PUSH1 0x0 MSTORE PUSH1 0x20 PUSH1 0x0 KECCAK256 SWAP1 JUMPDEST DUP2 SLOAD DUP2 MSTORE SWAP1 PUSH1 0x1 ADD SWAP1 PUSH1 0x20 ADD DUP1 DUP4 GT PUSH2 0x4F3 JUMPI DUP3 SWAP1 SUB PUSH1 0x1F AND DUP3 ADD SWAP2 JUMPDEST POP POP POP POP POP DUP2 MSTORE PUSH1 0x20 ADD PUSH1 0x1 DUP3 ADD DUP1 SLOAD PUSH2 0x529 SWAP1 PUSH2 0x174F JUMP JUMPDEST DUP1 PUSH1 0x1F ADD PUSH1 0x20 DUP1 SWAP2 DIV MUL PUSH1 0x20 ADD PUSH1 0x40 MLOAD SWAP1 DUP2 ADD PUSH1 0x40 MSTORE DUP1 SWAP3 SWAP2 SWAP1 DUP2 DUP2 MSTORE PUSH1 0x20 ADD DUP3 DUP1 SLOAD PUSH2 0x555 SWAP1 PUSH2 0x174F JUMP JUMPDEST DUP1 ISZERO PUSH2 0x5A2 JUMPI DUP1 PUSH1 0x1F LT PUSH2 0x577 JUMPI PUSH2 0x100 DUP1 DUP4 SLOAD DIV MUL DUP4 MSTORE SWAP2 PUSH1 0x20 ADD SWAP2 PUSH2 0x5A2 JUMP JUMPDEST DUP3 ADD SWAP2 SWAP1 PUSH1 0x0 MSTORE PUSH1 0x20 PUSH1 0x0 KECCAK256 SWAP1 JUMPDEST DUP2 SLOAD DUP2 MSTORE SWAP1 PUSH1 0x1 ADD SWAP1 PUSH1 0x20 ADD DUP1 DUP4 GT PUSH2 0x585 JUMPI DUP3 SWAP1 SUB PUSH1 0x1F AND DUP3 ADD SWAP2 JUMPDEST POP POP POP POP POP DUP2 MSTORE PUSH1 0x20 ADD PUSH1 0x2 DUP3 ADD SLOAD DUP2 MSTORE PUSH1 0x20 ADD PUSH1 0x3 DUP3 ADD SLOAD DUP2 MSTORE POP POP DUP2 MSTORE PUSH1 0x20 ADD SWAP1 PUSH1 0x1 ADD SWAP1 PUSH2 0x464 JUMP JUMPDEST POP POP POP POP SWAP1 POP SWAP1 JUMP JUMPDEST PUSH1 0x0 DUP1 DUP3 DUP2 JUMPDEST DUP2 MLOAD DUP2 LT ISZERO PUSH2 0x672 JUMPI PUSH1 0x0 DUP2 DUP4 MLOAD PUSH2 0x5F5 SWAP2 SWAP1 PUSH2 0x178A JUMP JUMPDEST SWAP1 POP PUSH1 0x0 DUP4 DUP4 DUP2 MLOAD DUP2 LT PUSH2 0x60B JUMPI PUSH2 0x60B PUSH2 0x170B JUMP JUMPDEST ADD PUSH1 0x20 ADD MLOAD PUSH1 0x1 PUSH1 0x1 PUSH1 0xF8 SHL SUB NOT DUP2 AND SWAP2 POP PUSH1 0xF8 SHR PUSH1 0x0 PUSH2 0x62D PUSH1 0x30 DUP4 PUSH2 0x178A JUMP JUMPDEST SWAP1 POP PUSH2 0x63A PUSH1 0x1 DUP6 PUSH2 0x178A JUMP JUMPDEST PUSH2 0x645 SWAP1 PUSH1 0xA PUSH2 0x1887 JUMP JUMPDEST PUSH2 0x64F SWAP1 DUP3 PUSH2 0x1893 JUMP JUMPDEST PUSH2 0x659 SWAP1 DUP9 PUSH2 0x1737 JUMP JUMPDEST SWAP7 POP POP POP POP POP DUP1 DUP1 PUSH2 0x66A SWAP1 PUSH2 0x18B2 JUMP JUMPDEST SWAP2 POP POP PUSH2 0x5DD JUMP JUMPDEST POP SWAP1 SWAP4 SWAP3 POP POP POP JUMP JUMPDEST PUSH1 0x3 DUP2 DUP2 SLOAD DUP2 LT PUSH2 0x68B JUMPI PUSH1 0x0 DUP1 REVERT JUMPDEST SWAP1 PUSH1 0x0 MSTORE PUSH1 0x20 PUSH1 0x0 KECCAK256 SWAP1 PUSH1 0x4 MUL ADD PUSH1 0x0 SWAP2 POP SWAP1 POP DUP1 PUSH1 0x0 ADD DUP1 SLOAD PUSH2 0x6AE SWAP1 PUSH2 0x174F JUMP JUMPDEST DUP1 PUSH1 0x1F ADD PUSH1 0x20 DUP1 SWAP2 DIV MUL PUSH1 0x20 ADD PUSH1 0x40 MLOAD SWAP1 DUP2 ADD PUSH1 0x40 MSTORE DUP1 SWAP3 SWAP2 SWAP1 DUP2 DUP2 MSTORE PUSH1 0x20 ADD DUP3 DUP1 SLOAD PUSH2 0x6DA SWAP1 PUSH2 0x174F JUMP JUMPDEST DUP1 ISZERO PUSH2 0x727 JUMPI DUP1 PUSH1 0x1F LT PUSH2 0x6FC JUMPI PUSH2 0x100 DUP1 DUP4 SLOAD DIV MUL DUP4 MSTORE SWAP2 PUSH1 0x20 ADD SWAP2 PUSH2 0x727 JUMP JUMPDEST DUP3 ADD SWAP2 SWAP1 PUSH1 0x0 MSTORE PUSH1 0x20 PUSH1 0x0 KECCAK256 SWAP1 JUMPDEST DUP2 SLOAD DUP2 MSTORE SWAP1 PUSH1 0x1 ADD SWAP1 PUSH1 0x20 ADD DUP1 DUP4 GT PUSH2 0x70A JUMPI DUP3 SWAP1 SUB PUSH1 0x1F AND DUP3 ADD SWAP2 JUMPDEST POP POP POP POP POP SWAP1 DUP1 PUSH1 0x1 ADD DUP1 SLOAD PUSH2 0x73C SWAP1 PUSH2 0x174F JUMP JUMPDEST DUP1 PUSH1 0x1F ADD PUSH1 0x20 DUP1 SWAP2 DIV MUL PUSH1 0x20 ADD PUSH1 0x40 MLOAD SWAP1 DUP2 ADD PUSH1 0x40 MSTORE DUP1 SWAP3 SWAP2 SWAP1 DUP2 DUP2 MSTORE PUSH1 0x20 ADD DUP3 DUP1 SLOAD PUSH2 0x768 SWAP1 PUSH2 0x174F JUMP JUMPDEST DUP1 ISZERO PUSH2 0x7B5 JUMPI DUP1 PUSH1 0x1F LT PUSH2 0x78A JUMPI PUSH2 0x100 DUP1 DUP4 SLOAD DIV MUL DUP4 MSTORE SWAP2 PUSH1 0x20 ADD SWAP2 PUSH2 0x7B5 JUMP JUMPDEST DUP3 ADD SWAP2 SWAP1 PUSH1 0x0 MSTORE PUSH1 0x20 PUSH1 0x0 KECCAK256 SWAP1 JUMPDEST DUP2 SLOAD DUP2 MSTORE SWAP1 PUSH1 0x1 ADD SWAP1 PUSH1 0x20 ADD DUP1 DUP4 GT PUSH2 0x798 JUMPI DUP3 SWAP1 SUB PUSH1 0x1F AND DUP3 ADD SWAP2 JUMPDEST POP POP POP POP POP SWAP1 DUP1 PUSH1 0x2 ADD SLOAD SWAP1 DUP1 PUSH1 0x3 ADD SLOAD SWAP1 POP DUP5 JUMP JUMPDEST PUSH1 0x0 SLOAD PUSH1 0x1 PUSH1 0x1 PUSH1 0xA0 SHL SUB AND CALLER EQ PUSH2 0x83B JUMPI PUSH1 0x40 MLOAD PUSH3 0x461BCD PUSH1 0xE5 SHL DUP2 MSTORE PUSH1 0x20 PUSH1 0x4 DUP3 ADD MSTORE PUSH1 0x2D PUSH1 0x24 DUP3 ADD MSTORE PUSH32 0x4F6E6C792063686169726D616E2063616E20676976652064656E6F756E636520 PUSH1 0x44 DUP3 ADD MSTORE PUSH13 0x726967687420746F20766F7465 PUSH1 0x98 SHL PUSH1 0x64 DUP3 ADD MSTORE PUSH1 0x84 ADD PUSH2 0x38F JUMP JUMPDEST PUSH1 0x1 PUSH1 0x1 PUSH1 0xA0 SHL SUB DUP2 AND PUSH1 0x0 SWAP1 DUP2 MSTORE PUSH1 0x1 PUSH1 0x20 MSTORE PUSH1 0x40 SWAP1 KECCAK256 PUSH1 0x2 ADD SLOAD PUSH2 0x100 SWAP1 DIV PUSH1 0xFF AND ISZERO DUP1 PUSH2 0x88D JUMPI POP PUSH1 0x1 PUSH1 0x1 PUSH1 0xA0 SHL SUB DUP2 AND PUSH1 0x0 SWAP1 DUP2 MSTORE PUSH1 0x1 PUSH1 0x20 MSTORE PUSH1 0x40 SWAP1 KECCAK256 PUSH1 0x2 ADD SLOAD PUSH3 0x10000 SWAP1 DIV PUSH1 0xFF AND ISZERO JUMPDEST PUSH2 0x8D3 JUMPI PUSH1 0x40 MLOAD PUSH3 0x461BCD PUSH1 0xE5 SHL DUP2 MSTORE PUSH1 0x20 PUSH1 0x4 DUP3 ADD MSTORE PUSH1 0x17 PUSH1 0x24 DUP3 ADD MSTORE PUSH23 0x151A19481D9BDD195C88185B1C9958591E481D9BDD1959 PUSH1 0x4A SHL PUSH1 0x44 DUP3 ADD MSTORE PUSH1 0x64 ADD PUSH2 0x38F JUMP JUMPDEST PUSH1 0x1 PUSH1 0x1 PUSH1 0xA0 SHL SUB DUP2 AND PUSH1 0x0 SWAP1 DUP2 MSTORE PUSH1 0x1 PUSH1 0x20 MSTORE PUSH1 0x40 SWAP1 KECCAK256 PUSH1 0x2 ADD SLOAD PUSH1 0xFF AND PUSH2 0x93E JUMPI PUSH1 0x40 MLOAD PUSH3 0x461BCD PUSH1 0xE5 SHL DUP2 MSTORE PUSH1 0x20 PUSH1 0x4 DUP3 ADD DUP2 SWAP1 MSTORE PUSH1 0x24 DUP3 ADD MSTORE PUSH32 0x566F74657220646F65736E2774206861766520726967687420746F20766F7465 PUSH1 0x44 DUP3 ADD MSTORE PUSH1 0x64 ADD PUSH2 0x38F JUMP JUMPDEST PUSH1 0x1 PUSH1 0x1 PUSH1 0xA0 SHL SUB DUP2 AND PUSH1 0x0 SWAP1 DUP2 MSTORE PUSH1 0x1 PUSH1 0x20 DUP2 SWAP1 MSTORE PUSH1 0x40 DUP3 KECCAK256 PUSH1 0x2 SWAP1 DUP2 ADD DUP1 SLOAD PUSH1 0xFF NOT AND SWAP1 SSTORE DUP1 SLOAD SWAP2 SWAP3 SWAP1 SWAP2 PUSH2 0x976 SWAP1 DUP5 SWAP1 PUSH2 0x178A JUMP JUMPDEST SWAP1 SWAP2 SSTORE POP POP POP JUMP JUMPDEST PUSH1 0x4 DUP2 DUP2 SLOAD DUP2 LT PUSH2 0x98E JUMPI PUSH1 0x0 DUP1 REVERT JUMPDEST SWAP1 PUSH1 0x0 MSTORE PUSH1 0x20 PUSH1 0x0 KECCAK256 SWAP1 PUSH1 0x2 MUL ADD PUSH1 0x0 SWAP2 POP SWAP1 POP DUP1 PUSH1 0x0 ADD DUP1 SLOAD PUSH2 0x9B1 SWAP1 PUSH2 0x174F JUMP JUMPDEST DUP1 PUSH1 0x1F ADD PUSH1 0x20 DUP1 SWAP2 DIV MUL PUSH1 0x20 ADD PUSH1 0x40 MLOAD SWAP1 DUP2 ADD PUSH1 0x40 MSTORE DUP1 SWAP3 SWAP2 SWAP1 DUP2 DUP2 MSTORE PUSH1 0x20 ADD DUP3 DUP1 SLOAD PUSH2 0x9DD SWAP1 PUSH2 0x174F JUMP JUMPDEST DUP1 ISZERO PUSH2 0xA2A JUMPI DUP1 PUSH1 0x1F LT PUSH2 0x9FF JUMPI PUSH2 0x100 DUP1 DUP4 SLOAD DIV MUL DUP4 MSTORE SWAP2 PUSH1 0x20 ADD SWAP2 PUSH2 0xA2A JUMP JUMPDEST DUP3 ADD SWAP2 SWAP1 PUSH1 0x0 MSTORE PUSH1 0x20 PUSH1 0x0 KECCAK256 SWAP1 JUMPDEST DUP2 SLOAD DUP2 MSTORE SWAP1 PUSH1 0x1 ADD SWAP1 PUSH1 0x20 ADD DUP1 DUP4 GT PUSH2 0xA0D JUMPI DUP3 SWAP1 SUB PUSH1 0x1F AND DUP3 ADD SWAP2 JUMPDEST POP POP POP POP POP SWAP1 DUP1 PUSH1 0x1 ADD SLOAD SWAP1 POP DUP3 JUMP JUMPDEST CALLER PUSH1 0x0 SWAP1 DUP2 MSTORE PUSH1 0x1 PUSH1 0x20 MSTORE PUSH1 0x40 SWAP1 KECCAK256 PUSH1 0x2 DUP2 ADD SLOAD PUSH1 0xFF AND PUSH2 0xA94 JUMPI PUSH1 0x40 MLOAD PUSH3 0x461BCD PUSH1 0xE5 SHL DUP2 MSTORE PUSH1 0x20 PUSH1 0x4 DUP3 ADD MSTORE PUSH1 0x14 PUSH1 0x24 DUP3 ADD MSTORE PUSH20 0x486173206E6F20726967687420746F20766F7465 PUSH1 0x60 SHL PUSH1 0x44 DUP3 ADD MSTORE PUSH1 0x64 ADD PUSH2 0x38F JUMP JUMPDEST PUSH1 0x2 DUP2 ADD SLOAD PUSH2 0x100 SWAP1 DIV PUSH1 0xFF AND ISZERO PUSH2 0xAEE JUMPI PUSH1 0x40 MLOAD PUSH3 0x461BCD PUSH1 0xE5 SHL DUP2 MSTORE PUSH1 0x20 PUSH1 0x4 DUP3 ADD MSTORE PUSH1 0x1B PUSH1 0x24 DUP3 ADD MSTORE PUSH32 0x616C726561647920766F74656420666F722063616E6469646174650000000000 PUSH1 0x44 DUP3 ADD MSTORE PUSH1 0x64 ADD PUSH2 0x38F JUMP JUMPDEST PUSH1 0x3 DUP3 DUP2 SLOAD DUP2 LT PUSH2 0xB01 JUMPI PUSH2 0xB01 PUSH2 0x170B JUMP JUMPDEST SWAP1 PUSH1 0x0 MSTORE PUSH1 0x20 PUSH1 0x0 KECCAK256 SWAP1 PUSH1 0x4 MUL ADD PUSH1 0x2 ADD SLOAD DUP2 PUSH1 0x1 ADD SLOAD EQ PUSH2 0xB70 JUMPI PUSH1 0x40 MLOAD PUSH3 0x461BCD PUSH1 0xE5 SHL DUP2 MSTORE PUSH1 0x20 PUSH1 0x4 DUP3 ADD MSTORE PUSH1 0x22 PUSH1 0x24 DUP3 ADD MSTORE PUSH32 0x63616E6E6F7420766F74652063616E64696461746520696E2074686973206172 PUSH1 0x44 DUP3 ADD MSTORE PUSH2 0x6561 PUSH1 0xF0 SHL PUSH1 0x64 DUP3 ADD MSTORE PUSH1 0x84 ADD PUSH2 0x38F JUMP JUMPDEST PUSH1 0x1 PUSH1 0x3 DUP4 DUP2 SLOAD DUP2 LT PUSH2 0xB85 JUMPI PUSH2 0xB85 PUSH2 0x170B JUMP JUMPDEST SWAP1 PUSH1 0x0 MSTORE PUSH1 0x20 PUSH1 0x0 KECCAK256 SWAP1 PUSH1 0x4 MUL ADD PUSH1 0x3 ADD PUSH1 0x0 DUP3 DUP3 SLOAD PUSH2 0x428 SWAP2 SWAP1 PUSH2 0x1737 JUMP JUMPDEST PUSH1 0x0 SLOAD PUSH1 0x1 PUSH1 0x1 PUSH1 0xA0 SHL SUB AND CALLER EQ PUSH2 0xBCF JUMPI PUSH1 0x40 MLOAD PUSH3 0x461BCD PUSH1 0xE5 SHL DUP2 MSTORE PUSH1 0x4 ADD PUSH2 0x38F SWAP1 PUSH2 0x18CD JUMP JUMPDEST PUSH1 0x0 JUMPDEST DUP2 MLOAD DUP2 LT ISZERO PUSH2 0xD03 JUMPI PUSH1 0x3 PUSH1 0x40 MLOAD DUP1 PUSH1 0x80 ADD PUSH1 0x40 MSTORE DUP1 DUP5 DUP5 DUP2 MLOAD DUP2 LT PUSH2 0xBFA JUMPI PUSH2 0xBFA PUSH2 0x170B JUMP JUMPDEST PUSH1 0x20 MUL PUSH1 0x20 ADD ADD MLOAD PUSH1 0x0 PUSH1 0x3 DUP2 LT PUSH2 0xC14 JUMPI PUSH2 0xC14 PUSH2 0x170B JUMP JUMPDEST PUSH1 0x20 MUL ADD MLOAD DUP2 MSTORE PUSH1 0x20 ADD DUP5 DUP5 DUP2 MLOAD DUP2 LT PUSH2 0xC30 JUMPI PUSH2 0xC30 PUSH2 0x170B JUMP JUMPDEST PUSH1 0x20 MUL PUSH1 0x20 ADD ADD MLOAD PUSH1 0x1 PUSH1 0x3 DUP2 LT PUSH2 0xC4A JUMPI PUSH2 0xC4A PUSH2 0x170B JUMP JUMPDEST PUSH1 0x20 MUL ADD MLOAD DUP2 MSTORE PUSH1 0x20 ADD PUSH2 0xC8D DUP6 DUP6 DUP2 MLOAD DUP2 LT PUSH2 0xC69 JUMPI PUSH2 0xC69 PUSH2 0x170B JUMP JUMPDEST PUSH1 0x20 MUL PUSH1 0x20 ADD ADD MLOAD PUSH1 0x2 PUSH1 0x3 DUP2 LT PUSH2 0xC83 JUMPI PUSH2 0xC83 PUSH2 0x170B JUMP JUMPDEST PUSH1 0x20 MUL ADD MLOAD PUSH2 0x5D7 JUMP JUMPDEST DUP2 MSTORE PUSH1 0x0 PUSH1 0x20 SWAP2 DUP3 ADD DUP2 SWAP1 MSTORE DUP4 SLOAD PUSH1 0x1 DUP2 ADD DUP6 SSTORE SWAP4 DUP2 MSTORE DUP2 SWAP1 KECCAK256 DUP3 MLOAD DUP1 MLOAD SWAP4 SWAP5 PUSH1 0x4 MUL SWAP1 SWAP2 ADD SWAP3 PUSH2 0xCC1 SWAP3 DUP5 SWAP3 ADD SWAP1 PUSH2 0x118F JUMP JUMPDEST POP PUSH1 0x20 DUP3 DUP2 ADD MLOAD DUP1 MLOAD PUSH2 0xCDA SWAP3 PUSH1 0x1 DUP6 ADD SWAP3 ADD SWAP1 PUSH2 0x118F JUMP JUMPDEST POP PUSH1 0x40 DUP3 ADD MLOAD PUSH1 0x2 DUP3 ADD SSTORE PUSH1 0x60 SWAP1 SWAP2 ADD MLOAD PUSH1 0x3 SWAP1 SWAP2 ADD SSTORE DUP1 PUSH2 0xCFB DUP2 PUSH2 0x18B2 JUMP JUMPDEST SWAP2 POP POP PUSH2 0xBD2 JUMP JUMPDEST POP POP JUMP JUMPDEST PUSH1 0x1 PUSH1 0x20 MSTORE PUSH1 0x0 SWAP1 DUP2 MSTORE PUSH1 0x40 SWAP1 KECCAK256 DUP1 SLOAD DUP2 SWAP1 PUSH2 0xD22 SWAP1 PUSH2 0x174F JUMP JUMPDEST DUP1 PUSH1 0x1F ADD PUSH1 0x20 DUP1 SWAP2 DIV MUL PUSH1 0x20 ADD PUSH1 0x40 MLOAD SWAP1 DUP2 ADD PUSH1 0x40 MSTORE DUP1 SWAP3 SWAP2 SWAP1 DUP2 DUP2 MSTORE PUSH1 0x20 ADD DUP3 DUP1 SLOAD PUSH2 0xD4E SWAP1 PUSH2 0x174F JUMP JUMPDEST DUP1 ISZERO PUSH2 0xD9B JUMPI DUP1 PUSH1 0x1F LT PUSH2 0xD70 JUMPI PUSH2 0x100 DUP1 DUP4 SLOAD DIV MUL DUP4 MSTORE SWAP2 PUSH1 0x20 ADD SWAP2 PUSH2 0xD9B JUMP JUMPDEST DUP3 ADD SWAP2 SWAP1 PUSH1 0x0 MSTORE PUSH1 0x20 PUSH1 0x0 KECCAK256 SWAP1 JUMPDEST DUP2 SLOAD DUP2 MSTORE SWAP1 PUSH1 0x1 ADD SWAP1 PUSH1 0x20 ADD DUP1 DUP4 GT PUSH2 0xD7E JUMPI DUP3 SWAP1 SUB PUSH1 0x1F AND DUP3 ADD SWAP2 JUMPDEST POP POP POP POP PUSH1 0x1 DUP4 ADD SLOAD PUSH1 0x2 SWAP1 SWAP4 ADD SLOAD SWAP2 SWAP3 SWAP2 PUSH1 0xFF DUP1 DUP3 AND SWAP3 POP PUSH2 0x100 DUP3 DIV DUP2 AND SWAP2 PUSH3 0x10000 SWAP1 DIV AND DUP6 JUMP JUMPDEST PUSH1 0x60 PUSH1 0x4 DUP1 SLOAD DUP1 PUSH1 0x20 MUL PUSH1 0x20 ADD PUSH1 0x40 MLOAD SWAP1 DUP2 ADD PUSH1 0x40 MSTORE DUP1 SWAP3 SWAP2 SWAP1 DUP2 DUP2 MSTORE PUSH1 0x20 ADD PUSH1 0x0 SWAP1 JUMPDEST DUP3 DUP3 LT ISZERO PUSH2 0x5CE JUMPI DUP4 DUP3 SWAP1 PUSH1 0x0 MSTORE PUSH1 0x20 PUSH1 0x0 KECCAK256 SWAP1 PUSH1 0x2 MUL ADD PUSH1 0x40 MLOAD DUP1 PUSH1 0x40 ADD PUSH1 0x40 MSTORE SWAP1 DUP2 PUSH1 0x0 DUP3 ADD DUP1 SLOAD PUSH2 0xE1D SWAP1 PUSH2 0x174F JUMP JUMPDEST DUP1 PUSH1 0x1F ADD PUSH1 0x20 DUP1 SWAP2 DIV MUL PUSH1 0x20 ADD PUSH1 0x40 MLOAD SWAP1 DUP2 ADD PUSH1 0x40 MSTORE DUP1 SWAP3 SWAP2 SWAP1 DUP2 DUP2 MSTORE PUSH1 0x20 ADD DUP3 DUP1 SLOAD PUSH2 0xE49 SWAP1 PUSH2 0x174F JUMP JUMPDEST DUP1 ISZERO PUSH2 0xE96 JUMPI DUP1 PUSH1 0x1F LT PUSH2 0xE6B JUMPI PUSH2 0x100 DUP1 DUP4 SLOAD DIV MUL DUP4 MSTORE SWAP2 PUSH1 0x20 ADD SWAP2 PUSH2 0xE96 JUMP JUMPDEST DUP3 ADD SWAP2 SWAP1 PUSH1 0x0 MSTORE PUSH1 0x20 PUSH1 0x0 KECCAK256 SWAP1 JUMPDEST DUP2 SLOAD DUP2 MSTORE SWAP1 PUSH1 0x1 ADD SWAP1 PUSH1 0x20 ADD DUP1 DUP4 GT PUSH2 0xE79 JUMPI DUP3 SWAP1 SUB PUSH1 0x1F AND DUP3 ADD SWAP2 JUMPDEST POP POP POP POP POP DUP2 MSTORE PUSH1 0x20 ADD PUSH1 0x1 DUP3 ADD SLOAD DUP2 MSTORE POP POP DUP2 MSTORE PUSH1 0x20 ADD SWAP1 PUSH1 0x1 ADD SWAP1 PUSH2 0xDEA JUMP JUMPDEST PUSH1 0x0 DUP1 DUP1 JUMPDEST PUSH1 0x4 SLOAD DUP2 LT ISZERO PUSH2 0xF30 JUMPI DUP2 PUSH1 0x4 DUP3 DUP2 SLOAD DUP2 LT PUSH2 0xEDB JUMPI PUSH2 0xEDB PUSH2 0x170B JUMP JUMPDEST SWAP1 PUSH1 0x0 MSTORE PUSH1 0x20 PUSH1 0x0 KECCAK256 SWAP1 PUSH1 0x2 MUL ADD PUSH1 0x1 ADD SLOAD GT ISZERO PUSH2 0xF1E JUMPI PUSH1 0x4 DUP2 DUP2 SLOAD DUP2 LT PUSH2 0xF06 JUMPI PUSH2 0xF06 PUSH2 0x170B JUMP JUMPDEST SWAP1 PUSH1 0x0 MSTORE PUSH1 0x20 PUSH1 0x0 KECCAK256 SWAP1 PUSH1 0x2 MUL ADD PUSH1 0x1 ADD SLOAD SWAP2 POP DUP1 SWAP3 POP JUMPDEST DUP1 PUSH2 0xF28 DUP2 PUSH2 0x18B2 JUMP JUMPDEST SWAP2 POP POP PUSH2 0xEBD JUMP JUMPDEST POP POP SWAP1 JUMP JUMPDEST PUSH1 0x0 DUP1 DUP1 JUMPDEST PUSH1 0x3 SLOAD DUP2 LT ISZERO PUSH2 0xF30 JUMPI DUP2 PUSH1 0x3 DUP3 DUP2 SLOAD DUP2 LT PUSH2 0xF58 JUMPI PUSH2 0xF58 PUSH2 0x170B JUMP JUMPDEST SWAP1 PUSH1 0x0 MSTORE PUSH1 0x20 PUSH1 0x0 KECCAK256 SWAP1 PUSH1 0x4 MUL ADD PUSH1 0x3 ADD SLOAD GT ISZERO PUSH2 0xF9B JUMPI PUSH1 0x3 DUP2 DUP2 SLOAD DUP2 LT PUSH2 0xF83 JUMPI PUSH2 0xF83 PUSH2 0x170B JUMP JUMPDEST SWAP1 PUSH1 0x0 MSTORE PUSH1 0x20 PUSH1 0x0 KECCAK256 SWAP1 PUSH1 0x4 MUL ADD PUSH1 0x3 ADD SLOAD SWAP2 POP DUP1 SWAP3 POP JUMPDEST DUP1 PUSH2 0xFA5 DUP2 PUSH2 0x18B2 JUMP JUMPDEST SWAP2 POP POP PUSH2 0xF3A JUMP JUMPDEST PUSH1 0x0 SLOAD PUSH1 0x1 PUSH1 0x1 PUSH1 0xA0 SHL SUB AND CALLER EQ PUSH2 0xFD7 JUMPI PUSH1 0x40 MLOAD PUSH3 0x461BCD PUSH1 0xE5 SHL DUP2 MSTORE PUSH1 0x4 ADD PUSH2 0x38F SWAP1 PUSH2 0x18CD JUMP JUMPDEST PUSH1 0x1 PUSH1 0x1 PUSH1 0xA0 SHL SUB DUP4 AND PUSH1 0x0 SWAP1 DUP2 MSTORE PUSH1 0x1 PUSH1 0x20 MSTORE PUSH1 0x40 SWAP1 KECCAK256 PUSH1 0x2 ADD SLOAD PUSH2 0x100 SWAP1 DIV PUSH1 0xFF AND ISZERO DUP1 PUSH2 0x1029 JUMPI POP PUSH1 0x1 PUSH1 0x1 PUSH1 0xA0 SHL SUB DUP4 AND PUSH1 0x0 SWAP1 DUP2 MSTORE PUSH1 0x1 PUSH1 0x20 MSTORE PUSH1 0x40 SWAP1 KECCAK256 PUSH1 0x2 ADD SLOAD PUSH3 0x10000 SWAP1 DIV PUSH1 0xFF AND ISZERO JUMPDEST PUSH2 0x106F JUMPI PUSH1 0x40 MLOAD PUSH3 0x461BCD PUSH1 0xE5 SHL DUP2 MSTORE PUSH1 0x20 PUSH1 0x4 DUP3 ADD MSTORE PUSH1 0x17 PUSH1 0x24 DUP3 ADD MSTORE PUSH23 0x151A19481D9BDD195C88185B1C9958591E481D9BDD1959 PUSH1 0x4A SHL PUSH1 0x44 DUP3 ADD MSTORE PUSH1 0x64 ADD PUSH2 0x38F JUMP JUMPDEST PUSH1 0x1 PUSH1 0x1 PUSH1 0xA0 SHL SUB DUP4 AND PUSH1 0x0 SWAP1 DUP2 MSTORE PUSH1 0x1 PUSH1 0x20 MSTORE PUSH1 0x40 SWAP1 KECCAK256 PUSH1 0x2 ADD SLOAD PUSH1 0xFF AND ISZERO PUSH2 0x10D4 JUMPI PUSH1 0x40 MLOAD PUSH3 0x461BCD PUSH1 0xE5 SHL DUP2 MSTORE PUSH1 0x20 PUSH1 0x4 DUP3 ADD MSTORE PUSH1 0x16 PUSH1 0x24 DUP3 ADD MSTORE PUSH22 0x566F7465722063616E20616C726561647920766F7465 PUSH1 0x50 SHL PUSH1 0x44 DUP3 ADD MSTORE PUSH1 0x64 ADD PUSH2 0x38F JUMP JUMPDEST PUSH1 0x1 PUSH1 0x1 PUSH1 0xA0 SHL SUB DUP4 AND PUSH1 0x0 SWAP1 DUP2 MSTORE PUSH1 0x1 PUSH1 0x20 DUP2 DUP2 MSTORE PUSH1 0x40 SWAP1 SWAP3 KECCAK256 PUSH1 0x2 DUP2 ADD DUP1 SLOAD PUSH1 0xFF NOT AND SWAP1 SWAP3 OR SWAP1 SWAP2 SSTORE DUP4 MLOAD PUSH2 0x110D SWAP3 DUP6 ADD SWAP1 PUSH2 0x118F JUMP JUMPDEST POP PUSH2 0x1117 DUP2 PUSH2 0x5D7 JUMP JUMPDEST PUSH1 0x1 PUSH1 0x1 PUSH1 0xA0 SHL SUB DUP5 AND PUSH1 0x0 DUP2 DUP2 MSTORE PUSH1 0x1 PUSH1 0x20 DUP2 SWAP1 MSTORE PUSH1 0x40 DUP1 DUP4 KECCAK256 SWAP2 DUP3 ADD SWAP5 SWAP1 SWAP5 SSTORE PUSH1 0x2 ADD DUP1 SLOAD PUSH3 0xFFFF00 NOT AND SWAP1 SSTORE SWAP2 MLOAD SWAP1 SWAP2 SWAP1 PUSH6 0x5AF3107A4000 SWAP1 DUP3 DUP2 DUP2 DUP2 DUP6 DUP9 DUP4 CALL SWAP4 POP POP POP POP ISZERO DUP1 ISZERO PUSH2 0x1171 JUMPI RETURNDATASIZE PUSH1 0x0 DUP1 RETURNDATACOPY RETURNDATASIZE PUSH1 0x0 REVERT JUMPDEST POP PUSH1 0x1 PUSH1 0x2 PUSH1 0x0 DUP3 DUP3 SLOAD PUSH2 0x1185 SWAP2 SWAP1 PUSH2 0x1737 JUMP JUMPDEST SWAP1 SWAP2 SSTORE POP POP POP POP POP JUMP JUMPDEST DUP3 DUP1 SLOAD PUSH2 0x119B SWAP1 PUSH2 0x174F JUMP JUMPDEST SWAP1 PUSH1 0x0 MSTORE PUSH1 0x20 PUSH1 0x0 KECCAK256 SWAP1 PUSH1 0x1F ADD PUSH1 0x20 SWAP1 DIV DUP2 ADD SWAP3 DUP3 PUSH2 0x11BD JUMPI PUSH1 0x0 DUP6 SSTORE PUSH2 0x1203 JUMP JUMPDEST DUP3 PUSH1 0x1F LT PUSH2 0x11D6 JUMPI DUP1 MLOAD PUSH1 0xFF NOT AND DUP4 DUP1 ADD OR DUP6 SSTORE PUSH2 0x1203 JUMP JUMPDEST DUP3 DUP1 ADD PUSH1 0x1 ADD DUP6 SSTORE DUP3 ISZERO PUSH2 0x1203 JUMPI SWAP2 DUP3 ADD JUMPDEST DUP3 DUP2 GT ISZERO PUSH2 0x1203 JUMPI DUP3 MLOAD DUP3 SSTORE SWAP2 PUSH1 0x20 ADD SWAP2 SWAP1 PUSH1 0x1 ADD SWAP1 PUSH2 0x11E8 JUMP JUMPDEST POP PUSH2 0x120F SWAP3 SWAP2 POP PUSH2 0x1213 JUMP JUMPDEST POP SWAP1 JUMP JUMPDEST JUMPDEST DUP1 DUP3 GT ISZERO PUSH2 0x120F JUMPI PUSH1 0x0 DUP2 SSTORE PUSH1 0x1 ADD PUSH2 0x1214 JUMP JUMPDEST PUSH1 0x0 PUSH1 0x20 DUP3 DUP5 SUB SLT ISZERO PUSH2 0x123A JUMPI PUSH1 0x0 DUP1 REVERT JUMPDEST POP CALLDATALOAD SWAP2 SWAP1 POP JUMP JUMPDEST PUSH1 0x0 DUP2 MLOAD DUP1 DUP5 MSTORE PUSH1 0x0 JUMPDEST DUP2 DUP2 LT ISZERO PUSH2 0x1267 JUMPI PUSH1 0x20 DUP2 DUP6 ADD DUP2 ADD MLOAD DUP7 DUP4 ADD DUP3 ADD MSTORE ADD PUSH2 0x124B JUMP JUMPDEST DUP2 DUP2 GT ISZERO PUSH2 0x1279 JUMPI PUSH1 0x0 PUSH1 0x20 DUP4 DUP8 ADD ADD MSTORE JUMPDEST POP PUSH1 0x1F ADD PUSH1 0x1F NOT AND SWAP3 SWAP1 SWAP3 ADD PUSH1 0x20 ADD SWAP3 SWAP2 POP POP JUMP JUMPDEST PUSH1 0x0 PUSH1 0x20 DUP1 DUP4 ADD DUP2 DUP5 MSTORE DUP1 DUP6 MLOAD DUP1 DUP4 MSTORE PUSH1 0x40 SWAP3 POP DUP3 DUP7 ADD SWAP2 POP DUP3 DUP2 PUSH1 0x5 SHL DUP8 ADD ADD DUP5 DUP9 ADD PUSH1 0x0 JUMPDEST DUP4 DUP2 LT ISZERO PUSH2 0x131B JUMPI PUSH1 0x3F NOT DUP10 DUP5 SUB ADD DUP6 MSTORE DUP2 MLOAD PUSH1 0x80 DUP2 MLOAD DUP2 DUP7 MSTORE PUSH2 0x12DB DUP3 DUP8 ADD DUP3 PUSH2 0x1241 JUMP JUMPDEST SWAP2 POP POP DUP9 DUP3 ADD MLOAD DUP6 DUP3 SUB DUP11 DUP8 ADD MSTORE PUSH2 0x12F3 DUP3 DUP3 PUSH2 0x1241 JUMP JUMPDEST DUP4 DUP11 ADD MLOAD DUP8 DUP12 ADD MSTORE PUSH1 0x60 SWAP4 DUP5 ADD MLOAD SWAP4 SWAP1 SWAP7 ADD SWAP3 SWAP1 SWAP3 MSTORE POP POP SWAP4 DUP7 ADD SWAP4 SWAP1 DUP7 ADD SWAP1 PUSH1 0x1 ADD PUSH2 0x12B5 JUMP JUMPDEST POP SWAP1 SWAP9 SWAP8 POP POP POP POP POP POP POP POP JUMP JUMPDEST PUSH4 0x4E487B71 PUSH1 0xE0 SHL PUSH1 0x0 MSTORE PUSH1 0x41 PUSH1 0x4 MSTORE PUSH1 0x24 PUSH1 0x0 REVERT JUMPDEST PUSH1 0x40 MLOAD PUSH1 0x60 DUP2 ADD PUSH8 0xFFFFFFFFFFFFFFFF DUP2 GT DUP3 DUP3 LT OR ISZERO PUSH2 0x1362 JUMPI PUSH2 0x1362 PUSH2 0x1329 JUMP JUMPDEST PUSH1 0x40 MSTORE SWAP1 JUMP JUMPDEST PUSH1 0x40 MLOAD PUSH1 0x1F DUP3 ADD PUSH1 0x1F NOT AND DUP2 ADD PUSH8 0xFFFFFFFFFFFFFFFF DUP2 GT DUP3 DUP3 LT OR ISZERO PUSH2 0x1391 JUMPI PUSH2 0x1391 PUSH2 0x1329 JUMP JUMPDEST PUSH1 0x40 MSTORE SWAP2 SWAP1 POP JUMP JUMPDEST PUSH1 0x0 DUP3 PUSH1 0x1F DUP4 ADD SLT PUSH2 0x13AA JUMPI PUSH1 0x0 DUP1 REVERT JUMPDEST DUP2 CALLDATALOAD PUSH8 0xFFFFFFFFFFFFFFFF DUP2 GT ISZERO PUSH2 0x13C4 JUMPI PUSH2 0x13C4 PUSH2 0x1329 JUMP JUMPDEST PUSH2 0x13D7 PUSH1 0x1F DUP3 ADD PUSH1 0x1F NOT AND PUSH1 0x20 ADD PUSH2 0x1368 JUMP JUMPDEST DUP2 DUP2 MSTORE DUP5 PUSH1 0x20 DUP4 DUP7 ADD ADD GT ISZERO PUSH2 0x13EC JUMPI PUSH1 0x0 DUP1 REVERT JUMPDEST DUP2 PUSH1 0x20 DUP6 ADD PUSH1 0x20 DUP4 ADD CALLDATACOPY PUSH1 0x0 SWAP2 DUP2 ADD PUSH1 0x20 ADD SWAP2 SWAP1 SWAP2 MSTORE SWAP4 SWAP3 POP POP POP JUMP JUMPDEST PUSH1 0x0 PUSH1 0x20 DUP3 DUP5 SUB SLT ISZERO PUSH2 0x141B JUMPI PUSH1 0x0 DUP1 REVERT JUMPDEST DUP2 CALLDATALOAD PUSH8 0xFFFFFFFFFFFFFFFF DUP2 GT ISZERO PUSH2 0x1432 JUMPI PUSH1 0x0 DUP1 REVERT JUMPDEST PUSH2 0x143E DUP5 DUP3 DUP6 ADD PUSH2 0x1399 JUMP JUMPDEST SWAP5 SWAP4 POP POP POP POP JUMP JUMPDEST PUSH1 0x80 DUP2 MSTORE PUSH1 0x0 PUSH2 0x1459 PUSH1 0x80 DUP4 ADD DUP8 PUSH2 0x1241 JUMP JUMPDEST DUP3 DUP2 SUB PUSH1 0x20 DUP5 ADD MSTORE PUSH2 0x146B DUP2 DUP8 PUSH2 0x1241 JUMP JUMPDEST PUSH1 0x40 DUP5 ADD SWAP6 SWAP1 SWAP6 MSTORE POP POP PUSH1 0x60 ADD MSTORE SWAP3 SWAP2 POP POP JUMP JUMPDEST PUSH1 0x1 PUSH1 0x1 PUSH1 0xA0 SHL SUB DUP2 AND DUP2 EQ PUSH2 0x1494 JUMPI PUSH1 0x0 DUP1 REVERT JUMPDEST POP JUMP JUMPDEST PUSH1 0x0 PUSH1 0x20 DUP3 DUP5 SUB SLT ISZERO PUSH2 0x14A9 JUMPI PUSH1 0x0 DUP1 REVERT JUMPDEST DUP2 CALLDATALOAD PUSH2 0x14B4 DUP2 PUSH2 0x147F JUMP JUMPDEST SWAP4 SWAP3 POP POP POP JUMP JUMPDEST PUSH1 0x40 DUP2 MSTORE PUSH1 0x0 PUSH2 0x14CE PUSH1 0x40 DUP4 ADD DUP6 PUSH2 0x1241 JUMP JUMPDEST SWAP1 POP DUP3 PUSH1 0x20 DUP4 ADD MSTORE SWAP4 SWAP3 POP POP POP JUMP JUMPDEST PUSH1 0x0 PUSH1 0x20 DUP1 DUP4 DUP6 SUB SLT ISZERO PUSH2 0x14F0 JUMPI PUSH1 0x0 DUP1 REVERT JUMPDEST PUSH8 0xFFFFFFFFFFFFFFFF DUP1 DUP5 CALLDATALOAD GT ISZERO PUSH2 0x1507 JUMPI PUSH1 0x0 DUP1 REVERT JUMPDEST DUP4 CALLDATALOAD DUP5 ADD DUP6 PUSH1 0x1F DUP3 ADD SLT PUSH2 0x151A JUMPI PUSH1 0x0 DUP1 REVERT JUMPDEST DUP1 CALLDATALOAD DUP3 DUP2 GT ISZERO PUSH2 0x152C JUMPI PUSH2 0x152C PUSH2 0x1329 JUMP JUMPDEST DUP1 PUSH1 0x5 SHL PUSH2 0x153B DUP6 DUP3 ADD PUSH2 0x1368 JUMP JUMPDEST SWAP2 DUP3 MSTORE DUP3 DUP2 ADD DUP6 ADD SWAP2 DUP6 DUP2 ADD SWAP1 DUP10 DUP5 GT ISZERO PUSH2 0x1555 JUMPI PUSH1 0x0 DUP1 REVERT JUMPDEST DUP7 DUP6 ADD SWAP3 POP JUMPDEST DUP4 DUP4 LT ISZERO PUSH2 0x15E7 JUMPI DUP6 DUP4 CALLDATALOAD GT ISZERO PUSH2 0x1571 JUMPI PUSH1 0x0 DUP1 REVERT JUMPDEST DUP3 CALLDATALOAD DUP6 ADD DUP11 PUSH1 0x3F DUP3 ADD SLT PUSH2 0x1584 JUMPI PUSH1 0x0 DUP1 REVERT JUMPDEST PUSH2 0x158C PUSH2 0x133F JUMP JUMPDEST DUP1 PUSH1 0x80 DUP4 ADD DUP14 DUP2 GT ISZERO PUSH2 0x159E JUMPI PUSH1 0x0 DUP1 REVERT JUMPDEST DUP11 DUP5 ADD JUMPDEST DUP2 DUP2 LT ISZERO PUSH2 0x15D4 JUMPI DUP11 DUP2 CALLDATALOAD GT ISZERO PUSH2 0x15B8 JUMPI PUSH1 0x0 DUP1 REVERT JUMPDEST PUSH2 0x15C7 DUP16 DUP14 DUP4 CALLDATALOAD DUP9 ADD ADD PUSH2 0x1399 JUMP JUMPDEST DUP5 MSTORE SWAP3 DUP12 ADD SWAP3 DUP12 ADD PUSH2 0x15A2 JUMP JUMPDEST POP POP DUP5 MSTORE POP POP SWAP2 DUP7 ADD SWAP2 SWAP1 DUP7 ADD SWAP1 PUSH2 0x155B JUMP JUMPDEST SWAP10 SWAP9 POP POP POP POP POP POP POP POP POP JUMP JUMPDEST PUSH1 0xA0 DUP2 MSTORE PUSH1 0x0 PUSH2 0x1607 PUSH1 0xA0 DUP4 ADD DUP9 PUSH2 0x1241 JUMP JUMPDEST PUSH1 0x20 DUP4 ADD SWAP7 SWAP1 SWAP7 MSTORE POP SWAP3 ISZERO ISZERO PUSH1 0x40 DUP5 ADD MSTORE SWAP1 ISZERO ISZERO PUSH1 0x60 DUP4 ADD MSTORE ISZERO ISZERO PUSH1 0x80 SWAP1 SWAP2 ADD MSTORE SWAP2 SWAP1 POP JUMP JUMPDEST PUSH1 0x0 PUSH1 0x20 DUP1 DUP4 ADD DUP2 DUP5 MSTORE DUP1 DUP6 MLOAD DUP1 DUP4 MSTORE PUSH1 0x40 SWAP3 POP DUP3 DUP7 ADD SWAP2 POP DUP3 DUP2 PUSH1 0x5 SHL DUP8 ADD ADD DUP5 DUP9 ADD PUSH1 0x0 JUMPDEST DUP4 DUP2 LT ISZERO PUSH2 0x131B JUMPI DUP9 DUP4 SUB PUSH1 0x3F NOT ADD DUP6 MSTORE DUP2 MLOAD DUP1 MLOAD DUP8 DUP6 MSTORE PUSH2 0x1678 DUP9 DUP7 ADD DUP3 PUSH2 0x1241 JUMP JUMPDEST SWAP2 DUP10 ADD MLOAD SWAP5 DUP10 ADD SWAP5 SWAP1 SWAP5 MSTORE SWAP5 DUP8 ADD SWAP5 SWAP3 POP SWAP1 DUP7 ADD SWAP1 PUSH1 0x1 ADD PUSH2 0x1654 JUMP JUMPDEST PUSH1 0x0 DUP1 PUSH1 0x0 PUSH1 0x60 DUP5 DUP7 SUB SLT ISZERO PUSH2 0x16AA JUMPI PUSH1 0x0 DUP1 REVERT JUMPDEST DUP4 CALLDATALOAD PUSH2 0x16B5 DUP2 PUSH2 0x147F JUMP JUMPDEST SWAP3 POP PUSH1 0x20 DUP5 ADD CALLDATALOAD PUSH8 0xFFFFFFFFFFFFFFFF DUP1 DUP3 GT ISZERO PUSH2 0x16D2 JUMPI PUSH1 0x0 DUP1 REVERT JUMPDEST PUSH2 0x16DE DUP8 DUP4 DUP9 ADD PUSH2 0x1399 JUMP JUMPDEST SWAP4 POP PUSH1 0x40 DUP7 ADD CALLDATALOAD SWAP2 POP DUP1 DUP3 GT ISZERO PUSH2 0x16F4 JUMPI PUSH1 0x0 DUP1 REVERT JUMPDEST POP PUSH2 0x1701 DUP7 DUP3 DUP8 ADD PUSH2 0x1399 JUMP JUMPDEST SWAP2 POP POP SWAP3 POP SWAP3 POP SWAP3 JUMP JUMPDEST PUSH4 0x4E487B71 PUSH1 0xE0 SHL PUSH1 0x0 MSTORE PUSH1 0x32 PUSH1 0x4 MSTORE PUSH1 0x24 PUSH1 0x0 REVERT JUMPDEST PUSH4 0x4E487B71 PUSH1 0xE0 SHL PUSH1 0x0 MSTORE PUSH1 0x11 PUSH1 0x4 MSTORE PUSH1 0x24 PUSH1 0x0 REVERT JUMPDEST PUSH1 0x0 DUP3 NOT DUP3 GT ISZERO PUSH2 0x174A JUMPI PUSH2 0x174A PUSH2 0x1721 JUMP JUMPDEST POP ADD SWAP1 JUMP JUMPDEST PUSH1 0x1 DUP2 DUP2 SHR SWAP1 DUP3 AND DUP1 PUSH2 0x1763 JUMPI PUSH1 0x7F DUP3 AND SWAP2 POP JUMPDEST PUSH1 0x20 DUP3 LT DUP2 EQ ISZERO PUSH2 0x1784 JUMPI PUSH4 0x4E487B71 PUSH1 0xE0 SHL PUSH1 0x0 MSTORE PUSH1 0x22 PUSH1 0x4 MSTORE PUSH1 0x24 PUSH1 0x0 REVERT JUMPDEST POP SWAP2 SWAP1 POP JUMP JUMPDEST PUSH1 0x0 DUP3 DUP3 LT ISZERO PUSH2 0x179C JUMPI PUSH2 0x179C PUSH2 0x1721 JUMP JUMPDEST POP SUB SWAP1 JUMP JUMPDEST PUSH1 0x1 DUP2 DUP2 JUMPDEST DUP1 DUP6 GT ISZERO PUSH2 0x17DC JUMPI DUP2 PUSH1 0x0 NOT DIV DUP3 GT ISZERO PUSH2 0x17C2 JUMPI PUSH2 0x17C2 PUSH2 0x1721 JUMP JUMPDEST DUP1 DUP6 AND ISZERO PUSH2 0x17CF JUMPI SWAP2 DUP2 MUL SWAP2 JUMPDEST SWAP4 DUP5 SHR SWAP4 SWAP1 DUP1 MUL SWAP1 PUSH2 0x17A6 JUMP JUMPDEST POP SWAP3 POP SWAP3 SWAP1 POP JUMP JUMPDEST PUSH1 0x0 DUP3 PUSH2 0x17F3 JUMPI POP PUSH1 0x1 PUSH2 0x1881 JUMP JUMPDEST DUP2 PUSH2 0x1800 JUMPI POP PUSH1 0x0 PUSH2 0x1881 JUMP JUMPDEST DUP2 PUSH1 0x1 DUP2 EQ PUSH2 0x1816 JUMPI PUSH1 0x2 DUP2 EQ PUSH2 0x1820 JUMPI PUSH2 0x183C JUMP JUMPDEST PUSH1 0x1 SWAP2 POP POP PUSH2 0x1881 JUMP JUMPDEST PUSH1 0xFF DUP5 GT ISZERO PUSH2 0x1831 JUMPI PUSH2 0x1831 PUSH2 0x1721 JUMP JUMPDEST POP POP PUSH1 0x1 DUP3 SHL PUSH2 0x1881 JUMP JUMPDEST POP PUSH1 0x20 DUP4 LT PUSH2 0x133 DUP4 LT AND PUSH1 0x4E DUP5 LT PUSH1 0xB DUP5 LT AND OR ISZERO PUSH2 0x185F JUMPI POP DUP2 DUP2 EXP PUSH2 0x1881 JUMP JUMPDEST PUSH2 0x1869 DUP4 DUP4 PUSH2 0x17A1 JUMP JUMPDEST DUP1 PUSH1 0x0 NOT DIV DUP3 GT ISZERO PUSH2 0x187D JUMPI PUSH2 0x187D PUSH2 0x1721 JUMP JUMPDEST MUL SWAP1 POP JUMPDEST SWAP3 SWAP2 POP POP JUMP JUMPDEST PUSH1 0x0 PUSH2 0x14B4 DUP4 DUP4 PUSH2 0x17E4 JUMP JUMPDEST PUSH1 0x0 DUP2 PUSH1 0x0 NOT DIV DUP4 GT DUP3 ISZERO ISZERO AND ISZERO PUSH2 0x18AD JUMPI PUSH2 0x18AD PUSH2 0x1721 JUMP JUMPDEST POP MUL SWAP1 JUMP JUMPDEST PUSH1 0x0 PUSH1 0x0 NOT DUP3 EQ ISZERO PUSH2 0x18C6 JUMPI PUSH2 0x18C6 PUSH2 0x1721 JUMP JUMPDEST POP PUSH1 0x1 ADD SWAP1 JUMP JUMPDEST PUSH1 0x20 DUP1 DUP3 MSTORE PUSH1 0x28 SWAP1 DUP3 ADD MSTORE PUSH32 0x4F6E6C792063686169726D616E2063616E206769766520746865207269676874 PUSH1 0x40 DUP3 ADD MSTORE PUSH8 0x20746F20766F7465 PUSH1 0xC0 SHL PUSH1 0x60 DUP3 ADD MSTORE PUSH1 0x80 ADD SWAP1 JUMP INVALID LOG2 PUSH5 0x6970667358 0x22 SLT KECCAK256 0x1E 0xB6 0x2A 0xC PUSH15 0xEF37ED36F34E33D9A36A833F9FA783 SWAP5 0x23 SWAP12 0xE3 PUSH6 0x552CC988DDC5 SSTORE PUSH5 0x736F6C6343 STOP ADDMOD 0xC STOP CALLER ",
  "sha1": "65ea943b4e0bfa3e340cc152e8debac4f9d5f909",
  "source": "// SPDX-License-Identifier: GPL-3.0\npragma solidity >=0.7.0 <0.9.0;\npragma abicoder v2;\n\ncontract Voting {\n    struct Voter {\n        string id;\n        uint256 area;\n        bool canVote;\n        bool votedForCandidate;\n        bool votedForParty;\n    }\n\n    struct Party {\n        string name;\n        uint256 voteCount;\n    }\n\n    struct Candidate {\n        string name;\n        string party;\n        uint256 area;\n        uint256 voteCount;\n    }\n\n    address public chairperson;\n    mapping(address => Voter) public voters;\n    uint256 voter_count = 0;\n    Candidate[] public candidates;\n    Party[] public parties;\n\n    constructor(\n        string[3][] memory candidateNamesParty,\n        string[] memory partyNames\n    ) payable {\n        chairperson = msg.sender;\n        voters[chairperson].canVote = true;\n        for (uint256 i = 0; i < candidateNamesParty.length; i++) {\n            candidates.push(\n                Candidate({\n                    name: candidateNamesParty[i][0],\n                    party: candidateNamesParty[i][1],\n                    area: stringToUint(candidateNamesParty[i][2]),\n                    voteCount: 0\n                })\n            );\n        }\n        for (uint256 i = 0; i < partyNames.length; i++) {\n            parties.push(Party({name: partyNames[i], voteCount: 0}));\n        }\n        voter_count += 1;\n    }\n\n    function stringToUint(string memory numString)\n        public\n        pure\n        returns (uint256)\n    {\n        uint256 val = 0;\n        bytes memory stringBytes = bytes(numString);\n        for (uint256 i = 0; i < stringBytes.length; i++) {\n            uint256 exp = stringBytes.length - i;\n            bytes1 ival = stringBytes[i];\n            uint8 uval = uint8(ival);\n            uint256 jval = uval - uint256(0x30);\n\n            val += (uint256(jval) * (10**(exp - 1)));\n        }\n        return val;\n    }\n\n    function addCandidates(string[3][] memory candidateNamesParty) external {\n        require(\n            msg.sender == chairperson,\n            \"Only chairman can give the right to vote\"\n        );\n        for (uint256 i = 0; i < candidateNamesParty.length; i++) {\n            candidates.push(\n                Candidate({\n                    name: candidateNamesParty[i][0],\n                    party: candidateNamesParty[i][1],\n                    area: stringToUint(candidateNamesParty[i][2]),\n                    voteCount: 0\n                })\n            );\n        }\n    }\n\n    function getCandidates() public view returns (Candidate[] memory) {\n        return candidates;\n    }\n\n    function getParties() public view returns (Party[] memory) {\n        return parties;\n    }\n\n    function giveRightToVote(\n        address payable voter,\n        string memory id,\n        string memory area\n    ) external {\n        require(\n            msg.sender == chairperson,\n            \"Only chairman can give the right to vote\"\n        );\n        require(\n            !voters[voter].votedForCandidate || !voters[voter].votedForParty,\n            \"The voter already voted\"\n        );\n        require(!voters[voter].canVote, \"Voter can already vote\");\n        voters[voter].canVote = true;\n        voters[voter].id = id;\n        voters[voter].area = stringToUint(area);\n        voters[voter].votedForCandidate = false;\n        voters[voter].votedForParty = false;\n        voter.transfer(100000000000000);\n        voter_count += 1;\n    }\n\n    function removeRightToVote(address voter) external {\n        require(\n            msg.sender == chairperson,\n            \"Only chairman can give denounce right to vote\"\n        );\n        require(\n            !voters[voter].votedForCandidate || !voters[voter].votedForParty,\n            \"The voter already voted\"\n        );\n        require(voters[voter].canVote, \"Voter doesn't have right to vote\");\n        voters[voter].canVote = false;\n        voter_count -= 1;\n    }\n\n    function voteCandidate(uint256 candidate) external {\n        Voter storage sender = voters[msg.sender];\n        require(sender.canVote, \"Has no right to vote\");\n        require(!sender.votedForCandidate, \"already voted for candidate\");\n        require(\n            sender.area == candidates[candidate].area,\n            \"cannot vote candidate in this area\"\n        );\n        candidates[candidate].voteCount += 1;\n        sender.votedForCandidate = true;\n    }\n\n    function voteParty(uint256 party) external {\n        Voter storage sender = voters[msg.sender];\n        require(sender.canVote, \"Has no right to vote\");\n        require(!sender.votedForParty, \"already voted for party\");\n        parties[party].voteCount += 1;\n        sender.votedForCandidate = true;\n    }\n\n    function winningCandidate()\n        public\n        view\n        returns (uint256 winningCandidate_)\n    {\n        uint256 winningVoteCount = 0;\n        for (uint256 i = 0; i < candidates.length; i++) {\n            if (candidates[i].voteCount > winningVoteCount) {\n                winningVoteCount = candidates[i].voteCount;\n                winningCandidate_ = i;\n            }\n        }\n    }\n\n    function winningParty() public view returns (uint256 winningParty_) {\n        uint256 winningVoteCount = 0;\n        for (uint256 i = 0; i < parties.length; i++) {\n            if (parties[i].voteCount > winningVoteCount) {\n                winningVoteCount = parties[i].voteCount;\n                winningParty_ = i;\n            }\n        }\n    }\n\n    function voters_count() public view returns (uint256) {\n        return voter_count;\n    }\n\n    function fund() public payable {}\n\n    function get_balance() public view returns (uint256) {\n        return address(this).balance;\n    }\n}\n",
  "sourcePath": "contracts/Voting.sol",
  "type": "contract"
}