{
  "abi": [
    {
      "inputs": [
        {
          "internalType": "string[4][]",
          "name": "candidateNamesParty",
          "type": "string[4][]"
        },
        {
          "internalType": "string[]",
          "name": "partyNames",
          "type": "string[]"
        }
      ],
      "stateMutability": "payable",
      "type": "constructor"
    },
    {
      "inputs": [],
      "name": "candidate_vote_count",
      "outputs": [
        {
          "internalType": "uint256",
          "name": "",
          "type": "uint256"
        }
      ],
      "stateMutability": "view",
      "type": "function"
    },
    {
      "inputs": [
        {
          "internalType": "uint256",
          "name": "",
          "type": "uint256"
        }
      ],
      "name": "candidates",
      "outputs": [
        {
          "internalType": "uint256",
          "name": "id",
          "type": "uint256"
        },
        {
          "internalType": "string",
          "name": "name",
          "type": "string"
        },
        {
          "internalType": "string",
          "name": "party",
          "type": "string"
        },
        {
          "internalType": "uint256",
          "name": "area",
          "type": "uint256"
        },
        {
          "internalType": "uint256",
          "name": "voteCount",
          "type": "uint256"
        }
      ],
      "stateMutability": "view",
      "type": "function"
    },
    {
      "inputs": [],
      "name": "chairperson",
      "outputs": [
        {
          "internalType": "address",
          "name": "",
          "type": "address"
        }
      ],
      "stateMutability": "view",
      "type": "function"
    },
    {
      "inputs": [],
      "name": "fund",
      "outputs": [],
      "stateMutability": "payable",
      "type": "function"
    },
    {
      "inputs": [
        {
          "internalType": "uint256",
          "name": "area",
          "type": "uint256"
        }
      ],
      "name": "getCandidates",
      "outputs": [
        {
          "components": [
            {
              "internalType": "uint256",
              "name": "id",
              "type": "uint256"
            },
            {
              "internalType": "string",
              "name": "name",
              "type": "string"
            },
            {
              "internalType": "string",
              "name": "party",
              "type": "string"
            },
            {
              "internalType": "uint256",
              "name": "area",
              "type": "uint256"
            },
            {
              "internalType": "uint256",
              "name": "voteCount",
              "type": "uint256"
            }
          ],
          "internalType": "struct Voting.Candidate[]",
          "name": "",
          "type": "tuple[]"
        }
      ],
      "stateMutability": "view",
      "type": "function"
    },
    {
      "inputs": [],
      "name": "getParties",
      "outputs": [
        {
          "components": [
            {
              "internalType": "string",
              "name": "name",
              "type": "string"
            },
            {
              "internalType": "uint256",
              "name": "voteCount",
              "type": "uint256"
            }
          ],
          "internalType": "struct Voting.Party[]",
          "name": "",
          "type": "tuple[]"
        }
      ],
      "stateMutability": "view",
      "type": "function"
    },
    {
      "inputs": [],
      "name": "get_balance",
      "outputs": [
        {
          "internalType": "uint256",
          "name": "",
          "type": "uint256"
        }
      ],
      "stateMutability": "view",
      "type": "function"
    },
    {
      "inputs": [
        {
          "internalType": "address payable",
          "name": "voter",
          "type": "address"
        },
        {
          "internalType": "string",
          "name": "id",
          "type": "string"
        },
        {
          "internalType": "string",
          "name": "area",
          "type": "string"
        }
      ],
      "name": "giveRightToVote",
      "outputs": [],
      "stateMutability": "nonpayable",
      "type": "function"
    },
    {
      "inputs": [],
      "name": "is_open",
      "outputs": [
        {
          "internalType": "bool",
          "name": "state",
          "type": "bool"
        }
      ],
      "stateMutability": "view",
      "type": "function"
    },
    {
      "inputs": [
        {
          "internalType": "uint256",
          "name": "",
          "type": "uint256"
        }
      ],
      "name": "parties",
      "outputs": [
        {
          "internalType": "string",
          "name": "name",
          "type": "string"
        },
        {
          "internalType": "uint256",
          "name": "voteCount",
          "type": "uint256"
        }
      ],
      "stateMutability": "view",
      "type": "function"
    },
    {
      "inputs": [],
      "name": "party_vote_count",
      "outputs": [
        {
          "internalType": "uint256",
          "name": "",
          "type": "uint256"
        }
      ],
      "stateMutability": "view",
      "type": "function"
    },
    {
      "inputs": [
        {
          "internalType": "address",
          "name": "voter",
          "type": "address"
        }
      ],
      "name": "removeRightToVote",
      "outputs": [],
      "stateMutability": "nonpayable",
      "type": "function"
    },
    {
      "inputs": [],
      "name": "startElection",
      "outputs": [],
      "stateMutability": "nonpayable",
      "type": "function"
    },
    {
      "inputs": [
        {
          "internalType": "string",
          "name": "numString",
          "type": "string"
        }
      ],
      "name": "stringToUint",
      "outputs": [
        {
          "internalType": "uint256",
          "name": "",
          "type": "uint256"
        }
      ],
      "stateMutability": "pure",
      "type": "function"
    },
    {
      "inputs": [
        {
          "internalType": "uint256",
          "name": "candidateId",
          "type": "uint256"
        }
      ],
      "name": "voteCandidate",
      "outputs": [],
      "stateMutability": "nonpayable",
      "type": "function"
    },
    {
      "inputs": [
        {
          "internalType": "uint256",
          "name": "party",
          "type": "uint256"
        }
      ],
      "name": "voteParty",
      "outputs": [],
      "stateMutability": "nonpayable",
      "type": "function"
    },
    {
      "inputs": [],
      "name": "voter_count",
      "outputs": [
        {
          "internalType": "uint256",
          "name": "",
          "type": "uint256"
        }
      ],
      "stateMutability": "view",
      "type": "function"
    },
    {
      "inputs": [
        {
          "internalType": "address",
          "name": "",
          "type": "address"
        }
      ],
      "name": "voters",
      "outputs": [
        {
          "internalType": "string",
          "name": "id",
          "type": "string"
        },
        {
          "internalType": "uint256",
          "name": "area",
          "type": "uint256"
        },
        {
          "internalType": "bool",
          "name": "canVote",
          "type": "bool"
        },
        {
          "internalType": "bool",
          "name": "votedForCandidate",
          "type": "bool"
        },
        {
          "internalType": "bool",
          "name": "votedForParty",
          "type": "bool"
        }
      ],
      "stateMutability": "view",
      "type": "function"
    },
    {
      "inputs": [],
      "name": "voting_state",
      "outputs": [
        {
          "internalType": "enum Voting.VOTING_STATE",
          "name": "",
          "type": "uint8"
        }
      ],
      "stateMutability": "view",
      "type": "function"
    },
    {
      "inputs": [
        {
          "internalType": "uint256",
          "name": "area",
          "type": "uint256"
        }
      ],
      "name": "winningCandidate",
      "outputs": [
        {
          "components": [
            {
              "internalType": "uint256",
              "name": "id",
              "type": "uint256"
            },
            {
              "internalType": "string",
              "name": "name",
              "type": "string"
            },
            {
              "internalType": "string",
              "name": "party",
              "type": "string"
            },
            {
              "internalType": "uint256",
              "name": "area",
              "type": "uint256"
            },
            {
              "internalType": "uint256",
              "name": "voteCount",
              "type": "uint256"
            }
          ],
          "internalType": "struct Voting.Candidate",
          "name": "winningCandidate_",
          "type": "tuple"
        }
      ],
      "stateMutability": "view",
      "type": "function"
    },
    {
      "inputs": [],
      "name": "winningParty",
      "outputs": [
        {
          "components": [
            {
              "internalType": "string",
              "name": "name",
              "type": "string"
            },
            {
              "internalType": "uint256",
              "name": "voteCount",
              "type": "uint256"
            }
          ],
          "internalType": "struct Voting.Party",
          "name": "winningParty_",
          "type": "tuple"
        }
      ],
      "stateMutability": "view",
      "type": "function"
    }
  ],
  "bytecode": "6080604052600060045560006005556000600655604051620026753803806200267583398101604081905262000035916200061a565b60008054610100338102610100600160a81b031990921691909117808355046001600160a01b031681526001602081905260408220600201805460ff191690911790555b825181101562000224576000620000c68483815181106200009e576200009e62000763565b6020026020010151600360048110620000bb57620000bb62000763565b6020020151620002dc565b9050600062000100858481518110620000e357620000e362000763565b6020026020010151600060048110620000bb57620000bb62000763565b905060026040518060a001604052808381526020018786815181106200012a576200012a62000763565b602002602001015160016004811062000147576200014762000763565b6020020151815260200187868151811062000166576200016662000763565b602002602001015160026004811062000183576200018362000763565b6020908102919091015182528181018690526000604090920182905283546001818101865594835291819020835160059093020191825582810151805193949293620001d7938501929190910190620003ab565b5060408201518051620001f5916002840191602090910190620003ab565b5060608201518160030155608082015181600401555050505080806200021b906200078f565b91505062000079565b5060005b8151811015620002b8576003604051806040016040528084848151811062000254576200025462000763565b6020908102919091018101518252600091810182905283546001810185559382529081902082518051939460020290910192620002959284920190620003ab565b506020820151816001015550508080620002af906200078f565b91505062000228565b50600160066000828254620002ce9190620007ad565b909155506200095592505050565b60008082815b8151811015620003a2576000818351620002fd9190620007c8565b9050600083838151811062000316576200031662000763565b01602001517fff000000000000000000000000000000000000000000000000000000000000008116915060f81c600062000352603083620007c8565b905062000361600185620007c8565b6200036e90600a620008e1565b6200037a9082620008f6565b620003869088620007ad565b965050505050808062000399906200078f565b915050620002e2565b50909392505050565b828054620003b99062000918565b90600052602060002090601f016020900481019282620003dd576000855562000428565b82601f10620003f857805160ff191683800117855562000428565b8280016001018555821562000428579182015b82811115620004285782518255916020019190600101906200040b565b50620004369291506200043a565b5090565b5b808211156200043657600081556001016200043b565b634e487b7160e01b600052604160045260246000fd5b604051608081016001600160401b03811182821017156200048c576200048c62000451565b60405290565b604051601f8201601f191681016001600160401b0381118282101715620004bd57620004bd62000451565b604052919050565b60006001600160401b03821115620004e157620004e162000451565b5060051b60200190565b600082601f830112620004fd57600080fd5b81516001600160401b0381111562000519576200051962000451565b60206200052f601f8301601f1916820162000492565b82815285828487010111156200054457600080fd5b60005b838110156200056457858101830151828201840152820162000547565b83811115620005765760008385840101525b5095945050505050565b600082601f8301126200059257600080fd5b81516020620005ab620005a583620004c5565b62000492565b82815260059290921b84018101918181019086841115620005cb57600080fd5b8286015b848110156200060f5780516001600160401b03811115620005f05760008081fd5b620006008986838b0101620004eb565b845250918301918301620005cf565b509695505050505050565b600080604083850312156200062e57600080fd5b82516001600160401b03808211156200064657600080fd5b818501915085601f8301126200065b57600080fd5b81516200066c620005a582620004c5565b8082825260208201915060208360051b8601019250888311156200068f57600080fd5b602085015b838110156200072f57805185811115620006ad57600080fd5b8601603f81018b13620006bf57600080fd5b620006c962000467565b808c60a084011115620006db57600080fd5b602083015b60a084018110156200071d57805189811115620006fc57600080fd5b6200070d8f602083880101620004eb565b84525060209283019201620006e0565b50855250506020928301920162000694565b50602088015190965093505050808211156200074a57600080fd5b50620007598582860162000580565b9150509250929050565b634e487b7160e01b600052603260045260246000fd5b634e487b7160e01b600052601160045260246000fd5b6000600019821415620007a657620007a662000779565b5060010190565b60008219821115620007c357620007c362000779565b500190565b600082821015620007dd57620007dd62000779565b500390565b600181815b808511156200082357816000190482111562000807576200080762000779565b808516156200081557918102915b93841c9390800290620007e7565b509250929050565b6000826200083c57506001620008db565b816200084b57506000620008db565b81600181146200086457600281146200086f576200088f565b6001915050620008db565b60ff84111562000883576200088362000779565b50506001821b620008db565b5060208310610133831016604e8410600b8410161715620008b4575081810a620008db565b620008c08383620007e2565b8060001904821115620008d757620008d762000779565b0290505b92915050565b6000620008ef83836200082b565b9392505050565b600081600019048311821515161562000913576200091362000779565b500290565b600181811c908216806200092d57607f821691505b602082108114156200094f57634e487b7160e01b600052602260045260246000fd5b50919050565b611d1080620009656000396000f3fe60806040526004361061012a5760003560e01c80638c08a4dc116100ab578063b60d42881161006f578063b60d42881461014f578063b82e1bb21461036a578063beb604e014610397578063c1cfb99a146103ad578063d659d968146103c0578063f972c1c4146103e557600080fd5b80638c08a4dc146102ae578063938d0d0f146102ce578063a3ec138d146102f5578063a8311aa814610326578063ae315fe41461034857600080fd5b80633e39a7a5116100f25780633e39a7a51461020857806362d73eb814610235578063685a9dd81461024a5780636dfbeb5a1461026a57806370651a181461028057600080fd5b806304cee9b31461012f57806318ca28c6146101515780631bd951551461017a5780632e4176cf1461019a5780633477ee2e146101d7575b600080fd5b34801561013b57600080fd5b5061014f61014a3660046116b1565b610405565b005b34801561015d57600080fd5b5061016760045481565b6040519081526020015b60405180910390f35b34801561018657600080fd5b5061016761019536600461176d565b610526565b3480156101a657600080fd5b506000546101bf9061010090046001600160a01b031681565b6040516001600160a01b039091168152602001610171565b3480156101e357600080fd5b506101f76101f23660046116b1565b6105ca565b6040516101719594939291906117f7565b34801561021457600080fd5b506102286102233660046116b1565b61071c565b6040516101719190611890565b34801561024157600080fd5b5061014f610a7c565b34801561025657600080fd5b5061014f61026536600461190a565b610b1d565b34801561027657600080fd5b5061016760055481565b34801561028c57600080fd5b506102a061029b3660046116b1565b610c8f565b60405161017192919061192e565b3480156102ba57600080fd5b5061014f6102c93660046116b1565b610d4b565b3480156102da57600080fd5b506000546102e89060ff1681565b6040516101719190611966565b34801561030157600080fd5b5061031561031036600461190a565b610f40565b60405161017195949392919061198e565b34801561033257600080fd5b5061033b610fff565b60405161017191906119f0565b34801561035457600080fd5b5061035d6110fa565b6040516101719190611a45565b34801561037657600080fd5b5061038a6103853660046116b1565b61131e565b6040516101719190611a58565b3480156103a357600080fd5b5061016760065481565b3480156103b957600080fd5b5047610167565b3480156103cc57600080fd5b506103d5611404565b6040519015158152602001610171565b3480156103f157600080fd5b5061014f610400366004611a6b565b611430565b336000908152600160205260409020600281015460ff166104645760405162461bcd60e51b8152602060048201526014602482015273486173206e6f20726967687420746f20766f746560601b60448201526064015b60405180910390fd5b600281015462010000900460ff16156104bf5760405162461bcd60e51b815260206004820152601760248201527f616c726561647920766f74656420666f72207061727479000000000000000000604482015260640161045b565b6001600383815481106104d4576104d4611ae1565b906000526020600020906002020160010160008282546104f49190611b0d565b9250508190555060016004600082825461050e9190611b0d565b9091555050600201805461ff00191661010017905550565b60008082815b81518110156105c15760008183516105449190611b25565b9050600083838151811061055a5761055a611ae1565b01602001516001600160f81b03198116915060f81c600061057c603083611b25565b9050610589600185611b25565b61059490600a611c22565b61059e9082611c2e565b6105a89088611b0d565b96505050505080806105b990611c4d565b91505061052c565b50909392505050565b600281815481106105da57600080fd5b600091825260209091206005909102018054600182018054919350906105ff90611c68565b80601f016020809104026020016040519081016040528092919081815260200182805461062b90611c68565b80156106785780601f1061064d57610100808354040283529160200191610678565b820191906000526020600020905b81548152906001019060200180831161065b57829003601f168201915b50505050509080600201805461068d90611c68565b80601f01602080910402602001604051908101604052809291908181526020018280546106b990611c68565b80156107065780601f106106db57610100808354040283529160200191610706565b820191906000526020600020905b8154815290600101906020018083116106e957829003601f168201915b5050505050908060030154908060040154905085565b6002546060908061076f5760405162461bcd60e51b815260206004820152601860248201527f4e6f2063616e6469646174657320726567697374657265640000000000000000604482015260640161045b565b6000805b828110156107c757846002828154811061078f5761078f611ae1565b90600052602060002090600502016003015414156107b5576107b2600183611b0d565b91505b806107bf81611c4d565b915050610773565b506000811161080e5760405162461bcd60e51b8152602060048201526013602482015272139bc818d85b991a59185d195cc8199bdd5b99606a1b604482015260640161045b565b6000808267ffffffffffffffff81111561082a5761082a6116ca565b60405190808252806020026020018201604052801561088d57816020015b61087a6040518060a0016040528060008152602001606081526020016060815260200160008152602001600081525090565b8152602001906001900390816108485790505b50905060005b84811015610a725786600282815481106108af576108af611ae1565b9060005260206000209060050201600301541415610a6057600281815481106108da576108da611ae1565b90600052602060002090600502016040518060a00160405290816000820154815260200160018201805461090d90611c68565b80601f016020809104026020016040519081016040528092919081815260200182805461093990611c68565b80156109865780601f1061095b57610100808354040283529160200191610986565b820191906000526020600020905b81548152906001019060200180831161096957829003601f168201915b5050505050815260200160028201805461099f90611c68565b80601f01602080910402602001604051908101604052809291908181526020018280546109cb90611c68565b8015610a185780601f106109ed57610100808354040283529160200191610a18565b820191906000526020600020905b8154815290600101906020018083116109fb57829003601f168201915b5050505050815260200160038201548152602001600482015481525050828481518110610a4757610a47611ae1565b6020908102919091010152610a5d600184611b0d565b92505b80610a6a81611c4d565b915050610893565b5095945050505050565b60005461010090046001600160a01b03163314610aab5760405162461bcd60e51b815260040161045b90611ca3565b600160005460ff166001811115610ac457610ac4611950565b14610b115760405162461bcd60e51b815260206004820152601e60248201527f43616e27742073746172742061206e6577206c6f747465727920796574210000604482015260640161045b565b6000805460ff19169055565b60005461010090046001600160a01b03163314610b4c5760405162461bcd60e51b815260040161045b90611ca3565b6001600160a01b038116600090815260016020526040902060020154610100900460ff161580610b9e57506001600160a01b03811660009081526001602052604090206002015462010000900460ff16155b610be45760405162461bcd60e51b8152602060048201526017602482015276151a19481d9bdd195c88185b1c9958591e481d9bdd1959604a1b604482015260640161045b565b6001600160a01b03811660009081526001602052604090206002015460ff16610c4f5760405162461bcd60e51b815260206004820181905260248201527f566f74657220646f65736e2774206861766520726967687420746f20766f7465604482015260640161045b565b6001600160a01b03811660009081526001602081905260408220600201805460ff191690556006805491929091610c87908490611b25565b909155505050565b60038181548110610c9f57600080fd5b9060005260206000209060020201600091509050806000018054610cc290611c68565b80601f0160208091040260200160405190810160405280929190818152602001828054610cee90611c68565b8015610d3b5780601f10610d1057610100808354040283529160200191610d3b565b820191906000526020600020905b815481529060010190602001808311610d1e57829003601f168201915b5050505050908060010154905082565b336000908152600160205260408120600281015490919060ff16610da85760405162461bcd60e51b8152602060048201526014602482015273486173206e6f20726967687420746f20766f746560601b604482015260640161045b565b6002820154610100900460ff1615610e025760405162461bcd60e51b815260206004820152601b60248201527f616c726561647920766f74656420666f722063616e6469646174650000000000604482015260640161045b565b60005b600254811015610e55578360028281548110610e2357610e23611ae1565b9060005260206000209060050201600001541415610e4357809150610e55565b80610e4d81611c4d565b915050610e05565b5060028181548110610e6957610e69611ae1565b906000526020600020906005020160030154826001015414610ed85760405162461bcd60e51b815260206004820152602260248201527f63616e6e6f7420766f74652063616e64696461746520696e2074686973206172604482015261656160f01b606482015260840161045b565b600160028281548110610eed57610eed611ae1565b90600052602060002090600502016004016000828254610f0d9190611b0d565b92505081905550600160056000828254610f279190611b0d565b909155505050600201805461ff00191661010017905550565b600160205260009081526040902080548190610f5b90611c68565b80601f0160208091040260200160405190810160405280929190818152602001828054610f8790611c68565b8015610fd45780601f10610fa957610100808354040283529160200191610fd4565b820191906000526020600020905b815481529060010190602001808311610fb757829003601f168201915b50505050600183015460029093015491929160ff808216925061010082048116916201000090041685565b60606003805480602002602001604051908101604052809291908181526020016000905b828210156110f1578382906000526020600020906002020160405180604001604052908160008201805461105690611c68565b80601f016020809104026020016040519081016040528092919081815260200182805461108290611c68565b80156110cf5780601f106110a4576101008083540402835291602001916110cf565b820191906000526020600020905b8154815290600101906020018083116110b257829003601f168201915b5050505050815260200160018201548152505081526020019060010190611023565b50505050905090565b6040805180820190915260608152600060208201526000600360008154811061112557611125611ae1565b906000526020600020906002020160405180604001604052908160008201805461114e90611c68565b80601f016020809104026020016040519081016040528092919081815260200182805461117a90611c68565b80156111c75780601f1061119c576101008083540402835291602001916111c7565b820191906000526020600020905b8154815290600101906020018083116111aa57829003601f168201915b50505050508152602001600182015481525050915060005b6003548110156113195781600382815481106111fd576111fd611ae1565b9060005260206000209060020201600101541115611307576003818154811061122857611228611ae1565b90600052602060002090600202016001015491506003818154811061124f5761124f611ae1565b906000526020600020906002020160405180604001604052908160008201805461127890611c68565b80601f01602080910402602001604051908101604052809291908181526020018280546112a490611c68565b80156112f15780601f106112c6576101008083540402835291602001916112f1565b820191906000526020600020905b8154815290600101906020018083116112d457829003601f168201915b5050505050815260200160018201548152505092505b8061131181611c4d565b9150506111df565b505090565b6113506040518060a0016040528060008152602001606081526020016060815260200160008152602001600081525090565b600061135b8361071c565b905060008160008151811061137257611372611ae1565b6020026020010151925060005b82518110156113fc578183828151811061139b5761139b611ae1565b60200260200101516080015111156113ea578281815181106113bf576113bf611ae1565b60200260200101516080015191508281815181106113df576113df611ae1565b602002602001015193505b806113f481611c4d565b91505061137f565b505050919050565b60008060005460ff16600181111561141e5761141e611950565b141561142a5750600190565b50600090565b60005461010090046001600160a01b0316331461145f5760405162461bcd60e51b815260040161045b90611ca3565b6001600160a01b038316600090815260016020526040902060020154610100900460ff1615806114b157506001600160a01b03831660009081526001602052604090206002015462010000900460ff16155b6114f75760405162461bcd60e51b8152602060048201526017602482015276151a19481d9bdd195c88185b1c9958591e481d9bdd1959604a1b604482015260640161045b565b6001600160a01b03831660009081526001602052604090206002015460ff161561155c5760405162461bcd60e51b8152602060048201526016602482015275566f7465722063616e20616c726561647920766f746560501b604482015260640161045b565b6001600160a01b038316600090815260016020818152604090922060028101805460ff1916909217909155835161159592850190611618565b5061159f81610526565b6001600160a01b038416600081815260016020819052604080832091820194909455600201805462ffff0019169055915190919066038d7ea4c680009082818181858883f193505050501580156115fa573d6000803e3d6000fd5b5060016006600082825461160e9190611b0d565b9091555050505050565b82805461162490611c68565b90600052602060002090601f016020900481019282611646576000855561168c565b82601f1061165f57805160ff191683800117855561168c565b8280016001018555821561168c579182015b8281111561168c578251825591602001919060010190611671565b5061169892915061169c565b5090565b5b80821115611698576000815560010161169d565b6000602082840312156116c357600080fd5b5035919050565b634e487b7160e01b600052604160045260246000fd5b600082601f8301126116f157600080fd5b813567ffffffffffffffff8082111561170c5761170c6116ca565b604051601f8301601f19908116603f01168101908282118183101715611734576117346116ca565b8160405283815286602085880101111561174d57600080fd5b836020870160208301376000602085830101528094505050505092915050565b60006020828403121561177f57600080fd5b813567ffffffffffffffff81111561179657600080fd5b6117a2848285016116e0565b949350505050565b6000815180845260005b818110156117d0576020818501810151868301820152016117b4565b818111156117e2576000602083870101525b50601f01601f19169290920160200192915050565b85815260a06020820152600061181060a08301876117aa565b828103604084015261182281876117aa565b60608401959095525050608001529392505050565b805182526000602082015160a0602085015261185660a08501826117aa565b90506040830151848203604086015261186f82826117aa565b91505060608301516060850152608083015160808501528091505092915050565b6000602080830181845280855180835260408601915060408160051b870101925083870160005b828110156118e557603f198886030184526118d3858351611837565b945092850192908501906001016118b7565b5092979650505050505050565b6001600160a01b038116811461190757600080fd5b50565b60006020828403121561191c57600080fd5b8135611927816118f2565b9392505050565b60408152600061194160408301856117aa565b90508260208301529392505050565b634e487b7160e01b600052602160045260246000fd5b602081016002831061198857634e487b7160e01b600052602160045260246000fd5b91905290565b60a0815260006119a160a08301886117aa565b602083019690965250921515604084015290151560608301521515608090910152919050565b60008151604084526119dc60408501826117aa565b602093840151949093019390935250919050565b6000602080830181845280855180835260408601915060408160051b870101925083870160005b828110156118e557603f19888603018452611a338583516119c7565b94509285019290850190600101611a17565b60208152600061192760208301846119c7565b6020815260006119276020830184611837565b600080600060608486031215611a8057600080fd5b8335611a8b816118f2565b9250602084013567ffffffffffffffff80821115611aa857600080fd5b611ab4878388016116e0565b93506040860135915080821115611aca57600080fd5b50611ad7868287016116e0565b9150509250925092565b634e487b7160e01b600052603260045260246000fd5b634e487b7160e01b600052601160045260246000fd5b60008219821115611b2057611b20611af7565b500190565b600082821015611b3757611b37611af7565b500390565b600181815b80851115611b77578160001904821115611b5d57611b5d611af7565b80851615611b6a57918102915b93841c9390800290611b41565b509250929050565b600082611b8e57506001611c1c565b81611b9b57506000611c1c565b8160018114611bb15760028114611bbb57611bd7565b6001915050611c1c565b60ff841115611bcc57611bcc611af7565b50506001821b611c1c565b5060208310610133831016604e8410600b8410161715611bfa575081810a611c1c565b611c048383611b3c565b8060001904821115611c1857611c18611af7565b0290505b92915050565b60006119278383611b7f565b6000816000190483118215151615611c4857611c48611af7565b500290565b6000600019821415611c6157611c61611af7565b5060010190565b600181811c90821680611c7c57607f821691505b60208210811415611c9d57634e487b7160e01b600052602260045260246000fd5b50919050565b60208082526017908201527f6f6e6c79206f776e65722063616e20757365207468697300000000000000000060408201526060019056fea2646970667358221220acd2e01bb979f3be116cda3d95337718544ef8280ef040595e4c84baeaf4068164736f6c634300080c0033",
  "bytecodeSha1": "0f23931c1dd712854f33ac40b67e3b08a163815e",
  "compiler": {
    "evm_version": "istanbul",
    "optimizer": {
      "enabled": true,
      "runs": 200
    },
    "version": "0.8.12+commit.f00d7308"
  },
  "contractName": "Voting",
  "language": "Solidity",
  "natspec": {
    "kind": "dev",
    "methods": {},
    "version": 1
  },
  "opcodes": "PUSH1 0x80 PUSH1 0x40 MSTORE PUSH1 0x4 CALLDATASIZE LT PUSH2 0x12A JUMPI PUSH1 0x0 CALLDATALOAD PUSH1 0xE0 SHR DUP1 PUSH4 0x8C08A4DC GT PUSH2 0xAB JUMPI DUP1 PUSH4 0xB60D4288 GT PUSH2 0x6F JUMPI DUP1 PUSH4 0xB60D4288 EQ PUSH2 0x14F JUMPI DUP1 PUSH4 0xB82E1BB2 EQ PUSH2 0x36A JUMPI DUP1 PUSH4 0xBEB604E0 EQ PUSH2 0x397 JUMPI DUP1 PUSH4 0xC1CFB99A EQ PUSH2 0x3AD JUMPI DUP1 PUSH4 0xD659D968 EQ PUSH2 0x3C0 JUMPI DUP1 PUSH4 0xF972C1C4 EQ PUSH2 0x3E5 JUMPI PUSH1 0x0 DUP1 REVERT JUMPDEST DUP1 PUSH4 0x8C08A4DC EQ PUSH2 0x2AE JUMPI DUP1 PUSH4 0x938D0D0F EQ PUSH2 0x2CE JUMPI DUP1 PUSH4 0xA3EC138D EQ PUSH2 0x2F5 JUMPI DUP1 PUSH4 0xA8311AA8 EQ PUSH2 0x326 JUMPI DUP1 PUSH4 0xAE315FE4 EQ PUSH2 0x348 JUMPI PUSH1 0x0 DUP1 REVERT JUMPDEST DUP1 PUSH4 0x3E39A7A5 GT PUSH2 0xF2 JUMPI DUP1 PUSH4 0x3E39A7A5 EQ PUSH2 0x208 JUMPI DUP1 PUSH4 0x62D73EB8 EQ PUSH2 0x235 JUMPI DUP1 PUSH4 0x685A9DD8 EQ PUSH2 0x24A JUMPI DUP1 PUSH4 0x6DFBEB5A EQ PUSH2 0x26A JUMPI DUP1 PUSH4 0x70651A18 EQ PUSH2 0x280 JUMPI PUSH1 0x0 DUP1 REVERT JUMPDEST DUP1 PUSH4 0x4CEE9B3 EQ PUSH2 0x12F JUMPI DUP1 PUSH4 0x18CA28C6 EQ PUSH2 0x151 JUMPI DUP1 PUSH4 0x1BD95155 EQ PUSH2 0x17A JUMPI DUP1 PUSH4 0x2E4176CF EQ PUSH2 0x19A JUMPI DUP1 PUSH4 0x3477EE2E EQ PUSH2 0x1D7 JUMPI JUMPDEST PUSH1 0x0 DUP1 REVERT JUMPDEST CALLVALUE DUP1 ISZERO PUSH2 0x13B JUMPI PUSH1 0x0 DUP1 REVERT JUMPDEST POP PUSH2 0x14F PUSH2 0x14A CALLDATASIZE PUSH1 0x4 PUSH2 0x16B1 JUMP JUMPDEST PUSH2 0x405 JUMP JUMPDEST STOP JUMPDEST CALLVALUE DUP1 ISZERO PUSH2 0x15D JUMPI PUSH1 0x0 DUP1 REVERT JUMPDEST POP PUSH2 0x167 PUSH1 0x4 SLOAD DUP2 JUMP JUMPDEST PUSH1 0x40 MLOAD SWAP1 DUP2 MSTORE PUSH1 0x20 ADD JUMPDEST PUSH1 0x40 MLOAD DUP1 SWAP2 SUB SWAP1 RETURN JUMPDEST CALLVALUE DUP1 ISZERO PUSH2 0x186 JUMPI PUSH1 0x0 DUP1 REVERT JUMPDEST POP PUSH2 0x167 PUSH2 0x195 CALLDATASIZE PUSH1 0x4 PUSH2 0x176D JUMP JUMPDEST PUSH2 0x526 JUMP JUMPDEST CALLVALUE DUP1 ISZERO PUSH2 0x1A6 JUMPI PUSH1 0x0 DUP1 REVERT JUMPDEST POP PUSH1 0x0 SLOAD PUSH2 0x1BF SWAP1 PUSH2 0x100 SWAP1 DIV PUSH1 0x1 PUSH1 0x1 PUSH1 0xA0 SHL SUB AND DUP2 JUMP JUMPDEST PUSH1 0x40 MLOAD PUSH1 0x1 PUSH1 0x1 PUSH1 0xA0 SHL SUB SWAP1 SWAP2 AND DUP2 MSTORE PUSH1 0x20 ADD PUSH2 0x171 JUMP JUMPDEST CALLVALUE DUP1 ISZERO PUSH2 0x1E3 JUMPI PUSH1 0x0 DUP1 REVERT JUMPDEST POP PUSH2 0x1F7 PUSH2 0x1F2 CALLDATASIZE PUSH1 0x4 PUSH2 0x16B1 JUMP JUMPDEST PUSH2 0x5CA JUMP JUMPDEST PUSH1 0x40 MLOAD PUSH2 0x171 SWAP6 SWAP5 SWAP4 SWAP3 SWAP2 SWAP1 PUSH2 0x17F7 JUMP JUMPDEST CALLVALUE DUP1 ISZERO PUSH2 0x214 JUMPI PUSH1 0x0 DUP1 REVERT JUMPDEST POP PUSH2 0x228 PUSH2 0x223 CALLDATASIZE PUSH1 0x4 PUSH2 0x16B1 JUMP JUMPDEST PUSH2 0x71C JUMP JUMPDEST PUSH1 0x40 MLOAD PUSH2 0x171 SWAP2 SWAP1 PUSH2 0x1890 JUMP JUMPDEST CALLVALUE DUP1 ISZERO PUSH2 0x241 JUMPI PUSH1 0x0 DUP1 REVERT JUMPDEST POP PUSH2 0x14F PUSH2 0xA7C JUMP JUMPDEST CALLVALUE DUP1 ISZERO PUSH2 0x256 JUMPI PUSH1 0x0 DUP1 REVERT JUMPDEST POP PUSH2 0x14F PUSH2 0x265 CALLDATASIZE PUSH1 0x4 PUSH2 0x190A JUMP JUMPDEST PUSH2 0xB1D JUMP JUMPDEST CALLVALUE DUP1 ISZERO PUSH2 0x276 JUMPI PUSH1 0x0 DUP1 REVERT JUMPDEST POP PUSH2 0x167 PUSH1 0x5 SLOAD DUP2 JUMP JUMPDEST CALLVALUE DUP1 ISZERO PUSH2 0x28C JUMPI PUSH1 0x0 DUP1 REVERT JUMPDEST POP PUSH2 0x2A0 PUSH2 0x29B CALLDATASIZE PUSH1 0x4 PUSH2 0x16B1 JUMP JUMPDEST PUSH2 0xC8F JUMP JUMPDEST PUSH1 0x40 MLOAD PUSH2 0x171 SWAP3 SWAP2 SWAP1 PUSH2 0x192E JUMP JUMPDEST CALLVALUE DUP1 ISZERO PUSH2 0x2BA JUMPI PUSH1 0x0 DUP1 REVERT JUMPDEST POP PUSH2 0x14F PUSH2 0x2C9 CALLDATASIZE PUSH1 0x4 PUSH2 0x16B1 JUMP JUMPDEST PUSH2 0xD4B JUMP JUMPDEST CALLVALUE DUP1 ISZERO PUSH2 0x2DA JUMPI PUSH1 0x0 DUP1 REVERT JUMPDEST POP PUSH1 0x0 SLOAD PUSH2 0x2E8 SWAP1 PUSH1 0xFF AND DUP2 JUMP JUMPDEST PUSH1 0x40 MLOAD PUSH2 0x171 SWAP2 SWAP1 PUSH2 0x1966 JUMP JUMPDEST CALLVALUE DUP1 ISZERO PUSH2 0x301 JUMPI PUSH1 0x0 DUP1 REVERT JUMPDEST POP PUSH2 0x315 PUSH2 0x310 CALLDATASIZE PUSH1 0x4 PUSH2 0x190A JUMP JUMPDEST PUSH2 0xF40 JUMP JUMPDEST PUSH1 0x40 MLOAD PUSH2 0x171 SWAP6 SWAP5 SWAP4 SWAP3 SWAP2 SWAP1 PUSH2 0x198E JUMP JUMPDEST CALLVALUE DUP1 ISZERO PUSH2 0x332 JUMPI PUSH1 0x0 DUP1 REVERT JUMPDEST POP PUSH2 0x33B PUSH2 0xFFF JUMP JUMPDEST PUSH1 0x40 MLOAD PUSH2 0x171 SWAP2 SWAP1 PUSH2 0x19F0 JUMP JUMPDEST CALLVALUE DUP1 ISZERO PUSH2 0x354 JUMPI PUSH1 0x0 DUP1 REVERT JUMPDEST POP PUSH2 0x35D PUSH2 0x10FA JUMP JUMPDEST PUSH1 0x40 MLOAD PUSH2 0x171 SWAP2 SWAP1 PUSH2 0x1A45 JUMP JUMPDEST CALLVALUE DUP1 ISZERO PUSH2 0x376 JUMPI PUSH1 0x0 DUP1 REVERT JUMPDEST POP PUSH2 0x38A PUSH2 0x385 CALLDATASIZE PUSH1 0x4 PUSH2 0x16B1 JUMP JUMPDEST PUSH2 0x131E JUMP JUMPDEST PUSH1 0x40 MLOAD PUSH2 0x171 SWAP2 SWAP1 PUSH2 0x1A58 JUMP JUMPDEST CALLVALUE DUP1 ISZERO PUSH2 0x3A3 JUMPI PUSH1 0x0 DUP1 REVERT JUMPDEST POP PUSH2 0x167 PUSH1 0x6 SLOAD DUP2 JUMP JUMPDEST CALLVALUE DUP1 ISZERO PUSH2 0x3B9 JUMPI PUSH1 0x0 DUP1 REVERT JUMPDEST POP SELFBALANCE PUSH2 0x167 JUMP JUMPDEST CALLVALUE DUP1 ISZERO PUSH2 0x3CC JUMPI PUSH1 0x0 DUP1 REVERT JUMPDEST POP PUSH2 0x3D5 PUSH2 0x1404 JUMP JUMPDEST PUSH1 0x40 MLOAD SWAP1 ISZERO ISZERO DUP2 MSTORE PUSH1 0x20 ADD PUSH2 0x171 JUMP JUMPDEST CALLVALUE DUP1 ISZERO PUSH2 0x3F1 JUMPI PUSH1 0x0 DUP1 REVERT JUMPDEST POP PUSH2 0x14F PUSH2 0x400 CALLDATASIZE PUSH1 0x4 PUSH2 0x1A6B JUMP JUMPDEST PUSH2 0x1430 JUMP JUMPDEST CALLER PUSH1 0x0 SWAP1 DUP2 MSTORE PUSH1 0x1 PUSH1 0x20 MSTORE PUSH1 0x40 SWAP1 KECCAK256 PUSH1 0x2 DUP2 ADD SLOAD PUSH1 0xFF AND PUSH2 0x464 JUMPI PUSH1 0x40 MLOAD PUSH3 0x461BCD PUSH1 0xE5 SHL DUP2 MSTORE PUSH1 0x20 PUSH1 0x4 DUP3 ADD MSTORE PUSH1 0x14 PUSH1 0x24 DUP3 ADD MSTORE PUSH20 0x486173206E6F20726967687420746F20766F7465 PUSH1 0x60 SHL PUSH1 0x44 DUP3 ADD MSTORE PUSH1 0x64 ADD JUMPDEST PUSH1 0x40 MLOAD DUP1 SWAP2 SUB SWAP1 REVERT JUMPDEST PUSH1 0x2 DUP2 ADD SLOAD PUSH3 0x10000 SWAP1 DIV PUSH1 0xFF AND ISZERO PUSH2 0x4BF JUMPI PUSH1 0x40 MLOAD PUSH3 0x461BCD PUSH1 0xE5 SHL DUP2 MSTORE PUSH1 0x20 PUSH1 0x4 DUP3 ADD MSTORE PUSH1 0x17 PUSH1 0x24 DUP3 ADD MSTORE PUSH32 0x616C726561647920766F74656420666F72207061727479000000000000000000 PUSH1 0x44 DUP3 ADD MSTORE PUSH1 0x64 ADD PUSH2 0x45B JUMP JUMPDEST PUSH1 0x1 PUSH1 0x3 DUP4 DUP2 SLOAD DUP2 LT PUSH2 0x4D4 JUMPI PUSH2 0x4D4 PUSH2 0x1AE1 JUMP JUMPDEST SWAP1 PUSH1 0x0 MSTORE PUSH1 0x20 PUSH1 0x0 KECCAK256 SWAP1 PUSH1 0x2 MUL ADD PUSH1 0x1 ADD PUSH1 0x0 DUP3 DUP3 SLOAD PUSH2 0x4F4 SWAP2 SWAP1 PUSH2 0x1B0D JUMP JUMPDEST SWAP3 POP POP DUP2 SWAP1 SSTORE POP PUSH1 0x1 PUSH1 0x4 PUSH1 0x0 DUP3 DUP3 SLOAD PUSH2 0x50E SWAP2 SWAP1 PUSH2 0x1B0D JUMP JUMPDEST SWAP1 SWAP2 SSTORE POP POP PUSH1 0x2 ADD DUP1 SLOAD PUSH2 0xFF00 NOT AND PUSH2 0x100 OR SWAP1 SSTORE POP JUMP JUMPDEST PUSH1 0x0 DUP1 DUP3 DUP2 JUMPDEST DUP2 MLOAD DUP2 LT ISZERO PUSH2 0x5C1 JUMPI PUSH1 0x0 DUP2 DUP4 MLOAD PUSH2 0x544 SWAP2 SWAP1 PUSH2 0x1B25 JUMP JUMPDEST SWAP1 POP PUSH1 0x0 DUP4 DUP4 DUP2 MLOAD DUP2 LT PUSH2 0x55A JUMPI PUSH2 0x55A PUSH2 0x1AE1 JUMP JUMPDEST ADD PUSH1 0x20 ADD MLOAD PUSH1 0x1 PUSH1 0x1 PUSH1 0xF8 SHL SUB NOT DUP2 AND SWAP2 POP PUSH1 0xF8 SHR PUSH1 0x0 PUSH2 0x57C PUSH1 0x30 DUP4 PUSH2 0x1B25 JUMP JUMPDEST SWAP1 POP PUSH2 0x589 PUSH1 0x1 DUP6 PUSH2 0x1B25 JUMP JUMPDEST PUSH2 0x594 SWAP1 PUSH1 0xA PUSH2 0x1C22 JUMP JUMPDEST PUSH2 0x59E SWAP1 DUP3 PUSH2 0x1C2E JUMP JUMPDEST PUSH2 0x5A8 SWAP1 DUP9 PUSH2 0x1B0D JUMP JUMPDEST SWAP7 POP POP POP POP POP DUP1 DUP1 PUSH2 0x5B9 SWAP1 PUSH2 0x1C4D JUMP JUMPDEST SWAP2 POP POP PUSH2 0x52C JUMP JUMPDEST POP SWAP1 SWAP4 SWAP3 POP POP POP JUMP JUMPDEST PUSH1 0x2 DUP2 DUP2 SLOAD DUP2 LT PUSH2 0x5DA JUMPI PUSH1 0x0 DUP1 REVERT JUMPDEST PUSH1 0x0 SWAP2 DUP3 MSTORE PUSH1 0x20 SWAP1 SWAP2 KECCAK256 PUSH1 0x5 SWAP1 SWAP2 MUL ADD DUP1 SLOAD PUSH1 0x1 DUP3 ADD DUP1 SLOAD SWAP2 SWAP4 POP SWAP1 PUSH2 0x5FF SWAP1 PUSH2 0x1C68 JUMP JUMPDEST DUP1 PUSH1 0x1F ADD PUSH1 0x20 DUP1 SWAP2 DIV MUL PUSH1 0x20 ADD PUSH1 0x40 MLOAD SWAP1 DUP2 ADD PUSH1 0x40 MSTORE DUP1 SWAP3 SWAP2 SWAP1 DUP2 DUP2 MSTORE PUSH1 0x20 ADD DUP3 DUP1 SLOAD PUSH2 0x62B SWAP1 PUSH2 0x1C68 JUMP JUMPDEST DUP1 ISZERO PUSH2 0x678 JUMPI DUP1 PUSH1 0x1F LT PUSH2 0x64D JUMPI PUSH2 0x100 DUP1 DUP4 SLOAD DIV MUL DUP4 MSTORE SWAP2 PUSH1 0x20 ADD SWAP2 PUSH2 0x678 JUMP JUMPDEST DUP3 ADD SWAP2 SWAP1 PUSH1 0x0 MSTORE PUSH1 0x20 PUSH1 0x0 KECCAK256 SWAP1 JUMPDEST DUP2 SLOAD DUP2 MSTORE SWAP1 PUSH1 0x1 ADD SWAP1 PUSH1 0x20 ADD DUP1 DUP4 GT PUSH2 0x65B JUMPI DUP3 SWAP1 SUB PUSH1 0x1F AND DUP3 ADD SWAP2 JUMPDEST POP POP POP POP POP SWAP1 DUP1 PUSH1 0x2 ADD DUP1 SLOAD PUSH2 0x68D SWAP1 PUSH2 0x1C68 JUMP JUMPDEST DUP1 PUSH1 0x1F ADD PUSH1 0x20 DUP1 SWAP2 DIV MUL PUSH1 0x20 ADD PUSH1 0x40 MLOAD SWAP1 DUP2 ADD PUSH1 0x40 MSTORE DUP1 SWAP3 SWAP2 SWAP1 DUP2 DUP2 MSTORE PUSH1 0x20 ADD DUP3 DUP1 SLOAD PUSH2 0x6B9 SWAP1 PUSH2 0x1C68 JUMP JUMPDEST DUP1 ISZERO PUSH2 0x706 JUMPI DUP1 PUSH1 0x1F LT PUSH2 0x6DB JUMPI PUSH2 0x100 DUP1 DUP4 SLOAD DIV MUL DUP4 MSTORE SWAP2 PUSH1 0x20 ADD SWAP2 PUSH2 0x706 JUMP JUMPDEST DUP3 ADD SWAP2 SWAP1 PUSH1 0x0 MSTORE PUSH1 0x20 PUSH1 0x0 KECCAK256 SWAP1 JUMPDEST DUP2 SLOAD DUP2 MSTORE SWAP1 PUSH1 0x1 ADD SWAP1 PUSH1 0x20 ADD DUP1 DUP4 GT PUSH2 0x6E9 JUMPI DUP3 SWAP1 SUB PUSH1 0x1F AND DUP3 ADD SWAP2 JUMPDEST POP POP POP POP POP SWAP1 DUP1 PUSH1 0x3 ADD SLOAD SWAP1 DUP1 PUSH1 0x4 ADD SLOAD SWAP1 POP DUP6 JUMP JUMPDEST PUSH1 0x2 SLOAD PUSH1 0x60 SWAP1 DUP1 PUSH2 0x76F JUMPI PUSH1 0x40 MLOAD PUSH3 0x461BCD PUSH1 0xE5 SHL DUP2 MSTORE PUSH1 0x20 PUSH1 0x4 DUP3 ADD MSTORE PUSH1 0x18 PUSH1 0x24 DUP3 ADD MSTORE PUSH32 0x4E6F2063616E6469646174657320726567697374657265640000000000000000 PUSH1 0x44 DUP3 ADD MSTORE PUSH1 0x64 ADD PUSH2 0x45B JUMP JUMPDEST PUSH1 0x0 DUP1 JUMPDEST DUP3 DUP2 LT ISZERO PUSH2 0x7C7 JUMPI DUP5 PUSH1 0x2 DUP3 DUP2 SLOAD DUP2 LT PUSH2 0x78F JUMPI PUSH2 0x78F PUSH2 0x1AE1 JUMP JUMPDEST SWAP1 PUSH1 0x0 MSTORE PUSH1 0x20 PUSH1 0x0 KECCAK256 SWAP1 PUSH1 0x5 MUL ADD PUSH1 0x3 ADD SLOAD EQ ISZERO PUSH2 0x7B5 JUMPI PUSH2 0x7B2 PUSH1 0x1 DUP4 PUSH2 0x1B0D JUMP JUMPDEST SWAP2 POP JUMPDEST DUP1 PUSH2 0x7BF DUP2 PUSH2 0x1C4D JUMP JUMPDEST SWAP2 POP POP PUSH2 0x773 JUMP JUMPDEST POP PUSH1 0x0 DUP2 GT PUSH2 0x80E JUMPI PUSH1 0x40 MLOAD PUSH3 0x461BCD PUSH1 0xE5 SHL DUP2 MSTORE PUSH1 0x20 PUSH1 0x4 DUP3 ADD MSTORE PUSH1 0x13 PUSH1 0x24 DUP3 ADD MSTORE PUSH19 0x139BC818D85B991A59185D195CC8199BDD5B99 PUSH1 0x6A SHL PUSH1 0x44 DUP3 ADD MSTORE PUSH1 0x64 ADD PUSH2 0x45B JUMP JUMPDEST PUSH1 0x0 DUP1 DUP3 PUSH8 0xFFFFFFFFFFFFFFFF DUP2 GT ISZERO PUSH2 0x82A JUMPI PUSH2 0x82A PUSH2 0x16CA JUMP JUMPDEST PUSH1 0x40 MLOAD SWAP1 DUP1 DUP3 MSTORE DUP1 PUSH1 0x20 MUL PUSH1 0x20 ADD DUP3 ADD PUSH1 0x40 MSTORE DUP1 ISZERO PUSH2 0x88D JUMPI DUP2 PUSH1 0x20 ADD JUMPDEST PUSH2 0x87A PUSH1 0x40 MLOAD DUP1 PUSH1 0xA0 ADD PUSH1 0x40 MSTORE DUP1 PUSH1 0x0 DUP2 MSTORE PUSH1 0x20 ADD PUSH1 0x60 DUP2 MSTORE PUSH1 0x20 ADD PUSH1 0x60 DUP2 MSTORE PUSH1 0x20 ADD PUSH1 0x0 DUP2 MSTORE PUSH1 0x20 ADD PUSH1 0x0 DUP2 MSTORE POP SWAP1 JUMP JUMPDEST DUP2 MSTORE PUSH1 0x20 ADD SWAP1 PUSH1 0x1 SWAP1 SUB SWAP1 DUP2 PUSH2 0x848 JUMPI SWAP1 POP JUMPDEST POP SWAP1 POP PUSH1 0x0 JUMPDEST DUP5 DUP2 LT ISZERO PUSH2 0xA72 JUMPI DUP7 PUSH1 0x2 DUP3 DUP2 SLOAD DUP2 LT PUSH2 0x8AF JUMPI PUSH2 0x8AF PUSH2 0x1AE1 JUMP JUMPDEST SWAP1 PUSH1 0x0 MSTORE PUSH1 0x20 PUSH1 0x0 KECCAK256 SWAP1 PUSH1 0x5 MUL ADD PUSH1 0x3 ADD SLOAD EQ ISZERO PUSH2 0xA60 JUMPI PUSH1 0x2 DUP2 DUP2 SLOAD DUP2 LT PUSH2 0x8DA JUMPI PUSH2 0x8DA PUSH2 0x1AE1 JUMP JUMPDEST SWAP1 PUSH1 0x0 MSTORE PUSH1 0x20 PUSH1 0x0 KECCAK256 SWAP1 PUSH1 0x5 MUL ADD PUSH1 0x40 MLOAD DUP1 PUSH1 0xA0 ADD PUSH1 0x40 MSTORE SWAP1 DUP2 PUSH1 0x0 DUP3 ADD SLOAD DUP2 MSTORE PUSH1 0x20 ADD PUSH1 0x1 DUP3 ADD DUP1 SLOAD PUSH2 0x90D SWAP1 PUSH2 0x1C68 JUMP JUMPDEST DUP1 PUSH1 0x1F ADD PUSH1 0x20 DUP1 SWAP2 DIV MUL PUSH1 0x20 ADD PUSH1 0x40 MLOAD SWAP1 DUP2 ADD PUSH1 0x40 MSTORE DUP1 SWAP3 SWAP2 SWAP1 DUP2 DUP2 MSTORE PUSH1 0x20 ADD DUP3 DUP1 SLOAD PUSH2 0x939 SWAP1 PUSH2 0x1C68 JUMP JUMPDEST DUP1 ISZERO PUSH2 0x986 JUMPI DUP1 PUSH1 0x1F LT PUSH2 0x95B JUMPI PUSH2 0x100 DUP1 DUP4 SLOAD DIV MUL DUP4 MSTORE SWAP2 PUSH1 0x20 ADD SWAP2 PUSH2 0x986 JUMP JUMPDEST DUP3 ADD SWAP2 SWAP1 PUSH1 0x0 MSTORE PUSH1 0x20 PUSH1 0x0 KECCAK256 SWAP1 JUMPDEST DUP2 SLOAD DUP2 MSTORE SWAP1 PUSH1 0x1 ADD SWAP1 PUSH1 0x20 ADD DUP1 DUP4 GT PUSH2 0x969 JUMPI DUP3 SWAP1 SUB PUSH1 0x1F AND DUP3 ADD SWAP2 JUMPDEST POP POP POP POP POP DUP2 MSTORE PUSH1 0x20 ADD PUSH1 0x2 DUP3 ADD DUP1 SLOAD PUSH2 0x99F SWAP1 PUSH2 0x1C68 JUMP JUMPDEST DUP1 PUSH1 0x1F ADD PUSH1 0x20 DUP1 SWAP2 DIV MUL PUSH1 0x20 ADD PUSH1 0x40 MLOAD SWAP1 DUP2 ADD PUSH1 0x40 MSTORE DUP1 SWAP3 SWAP2 SWAP1 DUP2 DUP2 MSTORE PUSH1 0x20 ADD DUP3 DUP1 SLOAD PUSH2 0x9CB SWAP1 PUSH2 0x1C68 JUMP JUMPDEST DUP1 ISZERO PUSH2 0xA18 JUMPI DUP1 PUSH1 0x1F LT PUSH2 0x9ED JUMPI PUSH2 0x100 DUP1 DUP4 SLOAD DIV MUL DUP4 MSTORE SWAP2 PUSH1 0x20 ADD SWAP2 PUSH2 0xA18 JUMP JUMPDEST DUP3 ADD SWAP2 SWAP1 PUSH1 0x0 MSTORE PUSH1 0x20 PUSH1 0x0 KECCAK256 SWAP1 JUMPDEST DUP2 SLOAD DUP2 MSTORE SWAP1 PUSH1 0x1 ADD SWAP1 PUSH1 0x20 ADD DUP1 DUP4 GT PUSH2 0x9FB JUMPI DUP3 SWAP1 SUB PUSH1 0x1F AND DUP3 ADD SWAP2 JUMPDEST POP POP POP POP POP DUP2 MSTORE PUSH1 0x20 ADD PUSH1 0x3 DUP3 ADD SLOAD DUP2 MSTORE PUSH1 0x20 ADD PUSH1 0x4 DUP3 ADD SLOAD DUP2 MSTORE POP POP DUP3 DUP5 DUP2 MLOAD DUP2 LT PUSH2 0xA47 JUMPI PUSH2 0xA47 PUSH2 0x1AE1 JUMP JUMPDEST PUSH1 0x20 SWAP1 DUP2 MUL SWAP2 SWAP1 SWAP2 ADD ADD MSTORE PUSH2 0xA5D PUSH1 0x1 DUP5 PUSH2 0x1B0D JUMP JUMPDEST SWAP3 POP JUMPDEST DUP1 PUSH2 0xA6A DUP2 PUSH2 0x1C4D JUMP JUMPDEST SWAP2 POP POP PUSH2 0x893 JUMP JUMPDEST POP SWAP6 SWAP5 POP POP POP POP POP JUMP JUMPDEST PUSH1 0x0 SLOAD PUSH2 0x100 SWAP1 DIV PUSH1 0x1 PUSH1 0x1 PUSH1 0xA0 SHL SUB AND CALLER EQ PUSH2 0xAAB JUMPI PUSH1 0x40 MLOAD PUSH3 0x461BCD PUSH1 0xE5 SHL DUP2 MSTORE PUSH1 0x4 ADD PUSH2 0x45B SWAP1 PUSH2 0x1CA3 JUMP JUMPDEST PUSH1 0x1 PUSH1 0x0 SLOAD PUSH1 0xFF AND PUSH1 0x1 DUP2 GT ISZERO PUSH2 0xAC4 JUMPI PUSH2 0xAC4 PUSH2 0x1950 JUMP JUMPDEST EQ PUSH2 0xB11 JUMPI PUSH1 0x40 MLOAD PUSH3 0x461BCD PUSH1 0xE5 SHL DUP2 MSTORE PUSH1 0x20 PUSH1 0x4 DUP3 ADD MSTORE PUSH1 0x1E PUSH1 0x24 DUP3 ADD MSTORE PUSH32 0x43616E27742073746172742061206E6577206C6F747465727920796574210000 PUSH1 0x44 DUP3 ADD MSTORE PUSH1 0x64 ADD PUSH2 0x45B JUMP JUMPDEST PUSH1 0x0 DUP1 SLOAD PUSH1 0xFF NOT AND SWAP1 SSTORE JUMP JUMPDEST PUSH1 0x0 SLOAD PUSH2 0x100 SWAP1 DIV PUSH1 0x1 PUSH1 0x1 PUSH1 0xA0 SHL SUB AND CALLER EQ PUSH2 0xB4C JUMPI PUSH1 0x40 MLOAD PUSH3 0x461BCD PUSH1 0xE5 SHL DUP2 MSTORE PUSH1 0x4 ADD PUSH2 0x45B SWAP1 PUSH2 0x1CA3 JUMP JUMPDEST PUSH1 0x1 PUSH1 0x1 PUSH1 0xA0 SHL SUB DUP2 AND PUSH1 0x0 SWAP1 DUP2 MSTORE PUSH1 0x1 PUSH1 0x20 MSTORE PUSH1 0x40 SWAP1 KECCAK256 PUSH1 0x2 ADD SLOAD PUSH2 0x100 SWAP1 DIV PUSH1 0xFF AND ISZERO DUP1 PUSH2 0xB9E JUMPI POP PUSH1 0x1 PUSH1 0x1 PUSH1 0xA0 SHL SUB DUP2 AND PUSH1 0x0 SWAP1 DUP2 MSTORE PUSH1 0x1 PUSH1 0x20 MSTORE PUSH1 0x40 SWAP1 KECCAK256 PUSH1 0x2 ADD SLOAD PUSH3 0x10000 SWAP1 DIV PUSH1 0xFF AND ISZERO JUMPDEST PUSH2 0xBE4 JUMPI PUSH1 0x40 MLOAD PUSH3 0x461BCD PUSH1 0xE5 SHL DUP2 MSTORE PUSH1 0x20 PUSH1 0x4 DUP3 ADD MSTORE PUSH1 0x17 PUSH1 0x24 DUP3 ADD MSTORE PUSH23 0x151A19481D9BDD195C88185B1C9958591E481D9BDD1959 PUSH1 0x4A SHL PUSH1 0x44 DUP3 ADD MSTORE PUSH1 0x64 ADD PUSH2 0x45B JUMP JUMPDEST PUSH1 0x1 PUSH1 0x1 PUSH1 0xA0 SHL SUB DUP2 AND PUSH1 0x0 SWAP1 DUP2 MSTORE PUSH1 0x1 PUSH1 0x20 MSTORE PUSH1 0x40 SWAP1 KECCAK256 PUSH1 0x2 ADD SLOAD PUSH1 0xFF AND PUSH2 0xC4F JUMPI PUSH1 0x40 MLOAD PUSH3 0x461BCD PUSH1 0xE5 SHL DUP2 MSTORE PUSH1 0x20 PUSH1 0x4 DUP3 ADD DUP2 SWAP1 MSTORE PUSH1 0x24 DUP3 ADD MSTORE PUSH32 0x566F74657220646F65736E2774206861766520726967687420746F20766F7465 PUSH1 0x44 DUP3 ADD MSTORE PUSH1 0x64 ADD PUSH2 0x45B JUMP JUMPDEST PUSH1 0x1 PUSH1 0x1 PUSH1 0xA0 SHL SUB DUP2 AND PUSH1 0x0 SWAP1 DUP2 MSTORE PUSH1 0x1 PUSH1 0x20 DUP2 SWAP1 MSTORE PUSH1 0x40 DUP3 KECCAK256 PUSH1 0x2 ADD DUP1 SLOAD PUSH1 0xFF NOT AND SWAP1 SSTORE PUSH1 0x6 DUP1 SLOAD SWAP2 SWAP3 SWAP1 SWAP2 PUSH2 0xC87 SWAP1 DUP5 SWAP1 PUSH2 0x1B25 JUMP JUMPDEST SWAP1 SWAP2 SSTORE POP POP POP JUMP JUMPDEST PUSH1 0x3 DUP2 DUP2 SLOAD DUP2 LT PUSH2 0xC9F JUMPI PUSH1 0x0 DUP1 REVERT JUMPDEST SWAP1 PUSH1 0x0 MSTORE PUSH1 0x20 PUSH1 0x0 KECCAK256 SWAP1 PUSH1 0x2 MUL ADD PUSH1 0x0 SWAP2 POP SWAP1 POP DUP1 PUSH1 0x0 ADD DUP1 SLOAD PUSH2 0xCC2 SWAP1 PUSH2 0x1C68 JUMP JUMPDEST DUP1 PUSH1 0x1F ADD PUSH1 0x20 DUP1 SWAP2 DIV MUL PUSH1 0x20 ADD PUSH1 0x40 MLOAD SWAP1 DUP2 ADD PUSH1 0x40 MSTORE DUP1 SWAP3 SWAP2 SWAP1 DUP2 DUP2 MSTORE PUSH1 0x20 ADD DUP3 DUP1 SLOAD PUSH2 0xCEE SWAP1 PUSH2 0x1C68 JUMP JUMPDEST DUP1 ISZERO PUSH2 0xD3B JUMPI DUP1 PUSH1 0x1F LT PUSH2 0xD10 JUMPI PUSH2 0x100 DUP1 DUP4 SLOAD DIV MUL DUP4 MSTORE SWAP2 PUSH1 0x20 ADD SWAP2 PUSH2 0xD3B JUMP JUMPDEST DUP3 ADD SWAP2 SWAP1 PUSH1 0x0 MSTORE PUSH1 0x20 PUSH1 0x0 KECCAK256 SWAP1 JUMPDEST DUP2 SLOAD DUP2 MSTORE SWAP1 PUSH1 0x1 ADD SWAP1 PUSH1 0x20 ADD DUP1 DUP4 GT PUSH2 0xD1E JUMPI DUP3 SWAP1 SUB PUSH1 0x1F AND DUP3 ADD SWAP2 JUMPDEST POP POP POP POP POP SWAP1 DUP1 PUSH1 0x1 ADD SLOAD SWAP1 POP DUP3 JUMP JUMPDEST CALLER PUSH1 0x0 SWAP1 DUP2 MSTORE PUSH1 0x1 PUSH1 0x20 MSTORE PUSH1 0x40 DUP2 KECCAK256 PUSH1 0x2 DUP2 ADD SLOAD SWAP1 SWAP2 SWAP1 PUSH1 0xFF AND PUSH2 0xDA8 JUMPI PUSH1 0x40 MLOAD PUSH3 0x461BCD PUSH1 0xE5 SHL DUP2 MSTORE PUSH1 0x20 PUSH1 0x4 DUP3 ADD MSTORE PUSH1 0x14 PUSH1 0x24 DUP3 ADD MSTORE PUSH20 0x486173206E6F20726967687420746F20766F7465 PUSH1 0x60 SHL PUSH1 0x44 DUP3 ADD MSTORE PUSH1 0x64 ADD PUSH2 0x45B JUMP JUMPDEST PUSH1 0x2 DUP3 ADD SLOAD PUSH2 0x100 SWAP1 DIV PUSH1 0xFF AND ISZERO PUSH2 0xE02 JUMPI PUSH1 0x40 MLOAD PUSH3 0x461BCD PUSH1 0xE5 SHL DUP2 MSTORE PUSH1 0x20 PUSH1 0x4 DUP3 ADD MSTORE PUSH1 0x1B PUSH1 0x24 DUP3 ADD MSTORE PUSH32 0x616C726561647920766F74656420666F722063616E6469646174650000000000 PUSH1 0x44 DUP3 ADD MSTORE PUSH1 0x64 ADD PUSH2 0x45B JUMP JUMPDEST PUSH1 0x0 JUMPDEST PUSH1 0x2 SLOAD DUP2 LT ISZERO PUSH2 0xE55 JUMPI DUP4 PUSH1 0x2 DUP3 DUP2 SLOAD DUP2 LT PUSH2 0xE23 JUMPI PUSH2 0xE23 PUSH2 0x1AE1 JUMP JUMPDEST SWAP1 PUSH1 0x0 MSTORE PUSH1 0x20 PUSH1 0x0 KECCAK256 SWAP1 PUSH1 0x5 MUL ADD PUSH1 0x0 ADD SLOAD EQ ISZERO PUSH2 0xE43 JUMPI DUP1 SWAP2 POP PUSH2 0xE55 JUMP JUMPDEST DUP1 PUSH2 0xE4D DUP2 PUSH2 0x1C4D JUMP JUMPDEST SWAP2 POP POP PUSH2 0xE05 JUMP JUMPDEST POP PUSH1 0x2 DUP2 DUP2 SLOAD DUP2 LT PUSH2 0xE69 JUMPI PUSH2 0xE69 PUSH2 0x1AE1 JUMP JUMPDEST SWAP1 PUSH1 0x0 MSTORE PUSH1 0x20 PUSH1 0x0 KECCAK256 SWAP1 PUSH1 0x5 MUL ADD PUSH1 0x3 ADD SLOAD DUP3 PUSH1 0x1 ADD SLOAD EQ PUSH2 0xED8 JUMPI PUSH1 0x40 MLOAD PUSH3 0x461BCD PUSH1 0xE5 SHL DUP2 MSTORE PUSH1 0x20 PUSH1 0x4 DUP3 ADD MSTORE PUSH1 0x22 PUSH1 0x24 DUP3 ADD MSTORE PUSH32 0x63616E6E6F7420766F74652063616E64696461746520696E2074686973206172 PUSH1 0x44 DUP3 ADD MSTORE PUSH2 0x6561 PUSH1 0xF0 SHL PUSH1 0x64 DUP3 ADD MSTORE PUSH1 0x84 ADD PUSH2 0x45B JUMP JUMPDEST PUSH1 0x1 PUSH1 0x2 DUP3 DUP2 SLOAD DUP2 LT PUSH2 0xEED JUMPI PUSH2 0xEED PUSH2 0x1AE1 JUMP JUMPDEST SWAP1 PUSH1 0x0 MSTORE PUSH1 0x20 PUSH1 0x0 KECCAK256 SWAP1 PUSH1 0x5 MUL ADD PUSH1 0x4 ADD PUSH1 0x0 DUP3 DUP3 SLOAD PUSH2 0xF0D SWAP2 SWAP1 PUSH2 0x1B0D JUMP JUMPDEST SWAP3 POP POP DUP2 SWAP1 SSTORE POP PUSH1 0x1 PUSH1 0x5 PUSH1 0x0 DUP3 DUP3 SLOAD PUSH2 0xF27 SWAP2 SWAP1 PUSH2 0x1B0D JUMP JUMPDEST SWAP1 SWAP2 SSTORE POP POP POP PUSH1 0x2 ADD DUP1 SLOAD PUSH2 0xFF00 NOT AND PUSH2 0x100 OR SWAP1 SSTORE POP JUMP JUMPDEST PUSH1 0x1 PUSH1 0x20 MSTORE PUSH1 0x0 SWAP1 DUP2 MSTORE PUSH1 0x40 SWAP1 KECCAK256 DUP1 SLOAD DUP2 SWAP1 PUSH2 0xF5B SWAP1 PUSH2 0x1C68 JUMP JUMPDEST DUP1 PUSH1 0x1F ADD PUSH1 0x20 DUP1 SWAP2 DIV MUL PUSH1 0x20 ADD PUSH1 0x40 MLOAD SWAP1 DUP2 ADD PUSH1 0x40 MSTORE DUP1 SWAP3 SWAP2 SWAP1 DUP2 DUP2 MSTORE PUSH1 0x20 ADD DUP3 DUP1 SLOAD PUSH2 0xF87 SWAP1 PUSH2 0x1C68 JUMP JUMPDEST DUP1 ISZERO PUSH2 0xFD4 JUMPI DUP1 PUSH1 0x1F LT PUSH2 0xFA9 JUMPI PUSH2 0x100 DUP1 DUP4 SLOAD DIV MUL DUP4 MSTORE SWAP2 PUSH1 0x20 ADD SWAP2 PUSH2 0xFD4 JUMP JUMPDEST DUP3 ADD SWAP2 SWAP1 PUSH1 0x0 MSTORE PUSH1 0x20 PUSH1 0x0 KECCAK256 SWAP1 JUMPDEST DUP2 SLOAD DUP2 MSTORE SWAP1 PUSH1 0x1 ADD SWAP1 PUSH1 0x20 ADD DUP1 DUP4 GT PUSH2 0xFB7 JUMPI DUP3 SWAP1 SUB PUSH1 0x1F AND DUP3 ADD SWAP2 JUMPDEST POP POP POP POP PUSH1 0x1 DUP4 ADD SLOAD PUSH1 0x2 SWAP1 SWAP4 ADD SLOAD SWAP2 SWAP3 SWAP2 PUSH1 0xFF DUP1 DUP3 AND SWAP3 POP PUSH2 0x100 DUP3 DIV DUP2 AND SWAP2 PUSH3 0x10000 SWAP1 DIV AND DUP6 JUMP JUMPDEST PUSH1 0x60 PUSH1 0x3 DUP1 SLOAD DUP1 PUSH1 0x20 MUL PUSH1 0x20 ADD PUSH1 0x40 MLOAD SWAP1 DUP2 ADD PUSH1 0x40 MSTORE DUP1 SWAP3 SWAP2 SWAP1 DUP2 DUP2 MSTORE PUSH1 0x20 ADD PUSH1 0x0 SWAP1 JUMPDEST DUP3 DUP3 LT ISZERO PUSH2 0x10F1 JUMPI DUP4 DUP3 SWAP1 PUSH1 0x0 MSTORE PUSH1 0x20 PUSH1 0x0 KECCAK256 SWAP1 PUSH1 0x2 MUL ADD PUSH1 0x40 MLOAD DUP1 PUSH1 0x40 ADD PUSH1 0x40 MSTORE SWAP1 DUP2 PUSH1 0x0 DUP3 ADD DUP1 SLOAD PUSH2 0x1056 SWAP1 PUSH2 0x1C68 JUMP JUMPDEST DUP1 PUSH1 0x1F ADD PUSH1 0x20 DUP1 SWAP2 DIV MUL PUSH1 0x20 ADD PUSH1 0x40 MLOAD SWAP1 DUP2 ADD PUSH1 0x40 MSTORE DUP1 SWAP3 SWAP2 SWAP1 DUP2 DUP2 MSTORE PUSH1 0x20 ADD DUP3 DUP1 SLOAD PUSH2 0x1082 SWAP1 PUSH2 0x1C68 JUMP JUMPDEST DUP1 ISZERO PUSH2 0x10CF JUMPI DUP1 PUSH1 0x1F LT PUSH2 0x10A4 JUMPI PUSH2 0x100 DUP1 DUP4 SLOAD DIV MUL DUP4 MSTORE SWAP2 PUSH1 0x20 ADD SWAP2 PUSH2 0x10CF JUMP JUMPDEST DUP3 ADD SWAP2 SWAP1 PUSH1 0x0 MSTORE PUSH1 0x20 PUSH1 0x0 KECCAK256 SWAP1 JUMPDEST DUP2 SLOAD DUP2 MSTORE SWAP1 PUSH1 0x1 ADD SWAP1 PUSH1 0x20 ADD DUP1 DUP4 GT PUSH2 0x10B2 JUMPI DUP3 SWAP1 SUB PUSH1 0x1F AND DUP3 ADD SWAP2 JUMPDEST POP POP POP POP POP DUP2 MSTORE PUSH1 0x20 ADD PUSH1 0x1 DUP3 ADD SLOAD DUP2 MSTORE POP POP DUP2 MSTORE PUSH1 0x20 ADD SWAP1 PUSH1 0x1 ADD SWAP1 PUSH2 0x1023 JUMP JUMPDEST POP POP POP POP SWAP1 POP SWAP1 JUMP JUMPDEST PUSH1 0x40 DUP1 MLOAD DUP1 DUP3 ADD SWAP1 SWAP2 MSTORE PUSH1 0x60 DUP2 MSTORE PUSH1 0x0 PUSH1 0x20 DUP3 ADD MSTORE PUSH1 0x0 PUSH1 0x3 PUSH1 0x0 DUP2 SLOAD DUP2 LT PUSH2 0x1125 JUMPI PUSH2 0x1125 PUSH2 0x1AE1 JUMP JUMPDEST SWAP1 PUSH1 0x0 MSTORE PUSH1 0x20 PUSH1 0x0 KECCAK256 SWAP1 PUSH1 0x2 MUL ADD PUSH1 0x40 MLOAD DUP1 PUSH1 0x40 ADD PUSH1 0x40 MSTORE SWAP1 DUP2 PUSH1 0x0 DUP3 ADD DUP1 SLOAD PUSH2 0x114E SWAP1 PUSH2 0x1C68 JUMP JUMPDEST DUP1 PUSH1 0x1F ADD PUSH1 0x20 DUP1 SWAP2 DIV MUL PUSH1 0x20 ADD PUSH1 0x40 MLOAD SWAP1 DUP2 ADD PUSH1 0x40 MSTORE DUP1 SWAP3 SWAP2 SWAP1 DUP2 DUP2 MSTORE PUSH1 0x20 ADD DUP3 DUP1 SLOAD PUSH2 0x117A SWAP1 PUSH2 0x1C68 JUMP JUMPDEST DUP1 ISZERO PUSH2 0x11C7 JUMPI DUP1 PUSH1 0x1F LT PUSH2 0x119C JUMPI PUSH2 0x100 DUP1 DUP4 SLOAD DIV MUL DUP4 MSTORE SWAP2 PUSH1 0x20 ADD SWAP2 PUSH2 0x11C7 JUMP JUMPDEST DUP3 ADD SWAP2 SWAP1 PUSH1 0x0 MSTORE PUSH1 0x20 PUSH1 0x0 KECCAK256 SWAP1 JUMPDEST DUP2 SLOAD DUP2 MSTORE SWAP1 PUSH1 0x1 ADD SWAP1 PUSH1 0x20 ADD DUP1 DUP4 GT PUSH2 0x11AA JUMPI DUP3 SWAP1 SUB PUSH1 0x1F AND DUP3 ADD SWAP2 JUMPDEST POP POP POP POP POP DUP2 MSTORE PUSH1 0x20 ADD PUSH1 0x1 DUP3 ADD SLOAD DUP2 MSTORE POP POP SWAP2 POP PUSH1 0x0 JUMPDEST PUSH1 0x3 SLOAD DUP2 LT ISZERO PUSH2 0x1319 JUMPI DUP2 PUSH1 0x3 DUP3 DUP2 SLOAD DUP2 LT PUSH2 0x11FD JUMPI PUSH2 0x11FD PUSH2 0x1AE1 JUMP JUMPDEST SWAP1 PUSH1 0x0 MSTORE PUSH1 0x20 PUSH1 0x0 KECCAK256 SWAP1 PUSH1 0x2 MUL ADD PUSH1 0x1 ADD SLOAD GT ISZERO PUSH2 0x1307 JUMPI PUSH1 0x3 DUP2 DUP2 SLOAD DUP2 LT PUSH2 0x1228 JUMPI PUSH2 0x1228 PUSH2 0x1AE1 JUMP JUMPDEST SWAP1 PUSH1 0x0 MSTORE PUSH1 0x20 PUSH1 0x0 KECCAK256 SWAP1 PUSH1 0x2 MUL ADD PUSH1 0x1 ADD SLOAD SWAP2 POP PUSH1 0x3 DUP2 DUP2 SLOAD DUP2 LT PUSH2 0x124F JUMPI PUSH2 0x124F PUSH2 0x1AE1 JUMP JUMPDEST SWAP1 PUSH1 0x0 MSTORE PUSH1 0x20 PUSH1 0x0 KECCAK256 SWAP1 PUSH1 0x2 MUL ADD PUSH1 0x40 MLOAD DUP1 PUSH1 0x40 ADD PUSH1 0x40 MSTORE SWAP1 DUP2 PUSH1 0x0 DUP3 ADD DUP1 SLOAD PUSH2 0x1278 SWAP1 PUSH2 0x1C68 JUMP JUMPDEST DUP1 PUSH1 0x1F ADD PUSH1 0x20 DUP1 SWAP2 DIV MUL PUSH1 0x20 ADD PUSH1 0x40 MLOAD SWAP1 DUP2 ADD PUSH1 0x40 MSTORE DUP1 SWAP3 SWAP2 SWAP1 DUP2 DUP2 MSTORE PUSH1 0x20 ADD DUP3 DUP1 SLOAD PUSH2 0x12A4 SWAP1 PUSH2 0x1C68 JUMP JUMPDEST DUP1 ISZERO PUSH2 0x12F1 JUMPI DUP1 PUSH1 0x1F LT PUSH2 0x12C6 JUMPI PUSH2 0x100 DUP1 DUP4 SLOAD DIV MUL DUP4 MSTORE SWAP2 PUSH1 0x20 ADD SWAP2 PUSH2 0x12F1 JUMP JUMPDEST DUP3 ADD SWAP2 SWAP1 PUSH1 0x0 MSTORE PUSH1 0x20 PUSH1 0x0 KECCAK256 SWAP1 JUMPDEST DUP2 SLOAD DUP2 MSTORE SWAP1 PUSH1 0x1 ADD SWAP1 PUSH1 0x20 ADD DUP1 DUP4 GT PUSH2 0x12D4 JUMPI DUP3 SWAP1 SUB PUSH1 0x1F AND DUP3 ADD SWAP2 JUMPDEST POP POP POP POP POP DUP2 MSTORE PUSH1 0x20 ADD PUSH1 0x1 DUP3 ADD SLOAD DUP2 MSTORE POP POP SWAP3 POP JUMPDEST DUP1 PUSH2 0x1311 DUP2 PUSH2 0x1C4D JUMP JUMPDEST SWAP2 POP POP PUSH2 0x11DF JUMP JUMPDEST POP POP SWAP1 JUMP JUMPDEST PUSH2 0x1350 PUSH1 0x40 MLOAD DUP1 PUSH1 0xA0 ADD PUSH1 0x40 MSTORE DUP1 PUSH1 0x0 DUP2 MSTORE PUSH1 0x20 ADD PUSH1 0x60 DUP2 MSTORE PUSH1 0x20 ADD PUSH1 0x60 DUP2 MSTORE PUSH1 0x20 ADD PUSH1 0x0 DUP2 MSTORE PUSH1 0x20 ADD PUSH1 0x0 DUP2 MSTORE POP SWAP1 JUMP JUMPDEST PUSH1 0x0 PUSH2 0x135B DUP4 PUSH2 0x71C JUMP JUMPDEST SWAP1 POP PUSH1 0x0 DUP2 PUSH1 0x0 DUP2 MLOAD DUP2 LT PUSH2 0x1372 JUMPI PUSH2 0x1372 PUSH2 0x1AE1 JUMP JUMPDEST PUSH1 0x20 MUL PUSH1 0x20 ADD ADD MLOAD SWAP3 POP PUSH1 0x0 JUMPDEST DUP3 MLOAD DUP2 LT ISZERO PUSH2 0x13FC JUMPI DUP2 DUP4 DUP3 DUP2 MLOAD DUP2 LT PUSH2 0x139B JUMPI PUSH2 0x139B PUSH2 0x1AE1 JUMP JUMPDEST PUSH1 0x20 MUL PUSH1 0x20 ADD ADD MLOAD PUSH1 0x80 ADD MLOAD GT ISZERO PUSH2 0x13EA JUMPI DUP3 DUP2 DUP2 MLOAD DUP2 LT PUSH2 0x13BF JUMPI PUSH2 0x13BF PUSH2 0x1AE1 JUMP JUMPDEST PUSH1 0x20 MUL PUSH1 0x20 ADD ADD MLOAD PUSH1 0x80 ADD MLOAD SWAP2 POP DUP3 DUP2 DUP2 MLOAD DUP2 LT PUSH2 0x13DF JUMPI PUSH2 0x13DF PUSH2 0x1AE1 JUMP JUMPDEST PUSH1 0x20 MUL PUSH1 0x20 ADD ADD MLOAD SWAP4 POP JUMPDEST DUP1 PUSH2 0x13F4 DUP2 PUSH2 0x1C4D JUMP JUMPDEST SWAP2 POP POP PUSH2 0x137F JUMP JUMPDEST POP POP POP SWAP2 SWAP1 POP JUMP JUMPDEST PUSH1 0x0 DUP1 PUSH1 0x0 SLOAD PUSH1 0xFF AND PUSH1 0x1 DUP2 GT ISZERO PUSH2 0x141E JUMPI PUSH2 0x141E PUSH2 0x1950 JUMP JUMPDEST EQ ISZERO PUSH2 0x142A JUMPI POP PUSH1 0x1 SWAP1 JUMP JUMPDEST POP PUSH1 0x0 SWAP1 JUMP JUMPDEST PUSH1 0x0 SLOAD PUSH2 0x100 SWAP1 DIV PUSH1 0x1 PUSH1 0x1 PUSH1 0xA0 SHL SUB AND CALLER EQ PUSH2 0x145F JUMPI PUSH1 0x40 MLOAD PUSH3 0x461BCD PUSH1 0xE5 SHL DUP2 MSTORE PUSH1 0x4 ADD PUSH2 0x45B SWAP1 PUSH2 0x1CA3 JUMP JUMPDEST PUSH1 0x1 PUSH1 0x1 PUSH1 0xA0 SHL SUB DUP4 AND PUSH1 0x0 SWAP1 DUP2 MSTORE PUSH1 0x1 PUSH1 0x20 MSTORE PUSH1 0x40 SWAP1 KECCAK256 PUSH1 0x2 ADD SLOAD PUSH2 0x100 SWAP1 DIV PUSH1 0xFF AND ISZERO DUP1 PUSH2 0x14B1 JUMPI POP PUSH1 0x1 PUSH1 0x1 PUSH1 0xA0 SHL SUB DUP4 AND PUSH1 0x0 SWAP1 DUP2 MSTORE PUSH1 0x1 PUSH1 0x20 MSTORE PUSH1 0x40 SWAP1 KECCAK256 PUSH1 0x2 ADD SLOAD PUSH3 0x10000 SWAP1 DIV PUSH1 0xFF AND ISZERO JUMPDEST PUSH2 0x14F7 JUMPI PUSH1 0x40 MLOAD PUSH3 0x461BCD PUSH1 0xE5 SHL DUP2 MSTORE PUSH1 0x20 PUSH1 0x4 DUP3 ADD MSTORE PUSH1 0x17 PUSH1 0x24 DUP3 ADD MSTORE PUSH23 0x151A19481D9BDD195C88185B1C9958591E481D9BDD1959 PUSH1 0x4A SHL PUSH1 0x44 DUP3 ADD MSTORE PUSH1 0x64 ADD PUSH2 0x45B JUMP JUMPDEST PUSH1 0x1 PUSH1 0x1 PUSH1 0xA0 SHL SUB DUP4 AND PUSH1 0x0 SWAP1 DUP2 MSTORE PUSH1 0x1 PUSH1 0x20 MSTORE PUSH1 0x40 SWAP1 KECCAK256 PUSH1 0x2 ADD SLOAD PUSH1 0xFF AND ISZERO PUSH2 0x155C JUMPI PUSH1 0x40 MLOAD PUSH3 0x461BCD PUSH1 0xE5 SHL DUP2 MSTORE PUSH1 0x20 PUSH1 0x4 DUP3 ADD MSTORE PUSH1 0x16 PUSH1 0x24 DUP3 ADD MSTORE PUSH22 0x566F7465722063616E20616C726561647920766F7465 PUSH1 0x50 SHL PUSH1 0x44 DUP3 ADD MSTORE PUSH1 0x64 ADD PUSH2 0x45B JUMP JUMPDEST PUSH1 0x1 PUSH1 0x1 PUSH1 0xA0 SHL SUB DUP4 AND PUSH1 0x0 SWAP1 DUP2 MSTORE PUSH1 0x1 PUSH1 0x20 DUP2 DUP2 MSTORE PUSH1 0x40 SWAP1 SWAP3 KECCAK256 PUSH1 0x2 DUP2 ADD DUP1 SLOAD PUSH1 0xFF NOT AND SWAP1 SWAP3 OR SWAP1 SWAP2 SSTORE DUP4 MLOAD PUSH2 0x1595 SWAP3 DUP6 ADD SWAP1 PUSH2 0x1618 JUMP JUMPDEST POP PUSH2 0x159F DUP2 PUSH2 0x526 JUMP JUMPDEST PUSH1 0x1 PUSH1 0x1 PUSH1 0xA0 SHL SUB DUP5 AND PUSH1 0x0 DUP2 DUP2 MSTORE PUSH1 0x1 PUSH1 0x20 DUP2 SWAP1 MSTORE PUSH1 0x40 DUP1 DUP4 KECCAK256 SWAP2 DUP3 ADD SWAP5 SWAP1 SWAP5 SSTORE PUSH1 0x2 ADD DUP1 SLOAD PUSH3 0xFFFF00 NOT AND SWAP1 SSTORE SWAP2 MLOAD SWAP1 SWAP2 SWAP1 PUSH7 0x38D7EA4C68000 SWAP1 DUP3 DUP2 DUP2 DUP2 DUP6 DUP9 DUP4 CALL SWAP4 POP POP POP POP ISZERO DUP1 ISZERO PUSH2 0x15FA JUMPI RETURNDATASIZE PUSH1 0x0 DUP1 RETURNDATACOPY RETURNDATASIZE PUSH1 0x0 REVERT JUMPDEST POP PUSH1 0x1 PUSH1 0x6 PUSH1 0x0 DUP3 DUP3 SLOAD PUSH2 0x160E SWAP2 SWAP1 PUSH2 0x1B0D JUMP JUMPDEST SWAP1 SWAP2 SSTORE POP POP POP POP POP JUMP JUMPDEST DUP3 DUP1 SLOAD PUSH2 0x1624 SWAP1 PUSH2 0x1C68 JUMP JUMPDEST SWAP1 PUSH1 0x0 MSTORE PUSH1 0x20 PUSH1 0x0 KECCAK256 SWAP1 PUSH1 0x1F ADD PUSH1 0x20 SWAP1 DIV DUP2 ADD SWAP3 DUP3 PUSH2 0x1646 JUMPI PUSH1 0x0 DUP6 SSTORE PUSH2 0x168C JUMP JUMPDEST DUP3 PUSH1 0x1F LT PUSH2 0x165F JUMPI DUP1 MLOAD PUSH1 0xFF NOT AND DUP4 DUP1 ADD OR DUP6 SSTORE PUSH2 0x168C JUMP JUMPDEST DUP3 DUP1 ADD PUSH1 0x1 ADD DUP6 SSTORE DUP3 ISZERO PUSH2 0x168C JUMPI SWAP2 DUP3 ADD JUMPDEST DUP3 DUP2 GT ISZERO PUSH2 0x168C JUMPI DUP3 MLOAD DUP3 SSTORE SWAP2 PUSH1 0x20 ADD SWAP2 SWAP1 PUSH1 0x1 ADD SWAP1 PUSH2 0x1671 JUMP JUMPDEST POP PUSH2 0x1698 SWAP3 SWAP2 POP PUSH2 0x169C JUMP JUMPDEST POP SWAP1 JUMP JUMPDEST JUMPDEST DUP1 DUP3 GT ISZERO PUSH2 0x1698 JUMPI PUSH1 0x0 DUP2 SSTORE PUSH1 0x1 ADD PUSH2 0x169D JUMP JUMPDEST PUSH1 0x0 PUSH1 0x20 DUP3 DUP5 SUB SLT ISZERO PUSH2 0x16C3 JUMPI PUSH1 0x0 DUP1 REVERT JUMPDEST POP CALLDATALOAD SWAP2 SWAP1 POP JUMP JUMPDEST PUSH4 0x4E487B71 PUSH1 0xE0 SHL PUSH1 0x0 MSTORE PUSH1 0x41 PUSH1 0x4 MSTORE PUSH1 0x24 PUSH1 0x0 REVERT JUMPDEST PUSH1 0x0 DUP3 PUSH1 0x1F DUP4 ADD SLT PUSH2 0x16F1 JUMPI PUSH1 0x0 DUP1 REVERT JUMPDEST DUP2 CALLDATALOAD PUSH8 0xFFFFFFFFFFFFFFFF DUP1 DUP3 GT ISZERO PUSH2 0x170C JUMPI PUSH2 0x170C PUSH2 0x16CA JUMP JUMPDEST PUSH1 0x40 MLOAD PUSH1 0x1F DUP4 ADD PUSH1 0x1F NOT SWAP1 DUP2 AND PUSH1 0x3F ADD AND DUP2 ADD SWAP1 DUP3 DUP3 GT DUP2 DUP4 LT OR ISZERO PUSH2 0x1734 JUMPI PUSH2 0x1734 PUSH2 0x16CA JUMP JUMPDEST DUP2 PUSH1 0x40 MSTORE DUP4 DUP2 MSTORE DUP7 PUSH1 0x20 DUP6 DUP9 ADD ADD GT ISZERO PUSH2 0x174D JUMPI PUSH1 0x0 DUP1 REVERT JUMPDEST DUP4 PUSH1 0x20 DUP8 ADD PUSH1 0x20 DUP4 ADD CALLDATACOPY PUSH1 0x0 PUSH1 0x20 DUP6 DUP4 ADD ADD MSTORE DUP1 SWAP5 POP POP POP POP POP SWAP3 SWAP2 POP POP JUMP JUMPDEST PUSH1 0x0 PUSH1 0x20 DUP3 DUP5 SUB SLT ISZERO PUSH2 0x177F JUMPI PUSH1 0x0 DUP1 REVERT JUMPDEST DUP2 CALLDATALOAD PUSH8 0xFFFFFFFFFFFFFFFF DUP2 GT ISZERO PUSH2 0x1796 JUMPI PUSH1 0x0 DUP1 REVERT JUMPDEST PUSH2 0x17A2 DUP5 DUP3 DUP6 ADD PUSH2 0x16E0 JUMP JUMPDEST SWAP5 SWAP4 POP POP POP POP JUMP JUMPDEST PUSH1 0x0 DUP2 MLOAD DUP1 DUP5 MSTORE PUSH1 0x0 JUMPDEST DUP2 DUP2 LT ISZERO PUSH2 0x17D0 JUMPI PUSH1 0x20 DUP2 DUP6 ADD DUP2 ADD MLOAD DUP7 DUP4 ADD DUP3 ADD MSTORE ADD PUSH2 0x17B4 JUMP JUMPDEST DUP2 DUP2 GT ISZERO PUSH2 0x17E2 JUMPI PUSH1 0x0 PUSH1 0x20 DUP4 DUP8 ADD ADD MSTORE JUMPDEST POP PUSH1 0x1F ADD PUSH1 0x1F NOT AND SWAP3 SWAP1 SWAP3 ADD PUSH1 0x20 ADD SWAP3 SWAP2 POP POP JUMP JUMPDEST DUP6 DUP2 MSTORE PUSH1 0xA0 PUSH1 0x20 DUP3 ADD MSTORE PUSH1 0x0 PUSH2 0x1810 PUSH1 0xA0 DUP4 ADD DUP8 PUSH2 0x17AA JUMP JUMPDEST DUP3 DUP2 SUB PUSH1 0x40 DUP5 ADD MSTORE PUSH2 0x1822 DUP2 DUP8 PUSH2 0x17AA JUMP JUMPDEST PUSH1 0x60 DUP5 ADD SWAP6 SWAP1 SWAP6 MSTORE POP POP PUSH1 0x80 ADD MSTORE SWAP4 SWAP3 POP POP POP JUMP JUMPDEST DUP1 MLOAD DUP3 MSTORE PUSH1 0x0 PUSH1 0x20 DUP3 ADD MLOAD PUSH1 0xA0 PUSH1 0x20 DUP6 ADD MSTORE PUSH2 0x1856 PUSH1 0xA0 DUP6 ADD DUP3 PUSH2 0x17AA JUMP JUMPDEST SWAP1 POP PUSH1 0x40 DUP4 ADD MLOAD DUP5 DUP3 SUB PUSH1 0x40 DUP7 ADD MSTORE PUSH2 0x186F DUP3 DUP3 PUSH2 0x17AA JUMP JUMPDEST SWAP2 POP POP PUSH1 0x60 DUP4 ADD MLOAD PUSH1 0x60 DUP6 ADD MSTORE PUSH1 0x80 DUP4 ADD MLOAD PUSH1 0x80 DUP6 ADD MSTORE DUP1 SWAP2 POP POP SWAP3 SWAP2 POP POP JUMP JUMPDEST PUSH1 0x0 PUSH1 0x20 DUP1 DUP4 ADD DUP2 DUP5 MSTORE DUP1 DUP6 MLOAD DUP1 DUP4 MSTORE PUSH1 0x40 DUP7 ADD SWAP2 POP PUSH1 0x40 DUP2 PUSH1 0x5 SHL DUP8 ADD ADD SWAP3 POP DUP4 DUP8 ADD PUSH1 0x0 JUMPDEST DUP3 DUP2 LT ISZERO PUSH2 0x18E5 JUMPI PUSH1 0x3F NOT DUP9 DUP7 SUB ADD DUP5 MSTORE PUSH2 0x18D3 DUP6 DUP4 MLOAD PUSH2 0x1837 JUMP JUMPDEST SWAP5 POP SWAP3 DUP6 ADD SWAP3 SWAP1 DUP6 ADD SWAP1 PUSH1 0x1 ADD PUSH2 0x18B7 JUMP JUMPDEST POP SWAP3 SWAP8 SWAP7 POP POP POP POP POP POP POP JUMP JUMPDEST PUSH1 0x1 PUSH1 0x1 PUSH1 0xA0 SHL SUB DUP2 AND DUP2 EQ PUSH2 0x1907 JUMPI PUSH1 0x0 DUP1 REVERT JUMPDEST POP JUMP JUMPDEST PUSH1 0x0 PUSH1 0x20 DUP3 DUP5 SUB SLT ISZERO PUSH2 0x191C JUMPI PUSH1 0x0 DUP1 REVERT JUMPDEST DUP2 CALLDATALOAD PUSH2 0x1927 DUP2 PUSH2 0x18F2 JUMP JUMPDEST SWAP4 SWAP3 POP POP POP JUMP JUMPDEST PUSH1 0x40 DUP2 MSTORE PUSH1 0x0 PUSH2 0x1941 PUSH1 0x40 DUP4 ADD DUP6 PUSH2 0x17AA JUMP JUMPDEST SWAP1 POP DUP3 PUSH1 0x20 DUP4 ADD MSTORE SWAP4 SWAP3 POP POP POP JUMP JUMPDEST PUSH4 0x4E487B71 PUSH1 0xE0 SHL PUSH1 0x0 MSTORE PUSH1 0x21 PUSH1 0x4 MSTORE PUSH1 0x24 PUSH1 0x0 REVERT JUMPDEST PUSH1 0x20 DUP2 ADD PUSH1 0x2 DUP4 LT PUSH2 0x1988 JUMPI PUSH4 0x4E487B71 PUSH1 0xE0 SHL PUSH1 0x0 MSTORE PUSH1 0x21 PUSH1 0x4 MSTORE PUSH1 0x24 PUSH1 0x0 REVERT JUMPDEST SWAP2 SWAP1 MSTORE SWAP1 JUMP JUMPDEST PUSH1 0xA0 DUP2 MSTORE PUSH1 0x0 PUSH2 0x19A1 PUSH1 0xA0 DUP4 ADD DUP9 PUSH2 0x17AA JUMP JUMPDEST PUSH1 0x20 DUP4 ADD SWAP7 SWAP1 SWAP7 MSTORE POP SWAP3 ISZERO ISZERO PUSH1 0x40 DUP5 ADD MSTORE SWAP1 ISZERO ISZERO PUSH1 0x60 DUP4 ADD MSTORE ISZERO ISZERO PUSH1 0x80 SWAP1 SWAP2 ADD MSTORE SWAP2 SWAP1 POP JUMP JUMPDEST PUSH1 0x0 DUP2 MLOAD PUSH1 0x40 DUP5 MSTORE PUSH2 0x19DC PUSH1 0x40 DUP6 ADD DUP3 PUSH2 0x17AA JUMP JUMPDEST PUSH1 0x20 SWAP4 DUP5 ADD MLOAD SWAP5 SWAP1 SWAP4 ADD SWAP4 SWAP1 SWAP4 MSTORE POP SWAP2 SWAP1 POP JUMP JUMPDEST PUSH1 0x0 PUSH1 0x20 DUP1 DUP4 ADD DUP2 DUP5 MSTORE DUP1 DUP6 MLOAD DUP1 DUP4 MSTORE PUSH1 0x40 DUP7 ADD SWAP2 POP PUSH1 0x40 DUP2 PUSH1 0x5 SHL DUP8 ADD ADD SWAP3 POP DUP4 DUP8 ADD PUSH1 0x0 JUMPDEST DUP3 DUP2 LT ISZERO PUSH2 0x18E5 JUMPI PUSH1 0x3F NOT DUP9 DUP7 SUB ADD DUP5 MSTORE PUSH2 0x1A33 DUP6 DUP4 MLOAD PUSH2 0x19C7 JUMP JUMPDEST SWAP5 POP SWAP3 DUP6 ADD SWAP3 SWAP1 DUP6 ADD SWAP1 PUSH1 0x1 ADD PUSH2 0x1A17 JUMP JUMPDEST PUSH1 0x20 DUP2 MSTORE PUSH1 0x0 PUSH2 0x1927 PUSH1 0x20 DUP4 ADD DUP5 PUSH2 0x19C7 JUMP JUMPDEST PUSH1 0x20 DUP2 MSTORE PUSH1 0x0 PUSH2 0x1927 PUSH1 0x20 DUP4 ADD DUP5 PUSH2 0x1837 JUMP JUMPDEST PUSH1 0x0 DUP1 PUSH1 0x0 PUSH1 0x60 DUP5 DUP7 SUB SLT ISZERO PUSH2 0x1A80 JUMPI PUSH1 0x0 DUP1 REVERT JUMPDEST DUP4 CALLDATALOAD PUSH2 0x1A8B DUP2 PUSH2 0x18F2 JUMP JUMPDEST SWAP3 POP PUSH1 0x20 DUP5 ADD CALLDATALOAD PUSH8 0xFFFFFFFFFFFFFFFF DUP1 DUP3 GT ISZERO PUSH2 0x1AA8 JUMPI PUSH1 0x0 DUP1 REVERT JUMPDEST PUSH2 0x1AB4 DUP8 DUP4 DUP9 ADD PUSH2 0x16E0 JUMP JUMPDEST SWAP4 POP PUSH1 0x40 DUP7 ADD CALLDATALOAD SWAP2 POP DUP1 DUP3 GT ISZERO PUSH2 0x1ACA JUMPI PUSH1 0x0 DUP1 REVERT JUMPDEST POP PUSH2 0x1AD7 DUP7 DUP3 DUP8 ADD PUSH2 0x16E0 JUMP JUMPDEST SWAP2 POP POP SWAP3 POP SWAP3 POP SWAP3 JUMP JUMPDEST PUSH4 0x4E487B71 PUSH1 0xE0 SHL PUSH1 0x0 MSTORE PUSH1 0x32 PUSH1 0x4 MSTORE PUSH1 0x24 PUSH1 0x0 REVERT JUMPDEST PUSH4 0x4E487B71 PUSH1 0xE0 SHL PUSH1 0x0 MSTORE PUSH1 0x11 PUSH1 0x4 MSTORE PUSH1 0x24 PUSH1 0x0 REVERT JUMPDEST PUSH1 0x0 DUP3 NOT DUP3 GT ISZERO PUSH2 0x1B20 JUMPI PUSH2 0x1B20 PUSH2 0x1AF7 JUMP JUMPDEST POP ADD SWAP1 JUMP JUMPDEST PUSH1 0x0 DUP3 DUP3 LT ISZERO PUSH2 0x1B37 JUMPI PUSH2 0x1B37 PUSH2 0x1AF7 JUMP JUMPDEST POP SUB SWAP1 JUMP JUMPDEST PUSH1 0x1 DUP2 DUP2 JUMPDEST DUP1 DUP6 GT ISZERO PUSH2 0x1B77 JUMPI DUP2 PUSH1 0x0 NOT DIV DUP3 GT ISZERO PUSH2 0x1B5D JUMPI PUSH2 0x1B5D PUSH2 0x1AF7 JUMP JUMPDEST DUP1 DUP6 AND ISZERO PUSH2 0x1B6A JUMPI SWAP2 DUP2 MUL SWAP2 JUMPDEST SWAP4 DUP5 SHR SWAP4 SWAP1 DUP1 MUL SWAP1 PUSH2 0x1B41 JUMP JUMPDEST POP SWAP3 POP SWAP3 SWAP1 POP JUMP JUMPDEST PUSH1 0x0 DUP3 PUSH2 0x1B8E JUMPI POP PUSH1 0x1 PUSH2 0x1C1C JUMP JUMPDEST DUP2 PUSH2 0x1B9B JUMPI POP PUSH1 0x0 PUSH2 0x1C1C JUMP JUMPDEST DUP2 PUSH1 0x1 DUP2 EQ PUSH2 0x1BB1 JUMPI PUSH1 0x2 DUP2 EQ PUSH2 0x1BBB JUMPI PUSH2 0x1BD7 JUMP JUMPDEST PUSH1 0x1 SWAP2 POP POP PUSH2 0x1C1C JUMP JUMPDEST PUSH1 0xFF DUP5 GT ISZERO PUSH2 0x1BCC JUMPI PUSH2 0x1BCC PUSH2 0x1AF7 JUMP JUMPDEST POP POP PUSH1 0x1 DUP3 SHL PUSH2 0x1C1C JUMP JUMPDEST POP PUSH1 0x20 DUP4 LT PUSH2 0x133 DUP4 LT AND PUSH1 0x4E DUP5 LT PUSH1 0xB DUP5 LT AND OR ISZERO PUSH2 0x1BFA JUMPI POP DUP2 DUP2 EXP PUSH2 0x1C1C JUMP JUMPDEST PUSH2 0x1C04 DUP4 DUP4 PUSH2 0x1B3C JUMP JUMPDEST DUP1 PUSH1 0x0 NOT DIV DUP3 GT ISZERO PUSH2 0x1C18 JUMPI PUSH2 0x1C18 PUSH2 0x1AF7 JUMP JUMPDEST MUL SWAP1 POP JUMPDEST SWAP3 SWAP2 POP POP JUMP JUMPDEST PUSH1 0x0 PUSH2 0x1927 DUP4 DUP4 PUSH2 0x1B7F JUMP JUMPDEST PUSH1 0x0 DUP2 PUSH1 0x0 NOT DIV DUP4 GT DUP3 ISZERO ISZERO AND ISZERO PUSH2 0x1C48 JUMPI PUSH2 0x1C48 PUSH2 0x1AF7 JUMP JUMPDEST POP MUL SWAP1 JUMP JUMPDEST PUSH1 0x0 PUSH1 0x0 NOT DUP3 EQ ISZERO PUSH2 0x1C61 JUMPI PUSH2 0x1C61 PUSH2 0x1AF7 JUMP JUMPDEST POP PUSH1 0x1 ADD SWAP1 JUMP JUMPDEST PUSH1 0x1 DUP2 DUP2 SHR SWAP1 DUP3 AND DUP1 PUSH2 0x1C7C JUMPI PUSH1 0x7F DUP3 AND SWAP2 POP JUMPDEST PUSH1 0x20 DUP3 LT DUP2 EQ ISZERO PUSH2 0x1C9D JUMPI PUSH4 0x4E487B71 PUSH1 0xE0 SHL PUSH1 0x0 MSTORE PUSH1 0x22 PUSH1 0x4 MSTORE PUSH1 0x24 PUSH1 0x0 REVERT JUMPDEST POP SWAP2 SWAP1 POP JUMP JUMPDEST PUSH1 0x20 DUP1 DUP3 MSTORE PUSH1 0x17 SWAP1 DUP3 ADD MSTORE PUSH32 0x6F6E6C79206F776E65722063616E207573652074686973000000000000000000 PUSH1 0x40 DUP3 ADD MSTORE PUSH1 0x60 ADD SWAP1 JUMP INVALID LOG2 PUSH5 0x6970667358 0x22 SLT KECCAK256 0xAC 0xD2 0xE0 SHL 0xB9 PUSH26 0xF3BE116CDA3D95337718544EF8280EF040595E4C84BAEAF40681 PUSH5 0x736F6C6343 STOP ADDMOD 0xC STOP CALLER ",
  "sha1": "227b0a93d1521aaa366174bb7b86cdbbd2cd02cc",
  "source": "// SPDX-License-Identifier: GPL-3.0\npragma solidity >=0.7.0 <0.9.0;\npragma abicoder v2;\n\ncontract Voting {\n    struct Voter {\n        string id;\n        uint256 area;\n        bool canVote;\n        bool votedForCandidate;\n        bool votedForParty;\n    }\n\n    struct Party {\n        string name;\n        uint256 voteCount;\n    }\n\n    struct Candidate {\n        uint256 id;\n        string name;\n        string party;\n        uint256 area;\n        uint256 voteCount;\n    }\n\n    enum VOTING_STATE {\n        OPEN,\n        CLOSED\n    }\n\n    VOTING_STATE public voting_state;\n\n    address public chairperson;\n    mapping(address => Voter) public voters;\n    \n    Candidate[] public candidates;\n    Party[] public parties;\n    uint256 public party_vote_count=0;\n    uint256 public candidate_vote_count=0;\n    uint256 public voter_count = 0;\n    \n\n\n\n\n    constructor(\n        string[4][] memory candidateNamesParty,\n        string[] memory partyNames\n    ) payable {\n        chairperson = msg.sender;\n        voters[chairperson].canVote = true;\n        for (uint256 i = 0; i < candidateNamesParty.length; i++) {\n            uint area = stringToUint(candidateNamesParty[i][3]);\n            uint id = stringToUint(candidateNamesParty[i][0]);\n            \n            candidates.push(\n                Candidate({\n                    id: id,\n                    name: candidateNamesParty[i][1],\n                    party: candidateNamesParty[i][2],\n                    area: area,\n                    voteCount: 0\n                })\n            );\n        }\n        for (uint256 i = 0; i < partyNames.length; i++) {\n            parties.push(Party({name: partyNames[i], voteCount: 0}));\n        }\n        voter_count += 1;\n    }\n\n    modifier onlyOwner() {\n        require(msg.sender == chairperson, \"only owner can use this\");\n        _;\n    }\n\n    function stringToUint(string memory numString)\n        public\n        pure\n        returns (uint256)\n    {\n        uint256 val = 0;\n        bytes memory stringBytes = bytes(numString);\n        for (uint256 i = 0; i < stringBytes.length; i++) {\n            uint256 exp = stringBytes.length - i;\n            bytes1 ival = stringBytes[i];\n            uint8 uval = uint8(ival);\n            uint256 jval = uval - uint256(0x30);\n\n            val += (uint256(jval) * (10**(exp - 1)));\n        }\n        return val;\n    }\n\n    \n    function getCandidates(uint area)public view returns(Candidate[] memory) {\n        uint totalCandidates = candidates.length;\n        require(totalCandidates > 0, \"No candidates registered\");\n\n        uint numCandidatesOnArea;\n        for (uint256 i = 0; i < totalCandidates; i++) {\n            if(candidates[i].area == area){\n                numCandidatesOnArea +=1;\n            }\n        }\n        require(numCandidatesOnArea > 0, \"No candidates found\");\n        uint x =0;\n        // string[] memory candidates_to_return = new string[](numCandidatesOnArea);\n        Candidate[] memory candidates_to_return = new Candidate[](numCandidatesOnArea);\n        for (uint256 i = 0; i < totalCandidates; i++) {\n            if(candidates[i].area == area){\n                candidates_to_return[x] = candidates[i];\n                x+=1;\n            }\n        }\n        \n        return candidates_to_return;\n    }\n    // function getCandidates(uint256 area) public view returns (Candidate[] memory temp ) {\n    //     uint x = 0;\n    //     for (uint256 i=0; i<candidates.length; i++){\n    //         if (candidates[i].area == area) {\n    //             temp[x] = candidates[i];\n    //             x+=1;\n    //         }\n    //     }\n    // }\n\n    function getParties() public view returns (Party[] memory) {\n        return parties;\n    }\n\n    function giveRightToVote(\n        address payable voter,\n        string memory id,\n        string memory area\n        \n    )onlyOwner external {\n        \n        require(\n            !voters[voter].votedForCandidate || !voters[voter].votedForParty,\n            \"The voter already voted\"\n        );\n        require(!voters[voter].canVote, \"Voter can already vote\");\n        voters[voter].canVote = true;\n        voters[voter].id = id;\n        voters[voter].area = stringToUint(area);\n        voters[voter].votedForCandidate = false;\n        voters[voter].votedForParty = false;\n        voter.transfer(1000000000000000);\n        voter_count += 1;\n    }\n\n    function removeRightToVote(address voter) onlyOwner external {\n        \n        require(\n            !voters[voter].votedForCandidate || !voters[voter].votedForParty,\n            \"The voter already voted\"\n        );\n        require(voters[voter].canVote, \"Voter doesn't have right to vote\");\n        voters[voter].canVote = false;\n        voter_count -= 1;\n    }\n\n    function voteCandidate(uint256 candidateId) external {\n        Voter storage sender = voters[msg.sender];\n        uint id;\n        require(sender.canVote, \"Has no right to vote\");\n        require(!sender.votedForCandidate, \"already voted for candidate\");\n        for (uint256 i=0; i<candidates.length; i++){\n            if (candidates[i].id == candidateId) {\n                id = i;\n                break;\n            }\n        }\n        require(\n            sender.area == candidates[id].area,\n            \"cannot vote candidate in this area\"\n        );\n        candidates[id].voteCount += 1;\n        candidate_vote_count +=1;\n        sender.votedForCandidate = true;\n    }\n\n    function voteParty(uint256 party) external {\n        Voter storage sender = voters[msg.sender];\n        require(sender.canVote, \"Has no right to vote\");\n        require(!sender.votedForParty, \"already voted for party\");\n        parties[party].voteCount += 1;\n        party_vote_count += 1;\n        sender.votedForCandidate = true;\n    }\n\n    function winningCandidate(uint256 area) public view returns (Candidate memory winningCandidate_){\n        Candidate[] memory candidates_in_area = getCandidates(area);\n        uint256 winningVoteCount = 0;\n        winningCandidate_ = candidates_in_area[0];\n        for (uint256 i = 0; i < candidates_in_area.length; i++) {\n            if (candidates_in_area[i].voteCount > winningVoteCount) {\n                winningVoteCount = candidates_in_area[i].voteCount;\n                winningCandidate_ = candidates_in_area[i];\n            }\n        }\n    }\n\n    function winningParty() public view returns (Party memory  winningParty_) {\n        uint256 winningVoteCount = 0;\n        winningParty_ = parties[0];\n        for (uint256 i = 0; i < parties.length; i++) {\n            if (parties[i].voteCount > winningVoteCount) {\n                winningVoteCount = parties[i].voteCount;\n                winningParty_ = parties[i];\n            }\n        }\n    }\n\n    function fund() public payable {}\n\n    function get_balance() public view returns (uint256) {\n        return address(this).balance;\n    }\n\n    function startElection() public onlyOwner {\n        require(\n            voting_state == VOTING_STATE.CLOSED,\n            \"Can't start a new lottery yet!\"\n        );\n        voting_state = VOTING_STATE.OPEN;\n    }\n\n    function is_open() public view returns(bool state){\n        if (voting_state == VOTING_STATE.OPEN) {\n            return true;\n        }\n        else{\n            return false;\n        }\n    }\n\n}\n\n",
  "sourcePath": "contracts/Voting.sol",
  "type": "contract"
}